:100000000C943B010C946C010C946C010C946C01ED
:100010000C946C010C946C010C946C010C946C01AC
:100020000C946C010C946C010C946C010C946C019C
:100030000C946C010C946C010C946C010C946C018C
:100040000C946C010C946C010C946C010C946C017C
:100050000C946C010C946C010C946C010C946F0367
:100060000C946C010C94E3030C94B9030C946C0194
:100070000C946C010C946C010C946C010C946C014C
:100080000C946C010C946C010C946C010C946C013C
:100090000C946C010C946C010C946C010C94EA07A8
:1000A0000C946C010C946C010C946C010C946C011C
:1000B0000C946C010C946C010C946C010C946C010C
:1000C0000C946C010C946C010C946C010C946C01FC
:1000D0000C946C010C946C010C946C010C946C01EC
:1000E0000C946C0151055405430547054B058B05E0
:1000F00058055C05620566056A0570057405780596
:100100008B057E05820586050C9470050C946E01A6
:100110000C9486050C94CA010C944B050C94620552
:100120000C94A5050C94C7010C945C050C94D901A2
:100130000C94B4050C9443050C9479020C9474054A
:100140000C9482050C9447050C947E050C94ED01EB
:100150000C9466050C949B010C94140F0C948B0565
:100160000C9432020C946A050C9458050C945405B6
:100170000C94FB010C94D4020C9404030C94A4057D
:100180000C9478050C9451050000220025002800ED
:100190002B002E003100340002010000050108018F
:1001A0000B010505050507050808080802020202FB
:1001B0000A0A080804040404010101010101010103
:1001C0000303030303030303040707070C0C0C0CCE
:1001D0000C0C0C0C020202020606060606060606B7
:1001E0000B0B0B0B0B0B0B0B010210202008081044
:1001F0002040102040800201020108040201010297
:10020000040810204080804020100804020180046F
:1002100002018040201008040201080402010102CA
:1002200004081020408001020408102040800000D3
:100230000A0B02090C0D0E08070304010000000060
:1002400000000000000000000000000000000000AE
:10025000000000000000000000001211100000006B
:10026000000000000000000000000000000000008E
:1002700000000000140F11241FBECFEFD1E2DEBF3B
:10028000CDBF00E00CBF12E0A0E0B2E0ECE9F1E28B
:1002900000E00BBF02C007900D92A23BB107D9F757
:1002A00024E0A2EBB2E001C01D92AF31B207E1F74A
:1002B00011E0CBE3D1E000E006C021970109802FD7
:1002C000FE010E94830FCA33D10780E00807A9F717
:1002D0000E94BE0C0C94CC100C9400008091DE02A5
:1002E00090E02091DF02821B910908953FB7F894B6
:1002F0008091BA029091BB02A091BC02B091BD0264
:1003000026B5A89B05C02F3F19F00196A11DB11D70
:100310003FBFBA2FA92F982F8827820F911DA11DAB
:10032000B11DBC01CD0142E0660F771F881F991FE8
:100330004A95D1F70895CF92DF92EF92FF920F93F3
:100340001F93CF93DF936C017A018B01C0E0D0E063
:10035000CE15DF0589F0D8016D918D01D601ED91A3
:10036000FC910190F081E02DC6011995892B11F4C3
:100370007E0102C02196ECCFC701DF91CF911F9182
:100380000F91FF90EF90DF90CF900895089580E057
:1003900090E00895FC01538D448D252F30E0842F8B
:1003A00090E0821B930B541710F0CF96089501979D
:1003B0000895FC01918D828D981761F0828DDF0187
:1003C000A80FB11D5D968C91928D9F5F9F73928F48
:1003D00090E008958FEF9FEF0895FC01918D828D3D
:1003E000981731F0828DE80FF11D858D90E008950A
:1003F0008FEF9FEF0895FC01918D228D892F90E062
:10040000805C9F4F821B91098F739927089587E322
:1004100093E00E94FB0121E0892B09F420E0822F68
:100420000895FC01848DDF01A80FB11DA35ABF4FB1
:100430002C91848D90E001968F739927848FA689E3
:10044000B7892C93A089B1898C9180648C93938D0A
:10045000848D981306C00288F389E02D80818F7DFA
:1004600080830895EF92FF920F931F93CF93DF93B2
:10047000EC0181E0888F9B8D8C8D981305C0E889F5
:10048000F989808185FD24C0F62E0B8D10E00F5F69
:100490001F4F0F731127E02E8C8DE8120CC00FB682
:1004A00007FCFACFE889F989808185FFF5CFCE0175
:1004B0000E941102F1CF8B8DFE01E80FF11DE35A6E
:1004C000FF4FF0820B8FEA89FB898081806207C031
:1004D000EE89FF896083E889F9898081806480835F
:1004E00081E090E0DF91CF911F910F91FF90EF900D
:1004F0000895CF93DF93EC01888D8823C9F0EA89B2
:10050000FB89808185FD05C0A889B9898C9186FD0C
:100510000FC00FB607FCF5CF808185FFF2CFA88909
:10052000B9898C9185FFEDCFCE010E941102E7CFF2
:10053000DF91CF91089580E090E0892B21F00E9417
:100540000702811125C080E090E0892B41F080E016
:1005500090E0892B21F00E94000081111CC080E0F6
:1005600090E0892B41F080E090E0892B21F00E94FF
:100570000000811113C080E090E0892BA1F080E0A1
:1005800090E0892B81F00E94000081110AC008953B
:100590000E940000D8CF0E940000E1CF0E9400001E
:1005A000EACF0C9400000895CF92DF92EF92FF9271
:1005B0000F931F93CF93DF937C01262F972F8A01F0
:1005C00080910703882391F0C62FD72F6E01C40EA8
:1005D000D51ECC15DD0571F06991D701ED91FC9127
:1005E0000190F081E02DC7011995F3CF642F822F80
:1005F0000E941C09C801DF91CF911F910F91FF90BC
:10060000EF90DF90CF900895CF93DF931F92CDB7F7
:10061000DEB76983209107032223D1F020912A03BA
:10062000203240F021E030E0FC013383228380E07F
:1006300090E015C080910803E82FF0E0E75FFC4FE1
:10064000998190838F5F8093080380932A0305C06C
:1006500061E0CE0101960E941C0981E090E00F90BC
:10066000DF91CF9108950E94C7108F929F92AF9211
:10067000BF92CF92DF92EF92FF926B017C010E94BA
:1006800076014B015C01C114D104E104F104F1F0E5
:100690000E947601DC01CB0188199909AA09BB09DE
:1006A000883E9340A105B10570F321E0C21AD1083C
:1006B000E108F10888EE880E83E0981EA11CB11CA9
:1006C000C114D104E104F10419F7DDCFFF90EF90DC
:1006D000DF90CF90BF90AF909F908F9008951F9222
:1006E0000F920FB60F9211242F933F938F939F93E6
:1006F000AF93BF938091B6029091B702A091B802D8
:10070000B091B9023091B50223E0230F2D3720F4C8
:100710000196A11DB11D05C026E8230F0296A11D5B
:10072000B11D2093B5028093B6029093B702A093B7
:10073000B802B093B9028091BA029091BB02A09125
:10074000BC02B091BD020196A11DB11D8093BA02F9
:100750009093BB02A093BC02B093BD02BF91AF9136
:100760009F918F913F912F910F900FBE0F901F90EF
:1007700018951F920F920FB60F9211240BB60F927D
:100780002F933F934F935F936F937F938F939F9399
:10079000AF93BF93EF93FF9387E393E00E9411021F
:1007A000FF91EF91BF91AF919F918F917F916F9149
:1007B0005F914F913F912F910F900BBE0F900FBE05
:1007C0000F901F9018951F920F920FB60F92112441
:1007D0000BB60F922F938F939F93EF93FF93E0911C
:1007E0004703F09148038081E0914D03F0914E035F
:1007F00082FD12C09081809150038F5F8F73209192
:100800005103821751F0E0915003F0E0E95CFC4F96
:10081000958F8093500301C08081FF91EF919F914C
:100820008F912F910F900BBE0F900FBE0F901F90C6
:100830001895FC012281338186819781A901481B8B
:10084000590B6417750710F0821B930B860F971FC7
:1008500008950F931F93CF93DF93EC010C811D81BB
:100860000115110511F40E94C71061E070E00E94AB
:1008700019049F838E83015011091D830C83DF911E
:10088000CF911F910F9108954F925F926F927F9237
:100890008F929F92AF92BF92CF92DF92EF92FF9290
:1008A0000F931F93CF93DF93EC012B01CC80DD805E
:1008B000C60101962A813B8128173907E0F55601C8
:1008C00089E0A80EB11CC501880F991F0E949A0FDC
:1008D0004C017C01A8E0EA0EF11C00E010E0688009
:1008E00079800C151D05B9F0B801CE010E941904DC
:1008F000880F991FF301E80FF91FE114F10429F0A3
:1009000080819181F701918380830F5F1F4FF2E017
:10091000EF0EF11CE4CFC3010E942F109982888250
:10092000BB82AA8284E090E09F838E838C819D812C
:10093000049699878887E885F985EE0FFF1F8881DF
:100940009981E80FF91F309729F0D2018D919C9180
:10095000918380836C817D816F5F7F4F7D836C830A
:10096000CE010E94190499878887DF91CF911F914A
:100970000F91FF90EF90DF90CF90BF90AF909F903E
:100980008F907F906F905F904F900895CF93DF93FB
:100990001F92CDB7DEB7FC01808191E090930703F1
:1009A000809329031092080310922A038BE293E0AC
:1009B00049830E9404034981642F8BE293E00E94E3
:1009C000040381E00F90DF91CF910C946A060F939E
:1009D0001F93CF93DF931F921F92CDB7DEB7152FD2
:1009E000032FFC01808191E09093070380932903FA
:1009F0001092080310922A03F4E06F9FB0011124B3
:100A00006A5F7F4F8BE293E02A8349830E9404034D
:100A10004981842F912F0E94C706812F90E00E9468
:100A2000C7062A81822F902F0E94C706802F90E050
:100A30000E94C70681E00F900F90DF91CF911F9128
:100A40000F910C946A0690E0FC01E25DFD4F449129
:100A5000FC01E851FE4F2491FC01EE55FE4F9491AC
:100A6000992309F466C0442309F455C050E0FA0103
:100A70003197E231F10508F04EC08827EE58FF4F5C
:100A80008F4F0C94830F809180008F7707C08091E7
:100A900080008F7D03C080918000877F80938000DD
:100AA0003AC084B58F7702C084B58F7D84BD33C0D2
:100AB0008091B0008F7703C08091B0008F7D8093CC
:100AC000B00029C0809190008F7707C0809190007E
:100AD0008F7D03C080919000877F809390001BC022
:100AE0008091A0008F7707C08091A0008F7D03C008
:100AF0008091A000877F8093A0000DC0809120018D
:100B00008F7707C0809120018F7D03C080912001E5
:100B1000877F80932001E92FF0E0EE0FFF1FE85759
:100B2000FE4FA591B4918FB7F894EC912E2B2C9396
:100B30008FBF089585ED8093BC008091BC0084FD3B
:100B4000FCCF1092060308950895E091DF02809192
:100B5000DE02E81730F4F0E0E254FD4F808190E0CF
:100B600008958FEF9FEF08959091DF028091DE024C
:100B7000981750F4E92FF0E0E254FD4F208130E067
:100B80009F5F9093DF0202C02FEF3FEFC9010895EE
:100B9000009769F0FC0101900020E9F73197AF015F
:100BA000481B590BBC0187E393E00C949B0180E048
:100BB00090E008958F929F92AF92BF92CF92DF9272
:100BC000EF92FF920F931F93CF93DF93CDB7DEB7D2
:100BD000A1970FB6F894DEBF0FBECDBF6C01990F81
:100BE000EE08FF08F7FE31C0E0913703F0913803BB
:100BF0000190F081E02D6DE287E393E019958C017F
:100C000022273327A9012C193D094E095F0919A292
:100C1000CE0181967C019AE0892E912CA12CB12CD9
:100C2000CA01B901A50194010E94610F605DF7013D
:100C300062937F01211531054105510589F7CF01E7
:100C40000E94C805080F191F1EC0A701960119A20E
:100C50008E010F5D1F4F8AE0C82ED12CE12CF12CA4
:100C6000CA01B901A70196010E94610F605DF801F8
:100C700062938F01211531054105510589F7CF0197
:100C80000E94C8058C018AE892E00E94C805800F86
:100C9000911FA1960FB6F894DEBF0FBECDBFDF91B6
:100CA000CF911F910F91FF90EF90DF90CF90BF9069
:100CB000AF909F908F900895CF93DF930E94C805C7
:100CC000EC018AE892E00E94C8058C0F9D1FDF911D
:100CD000CF910895382F20912A0390912903213232
:100CE00008F049C0809106038111FCCF42E0409397
:100CF0000603309305033FEF309304031092030380
:100D000020930203A9E0B3E042EE52E0FA013E2F45
:100D1000341B321718F43D913193F9CF1092E10250
:100D20002091E102990F922B9093E1029091E002C1
:100D3000913061F41092E0029091E1029093BB0037
:100D40009091BC0093FDF8CF95EC01C095EE909387
:100D5000BC00909106039230E1F3909104039F3F11
:100D600079F080910403803241F080910403803354
:100D700031F084E005C081E003C082E001C083E07F
:100D80001092080310922A03109207030895682F07
:100D90008BE293E00C940403AF92BF92CF92DF9268
:100DA000EF92FF920F931F93CF93DF93EC01B42E3A
:100DB000C880D9807601EE0CFF1CEE0CFF1C85E08C
:100DC000E81AF1088B010115110509F477C08C852B
:100DD00091E083FD06C0B91202C0885F07C0885049
:100DE00005C0B91202C0805F01C080518C878C851C
:100DF0008F738C8740EF5FE06C818D859E850E94AC
:100E0000940940EF5FE06F818D859E850E94940973
:100E1000EC85E695E695E695E83028F4F0E0EA5FA3
:100E2000FD4FA08001C0A12C8D859E85A0FE09C02C
:100E300020E030E040E050E16E81CD960E94E70472
:100E400003C06E810E948D098D859E85A1FE09C01B
:100E500020E030E040E050E16885CD960E94E70454
:100E600003C068850E948D098D859E85A2FE09C0FC
:100E700020E030E040E050E16D81CD960E94E70433
:100E800003C06D810E948D098D859E85A3FE09C0DA
:100E900020E030E040E050E16985CD960E94E70413
:100EA00003C069850E948D0982E0C816D10418F03C
:100EB000C7010197F1F70150110985CFDF91CF915B
:100EC0001F910F91FF90EF90DF90CF90BF90AF9068
:100ED0000895EF92FF920F931F93CF93DF93FC013E
:100EE00020852223A9F1EC01218532850681178115
:100EF00083859485800F911F821B930BB8010E94FC
:100F00004D0F0280F381E02DEF84F8888E179F0744
:100F100078F442E0BC01C7010E94CC068B859C8519
:100F20009A8789878F8598890E94A309188610C09F
:100F3000CF01820F931FB8010E944D0F9A878987B6
:100F400042E0BF01C7010E94CC0680E090E002C0F1
:100F500081E090E0DF91CF911F910F91FF90EF9092
:100F600008950F931F93CF93DF93EC018B018DE8CE
:100F700092E00E94C805C8010E94DA0587E992E064
:100F80000E94C805888599850E94DA0517FD1DC055
:100F90008E819F8108171907C4F428853985B80107
:100FA000621B730B8C859D851616170614F441E0A1
:100FB00004C0B901601B710B42E00E94CC068C8515
:100FC0009D850E94A30919870887DF91CF911F9102
:100FD0000F9108951F920F920FB60F9211240BB626
:100FE0000F922F933F934F935F936F937F938F93C2
:100FF0009F93AF93BF93EF93FF938091B900887F46
:10100000803609F49CC068F5883209F45BC090F41E
:10101000803109F454C038F4882309F4F6C08830CC
:1010200009F44DC0F6C0883109F44CC0803209F48F
:101030005DC0EFC0803409F468C048F4803309F41F
:1010400055C0883309F0E5C080930403D8C08035CB
:1010500009F44FC0883509F45DC0883409F0D9C05F
:10106000D6C0883909F4C7C0A8F4883709F467C026
:1010700038F4883609F463C0803709F460C0C9C009
:10108000883809F4B8C0803909F45FC0803809F0A5
:10109000C0C05BC0803B09F486C038F4803A09F4D4
:1010A00066C0883A09F47FC0B4C0803C09F4A7C088
:1010B000883C09F4A4C0883B09F48AC0AAC0809186
:1010C000E10210C09091030380910203981770F51C
:1010D000E091030381E08E0F80930303F0E0EE5173
:1010E000FD4F80818093BB0085EC86C08093040314
:1010F0008EC0E091030381E08E0F80930303809103
:10110000BB00F0E0EE51FD4F80839091030380918E
:1011100002036EC0E091030381E08E0F809303030E
:101120008091BB00F0E0EE51FD4F8083809105037C
:1011300081116DC081E08093E00284EA61C083E0A8
:101140008093060310921A04CFCF80911A04803244
:1011500008F051C0E0911A0481E08E0F80931A04C8
:101160008091BB00F0E0E650FC4F8083BDCF85EC62
:101170008093BC001092060380911A04803230F4F0
:10118000E0911A04F0E0E650FC4F108260911A04DE
:1011900070E0E091F803F091F9038AEF93E019957C
:1011A00010921A0436C084E0809306031092F7036D
:1011B0001092F603E091F403F091F50319958091F4
:1011C000F603811105C081E08093F6031092D403E9
:1011D000E091F70381E08E0F8093F703F0E0EC528B
:1011E000FC4F80818093BB009091F7038091F603C0
:1011F000981708F479CF85E88093BC000AC085EC85
:101200008093BC001092060304C0109204030E9455
:101210009A05FF91EF91BF91AF919F918F917F912F
:101220006F915F914F913F912F910F900BBE0F9057
:101230000FBE0F901F9018954091F603262F30E0B7
:10124000240F311D21323105DCF4209106032430B6
:10125000C9F4FC0180E090E0861758F43091F60361
:101260002191DC01AC52BC4FA30FB11D2C93019610
:10127000F3CF8091F603680F6093F60380E0089542
:1012800081E0089582E008951092060381E0809342
:1012900005031092E00284E10E94230585E10E948B
:1012A0002305E9EBF0E080818E7F808380818D7F54
:1012B000808388E48093B80085E48093BC0008951F
:1012C000CF93DF93FC01AC014B5F5F4FEC012A969B
:1012D0004D96DA0114961C921E92139718829E0165
:1012E00023503109D9011C9221503109D9011C9296
:1012F000DA011C924A5F5F4F26964817590749F753
:1013000011A614A610A617A211AE14AE10AE17AAFD
:10131000628365AFDF91CF91089520E030E040E037
:1013200050E0CD960C94E7049A01CD96211540E14A
:10133000340728F020E030E040E050E102C040E017
:1013400050E00C94E704CF93DF93EC016D818D8521
:101350009E850E948D096E818D859E850E948D09D6
:1013600068858D859E850E948D0969858D859E8500
:101370000E948D0940E050E06C818D859E850E9421
:10138000940940E050E06F818D859E85DF91CF917B
:101390000C9494092F923F924F925F926F927F929A
:1013A0008F929F92AF92BF92CF92DF92EF92FF9275
:1013B0000F931F93CF93DF93CDB7DEB7C95FD109EA
:1013C0000FB6F894DEBF0FBECDBF1092B402CE01AF
:1013D00001966C018E0105541F4F7C01382E4D2C57
:1013E00060E6C7010E9460099EE3E90EF11CE01669
:1013F000F106B1F7760120E66EE3B62E622FC80142
:10140000C750DF4F2883C95FD0400E946009F801B0
:10141000D7018B2D01900D928A95E1F7C750DF4FD0
:101420002881C95FD0402F5FAEE3EA0EF11C23365E
:1014300029F77E01BEE3EB0EF11C3BE2A32E33E065
:10144000B32E40E4842E46E0942E552453945EEB54
:10145000652E52E0752EF601B182A0821092DF0255
:101460001092DE021092080310922A030E9444098F
:101470001092DF021092DE021092080310922A03EB
:101480000E94440940E060E0C7010E94C604D60102
:1014900014969C928E921397F701808150920703C5
:1014A000809329031092080310922A0360E08BE2D4
:1014B00093E00E94040381E00E946A06D7018C91A8
:1014C000909106039111FCCF5092060350920503B0
:1014D000BFEFB093040310920303109202035092E3
:1014E000E1029091E102880F892B8093E1028091C3
:1014F000E002813071F41092E0028091E102809369
:10150000BB008091BC0083FDF8CFE5ECE093BC000C
:1015100003C0F5EEF093BC00809106038130E1F347
:1015200080910303811103C08091030301C081E016
:10153000A2EEB2E0EEEBF2E09E2F9619981718F4A7
:101540009D919193F9CF1092DF028093DE028BE29E
:1015500093E00E94B405282E482F4F76406160E04A
:10156000C7010E94C60443E06EEFC7010E94C60493
:10157000422D60E0C7010E94C60465E070E080E093
:1015800090E00E943503422D416A60E0C7010E944D
:10159000C60470E020E030E040E050E0672FC70173
:1015A000C750DF4F7883C95FD0400E94E704C7501F
:1015B000DF4F7881C95FD0407F5F703159F78EE38C
:1015C000C80ED11C9EE3E90EF11CC016D10609F02D
:1015D00042CFEC968FADEC97811128C081E0EC965C
:1015E0008FAFEC9788EC90E0E8969FAF8EAFE897CE
:1015F000CE01CF96EB969FAF8EAFEB9782E0E19650
:101600008FAFE19787E0E4968FAFE49784E0E296AE
:101610008FAFE29783E0E3968FAFE39785E0E5969F
:101620008FAFE59786E0E6968FAFE6978B858111C1
:1016300009C01B8639864A8688E08E838AE08F83BC
:1016400089E08887C754DF4F8881C95BD04081110A
:101650003BC081E0C754DF4F8883C95BD04088EC32
:1016600090E0CC54DF4F99838883C45BD040CE0197
:1016700083589F4FC954DF4F99838883C75BD040FD
:1016800082E0C255DF4F8883CE5AD04087E0CF54E6
:10169000DF4F8883C15BD04084E0C155DF4F888332
:1016A000CF5AD04083E0C055DF4F8883C05BD04025
:1016B00085E0CE54DF4F8883C25BD04086E0CD54B6
:1016C000DF4F8883C35BD04081E490E00E949A0F93
:1016D0007C0198E0892E912CD7018D929D9280E11A
:1016E000E2E3F2E001900D928A95E1F7D8011596B8
:1016F0001C921E92149713969C928E92129780E1E0
:1017000090E00E949A0F5C01F8019183808324E0AD
:10171000C22ED12CD782C682D186C086D7015796D9
:101720001C921E92569755969C928E92549780E1E9
:1017300090E00E949A0FF701938B828BD18EC08E1E
:10174000D38EC28EF801C480D580C114D10489F033
:10175000F1E0CF1AD108B601C8010E941904D801DE
:1017600019969C938E9318971596DC92CE921497A7
:10177000E9CFC5010E942F10D7015E961C921E92E0
:101780005D978CE390E090969C938E935F979296F2
:101790001C921E92919782EC91E094969C938E936A
:1017A000939787EC91E096969C938E939597989655
:1017B0009C938E9397978E0104591F4F9C961C9370
:1017C0000E939B97CE0106969E969C938E939D9723
:1017D000E8962EAD3FADE897ACE3B0E00E948B0FEA
:1017E0009B01AC01812C87E8982E83E9A82E83E029
:1017F000B82EC501B4010E94610FF8012083318326
:10180000428353836F8189859A850E948D096885FB
:1018100089859A850E948D09D7019D96ED91FC914D
:101820009E9740EF5FE06081838194810E949409DC
:1018300084E690E0F70191AB80AB89E190E093AB57
:1018400082AB8AEF90E095AB84AB80ED97E097ABED
:1018500086AB10AE12AE11AE14AE13AE16AE15AE10
:10186000FF96025C1F4F11830083CC54DF4F288109
:101870003981C45BD040A4E6B0E00E948B0F9B018D
:10188000AC01C501B4010E94610FD8012D933D93B5
:101890004D935C931397F70105A516A5D8011196F2
:1018A0006C91119713968D919C9114970E948D09BC
:1018B000F8016281838194810E948D09D7019396FA
:1018C0006D917C919497C7014F960E94B107F09259
:1018D000B302E092B202E0914703F091480382E044
:1018E0008083E0914303F09144031082E09145032B
:1018F000F09146038FEC808310924F03E0914B03ED
:10190000F0914C0386E08083E0914903F0914A0313
:10191000808180618083E0914903F0914A03808156
:1019200088608083E0914903F0914A038081806858
:101930008083E0914903F0914A0380818F7D808309
:101940008DE992E00E945C06C750DF4F0FB6F89415
:10195000DEBF0FBECDBFDF91CF911F910F91FF90E2
:10196000EF90DF90CF90BF90AF909F908F907F903F
:101970006F905F904F903F902F900895CF93DF939B
:101980001F921F92CDB7DEB7789484B5826084BD74
:1019900084B5816084BD85B5826085BD85B5816073
:1019A00085BD80916E00816080936E0010928100F1
:1019B00080918100826080938100809181008160AC
:1019C000809381008091800081608093800080916D
:1019D000B10084608093B1008091B00081608093F9
:1019E000B00080919100826080939100809191007D
:1019F000816080939100809190008160809390003D
:101A00008091A10082608093A1008091A1008160FB
:101A10008093A1008091A00081608093A0008091BC
:101A20002101826080932101809121018160809356
:101A300021018091200181608093200180917A00B2
:101A4000846080937A0080917A00826080937A002B
:101A500080917A00816080937A0080917A0080681A
:101A600080937A001092C1000E94CA0966E0262E77
:101A7000312C7AE0472E512CE9E06E2E712C05E0D6
:101A800010E0EE24E394F12C33E0C32ED12C44E09B
:101A9000A42EB12C52E0852E912C87E393E00E9476
:101AA000FB01892B09F49DC087E393E00E94D901D3
:101AB0008B3409F469C0BCF48234D1F124F480324F
:101AC00009F480C08EC08334F1F1873409F089C0F5
:101AD00082E692E00E945C068091B2029091B3028D
:101AE0009A82898268C0893509F443C084F48D34B0
:101AF000A9F1823509F075C082E692E00E945C0689
:101B00008091B2029091B302FA82E98254C0843685
:101B100009F447C0803709F064C081E592E00E9473
:101B20005C068091B2029091B3027A82698243C0CE
:101B300082E692E00E945C068091B2029091B3022C
:101B4000DA82C98238C082E692E00E945C06809107
:101B5000B2029091B302BA82A9822DC082E692E0CD
:101B60000E945C068091B2029091B3021A830983AD
:101B700022C082E692E00E945C068091B2029091BF
:101B8000B3023A82298217C082E692E00E945C0684
:101B90008091B2029091B30227E030E03A8329832A
:101BA0000AC080E792E00E945C068091B2029091A8
:101BB000B3025A824982BE016F5F7F4F42960E94F4
:101BC00044040FC08091B40231E083278093B402B3
:101BD000811103C089E492E002C082E492E00E9495
:101BE0005C068091B402811158CFE090B202F0906F
:101BF000B302D70156968D919C915797892B09F482
:101C000040CF5896ED91FC915997EE0FFF1F5296D9
:101C10008D919C915397E80FF91F808191818930B4
:101C2000910551F56701BFE1CB0ED11CF70161A110
:101C300072A1C6010E94B107D7019D96AD90BC90DC
:101C40009E97F5016281838194810E948D09D5015F
:101C500013968D919C91149720E030E040E050E184
:101C600011966C91CD960E94E704F70163A174A1CF
:101C7000C6010E94B107D3C08A30910509F04DC05A
:101C8000D701D8968C91D8978111C9C0D4966D91FF
:101C90007C91D59741E06701BFE3CB0ED11CF601E3
:101CA000808191810E94CC06D6018D919C910E94E9
:101CB000A309F70126A937A904A8F5A9E02DD701A2
:101CC000D9968D919C91DA97820F931F8E1B9F0B53
:101CD000B9010E944D0FD701DA969C938E93D99744
:101CE000DB968D919C91DC97820F931F8E1B9F0B2F
:101CF000B9010E944D0FD701DC969C938E93DB9720
:101D0000DD968D919C91DE978E0F9F1FB9010E94E9
:101D10004D0FF70196AF85AF82C0FC013196EE0FF3
:101D2000FF1FEE0DFF1D40815181D7015D968D9102
:101D30009C915E970097F1F4D8968C91D897811179
:101D40005CC0D4968D919C91D597489F9001499FF6
:101D5000300D589F300D1124DB968D919C91DC97AE
:101D6000820F931FD6966D917C91D7970E944D0F4D
:101D7000F7013EC08130910501F564E170E080E03B
:101D800090E00E943503F701C5A4D6A4D6011196B0
:101D90006C91119713968D919C9114970E948D09C7
:101DA000F6016281838194810E948D09D7015D963D
:101DB0008D919C915E9701962BC0F701029769F572
:101DC00080AD81111AC028E030E0241B350B84A9B6
:101DD00095A9289FA001299F500D389F500D1124CF
:101DE00083AD94AD840F951F66A977A90E944D0F0E
:101DF00094AF83AF81E080AF44CEC701C0960E940C
:101E00006907D7015D962D913C915E97820F931FD4
:101E10005E969C938E935D9734CE168E158EC70179
:101E200042960E9429042DCEEBE2F3E01382128247
:101E300088EE93E0A0E0B0E084839583A683B78327
:101E400022E132E031832083E7E3F3E01382128260
:101E500084839583A683B78384E292E09183808311
:101E600085EC90E09587848784EC90E0978786875F
:101E700080EC90E0918B808B81EC90E0938B828B57
:101E800082EC90E0958B848B86EC90E0978B868B30
:101E9000118E128E138E148E0895AA1BBB1B51E156
:101EA00007C0AA1FBB1FA617B70710F0A61BB70BCA
:101EB000881F991F5A95A9F780959095BC01CD016F
:101EC0000895A1E21A2EAA1BBB1BFD010DC0AA1F7B
:101ED000BB1FEE1FFF1FA217B307E407F50720F093
:101EE000A21BB30BE40BF50B661F771F881F991F0E
:101EF0001A9469F760957095809590959B01AC0157
:101F0000BD01CF010895EE0FFF1F881F8BBF079003
:101F1000F691E02D1994A29FB001B39FC001A39F39
:101F2000700D811D1124911DB29F700D811D112412
:101F3000911D0895CF93DF938230910510F482E0D4
:101F400090E0E0911D04F0911E0420E030E0C0E03C
:101F5000D0E0309711F14081518148175907C0F006
:101F60004817590761F482819381209719F09B8368
:101F70008A832BC090931E0480931D0426C02115D4
:101F8000310519F04217530718F49A01BE01DF0119
:101F9000EF010280F381E02DDCCF2115310509F13D
:101FA000281B390B2430310590F412968D919C91A9
:101FB00013976115710521F0FB019383828304C09F
:101FC00090931E0480931D04FD01329644C0FD01D0
:101FD000E20FF31F81939193225031092D933C938B
:101FE0003AC020911B0430911C04232B41F4209112
:101FF00002023091030230931C0420931B042091B1
:102000000002309101022115310541F42DB73EB790
:102010004091040250910502241B350BE0911B04F2
:10202000F0911C04E217F307A0F42E1B3F0B2817B6
:10203000390778F0AC014E5F5F4F2417350748F041
:102040004E0F5F1F50931C0440931B048193919388
:1020500002C0E0E0F0E0CF01DF91CF9108950F934F
:102060001F93CF93DF93009709F48CC0FC01329744
:102070001382128200911D0410911E040115110596
:1020800081F420813181820F931F20911B043091B4
:102090001C042817390779F5F0931C04E0931B04FE
:1020A00071C0D80140E050E0AE17BF0750F412965F
:1020B0002D913C911397AD012115310509F1D901FD
:1020C000F3CF9D01DA013383228360817181860F12
:1020D000971F8217930769F4EC0128813981260F35
:1020E000371F2E5F3F4F318320838A819B819383EB
:1020F0008283452B29F4F0931E04E0931D0442C013
:102100001396FC93EE931297ED01499159919E011C
:10211000240F351FE217F30771F480819181840F3A
:10212000951F029611969C938E93828193811396AC
:102130009C938E931297E0E0F0E0D80112968D9177
:102140009C911397009719F0F8018C01F6CF8D91AF
:102150009C9198012E5F3F4F820F931F20911B048B
:1021600030911C042817390769F4309729F410922C
:102170001E0410921D0402C01382128210931C04CC
:1021800000931B04DF91CF911F910F91089581E07F
:0C21900090E0F8940C94CC10F894FFCF71
:10219C0000001F04800001030206040C0809000063
:1021AC0000000403D402C701A4056E01B405A50503
:1021BC000000000032029B01CA017902FB01D90127
:1021CC00ED01000004000500060003000200010000
:1021DC00070050617573656400526573756D6564B5
:1021EC00005069636B696E6720757020746F6B6546
:1021FC006E0053746F72696E6720546F6B656E005E
:10220C0044726F7070696E67204E65787420546FDD
:10221C006B656E20537461636B000D0A00476F6928
:10222C006E6720746F200066726F6D2000536F72A2
:10223C0074696E672053797374656D20526561649F
:02224C00790017
:00000001FF
