:100000000C943C010C946D010C946D010C946D01E9
:100010000C946D010C946D010C946D010C946D01A8
:100020000C946D010C946D010C946D010C946D0198
:100030000C946D010C946D010C946D010C946D0188
:100040000C946D010C946D010C946D010C946D0178
:100050000C946D010C946D010C946D010C947B0A51
:100060000C946D010C94900C0C94800D0C946D010B
:100070000C946D010C946D010C946D010C946D0148
:100080000C946D010C946D010C946D010C946D0138
:100090000C94C40C0C94BF0D0C946D010C94C80806
:1000A0000C946D010C946D010C946D010C946D0118
:1000B0000C946D010C946D010C946D010C946D0108
:1000C0000C946D010C946D010C946D010C94F80C62
:1000D0000C94FE0D0C946D010C942C0D0C943D0EA3
:1000E0000C946D01100A130A060A0A0A4A0A170A32
:1000F0001B0A210A250A290A2F0A330A370A4A0A43
:100100003D0A410A450A0C94450A0C94720B0C9462
:1001100012070C943D0A0C94E7070C94DC0B0C942A
:100120003D070C943E070C94040F0C94370A0C9472
:100130006E070C94210A0C942F0A0C94280C0C9432
:10014000250A0C94EC0B0C94060A0C94330A0C94BC
:100150001B0A0C94100A0C945F0D0C941A070C9453
:10016000290A0C940A0A0C94130A0C94410A0C9460
:10017000080C0C94170A0C942E070C944A0A0C9441
:10018000F6020C94330C0000090A02080B0C0D0750
:100190000603040100000000000000000000000051
:1001A000000000000000000000000000000000004F
:1001B000000011100F00000000000000000000000F
:1001C00000000000000000000000000001021020FC
:1001D000200808102040102040800201020108047D
:1001E0000201010204081020408080402010080411
:1001F000020180040201804020100804020108046A
:1002000002010102040810204080010204081020AD
:1002100040800505050507050808080802020202D6
:100220000A0A080804040404010101010101010192
:100230000303030303030303040707070C0C0C0C5D
:100240000C0C0C0C02020202060606060606060646
:100250000B0B0B0B0B0B0B0B0000220025002800D7
:100260002B002E00310034000201000005010801BE
:100270000B01F602E707040F11241FBECFEFD1E2F6
:10028000DEBFCDBF00E00CBF12E0A0E0B2E0EEEEBA
:10029000F4E200E00BBF02C007900D92AA34B10750
:1002A000D9F726E0AAE4B2E001C01D92A734B20754
:1002B000E1F711E0CCE3D1E000E006C021970109AD
:1002C000802FFE010E946D12C933D10780E008071C
:1002D000A9F70E94D60F0C9475120C940000EF92AF
:1002E000FF920F931F93CF93DF93CDB7DEB7EE97B7
:1002F0000FB6F894DEBF0FBECDBF61E6CE0101960A
:100300000E94A4058EE3FE013196AAE5B2E00190B9
:100310000D928A95E1F762E6CE0101960E94A4054E
:100320008EE3FE013196A8E9B2E001900D928A9524
:10033000E1F761E08AE592E00E944C059093530258
:100340008093520262E08AE592E00E944C0590930D
:1003500055028093540261E088E992E00E944C05C6
:10036000909357028093560262E088E992E00E94DF
:100370004C05909359028093580240E050E060E4AD
:1003800076E08AE592E00E94F70440E050E060E405
:1003900076E088E992E00E94F70402E512E0780135
:1003A00067E3F701819191917F010E941306FAE5BD
:1003B000EF16F2E0FF06A1F787E390E090934B027F
:1003C00080934A0290934D0280934C0290934F0287
:1003D00080934E02909351028093500264E0F801A2
:1003E000819191918F010E94E605F2E00A351F0785
:1003F000A9F740E855E260E070E085E094E00E94F3
:100400007C0E60E072E085E094E00E94CA0BEE96FC
:100410000FB6F894DEBF0FBECDBFDF91CF911F9115
:100420000F91FF90EF9008950F931F93CF93DF9359
:1004300060914A0270914B02072E000C880B990BB9
:100440000E94FA102DEC3CEC4CE85FE30E94DE11B8
:100450000E94C21070934B0260934A0260914C025A
:1004600070914D02072E000C880B990B0E94FA1018
:100470002DEC3CEC4CE85FE30E94DE110E94C210C0
:1004800070934D0260934C0260914E0270914F0246
:10049000072E000C880B990B0E94FA1026E636E610
:1004A00046E65FE30E94DE110E94C21070934F0285
:1004B00060934E026091500270915102072E000C21
:1004C000880B990B0E94FA1026E636E646E65FE3B3
:1004D0000E94DE110E94C21070935102609350027C
:1004E000CAE4D2E002E512E068812296F801819127
:1004F00091918F010E941306F2E0C235DF07A1F748
:10050000DF91CF911F910F9108950F931F93CF9378
:10051000DF9360914A0270914B02072E000C880B0A
:10052000990B0E94FA1026E636E646E65FE30E9443
:10053000DE110E94C21070934B0260934A026091D8
:100540004C0270914D02072E000C880B990B0E94F3
:10055000FA1026E636E646E65FE30E94DE110E94C8
:10056000C21070934D0260934C0260914E027091E4
:100570004F02072E000C880B990B0E94FA102DECED
:100580003CEC4CE85FE30E94DE110E94C2107093C5
:100590004F0260934E026091500270915102072EFB
:1005A000000C880B990B0E94FA102DEC3CEC4CE8E7
:1005B0005FE30E94DE110E94C210709351026093AB
:1005C0005002CAE4D2E002E512E068812296F80106
:1005D000819191918F010E941306F2E0C235DF07ED
:1005E000A1F7DF91CF911F910F91089560E68AE501
:1005F00092E00E94A40560E688E992E00C94A405CC
:100600000F931F93CF93DF9385E094E00E94DC0B60
:10061000892B09F4E0C185E094E00E94080C992739
:100620008136910509F482C09CF58433910509F463
:100630004DC1ACF48133910509F420C134F4C09765
:1006400009F0BEC1C2E5D2E0A1C18233910509F42F
:1006500023C1C39709F0B4C1C2E5D2E02BC18733EF
:10066000910509F45BC154F48533910509F43CC14B
:10067000C69709F0A5C1C2E5D2E044C1883391050F
:1006800009F45AC1C99709F09BC1C2E5D2E062C121
:100690008B36910509F4ECC004F58536910509F413
:1006A00089C06CF48336910509F4A8C0843691059D
:1006B00009F086C102E512E0C0E0D0E063C08936EF
:1006C000910509F4C0C08A36910509F079C1DF911E
:1006D000CF911F910F910C94850287379105D1F02E
:1006E0006CF48137910509F451C08537910509F003
:1006F00067C102E512E0C1E0D0E0A0C088379105F3
:1007000049F18A37910509F05BC102E512E0C0E0CA
:10071000D0E070C0C2E5D2E061E0899199910E9479
:10072000E60582E0CA35D807B9F755C102E512E0FF
:10073000C0E0D0E0C0FF02C062E001C061E0F801AB
:10074000819191918F010E94E6052196C430D105D7
:1007500089F741C1C2E5D2E062E0899199910E9496
:10076000E605F2E0CA35DF07B9F735C161E0F80107
:10077000819191918F010E94E6052196C430D105A7
:1007800009F429C1C0FDF2CF62E0F1CF02E512E029
:10079000C0E0D0E0C0FF02C064E001C061E0F80149
:1007A000819191918F010E94E6052196C430D10577
:1007B00089F711C102E512E0C0E0D0E0C0FD02C03F
:1007C00064E001C061E0F801819191918F010E9484
:1007D000E6052196C430D10589F7FDC064E0F80133
:1007E000819191918F010E94E6052196C430D10537
:1007F00009F4F1C0C0FFF2CF62E0F1CF02E512E0F0
:10080000C0E0D0E0C0FD02C062E001C064E0F801D9
:10081000819191918F010E94E6052196C430D10506
:1008200089F7D9C061E0F801819191918F010E940F
:10083000E6052196C530D10509F4CDC0C330D105F8
:1008400088F762E0F0CF02E512E0C1E0D0E061E0BD
:10085000F801819191918F010E94E6052196C530A2
:10086000D10509F4B8C0C230D10589F362E0F0CFF8
:10087000DF91CF911F910F910C941402C2E5D2E049
:1008800069E1899199910E941306F2E0CA35DF0768
:10089000B9F789E190E069C0C2E5D2E062E38991ED
:1008A00099910E94130682E0CA35D807B9F782E30E
:1008B00090E05BC06BE4899199910E941306E2E09D
:1008C000CA35DE07B9F78BE490E04FC0C2E5D2E04D
:1008D00064E6899199910E941306F2E0CA35DF0718
:1008E000B9F784E690E041C0C2E5D2E06DE78991B6
:1008F00099910E94130682E0CA35D807B9F78DE7AF
:1009000090E033C066E9899199910E941306E2E074
:10091000CA35DE07B9F786E990E027C0C2E5D2E024
:100920006FEA899199910E941306F2E0CA35DF07B8
:10093000B9F78FEA90E019C0C2E5D2E068EC89917E
:1009400099910E94130682E0CA35D807B9F788EC5E
:1009500090E00BC061EE899199910E941306E2E04C
:10096000CA35DE07B9F781EE90E090934B02809391
:100970004A0290934D0280934C0290934F028093D1
:100980004E02909351028093500225C060E08991FD
:1009900099910E941306F2E0CA35DF07B9F7109269
:1009A0004B0210924A0210924D0210924C02109289
:1009B0004F0210924E0210925102109250020BC040
:1009C000C2E5D2E064E0899199910E94E60582E057
:1009D000CA35D807B9F7DF91CF911F910F910895CC
:1009E00020E030E040E050E0CD960C945806EF92C5
:1009F000FF920F931F93CF93DF93EC017B0141157F
:100A0000510529F486ED92E09983888302C05983C9
:100A10004883888199810E94AD078E01035C1F4F36
:100A2000C8010E944C06FC82EB82B70180E090E096
:100A30000E94F810AB01BC01C8010E94BD06C0E0D5
:100A400020E030E040E050E06C2FC8010E945806E2
:100A5000CF5FC031A9F7DF91CF911F910F91FF9028
:100A6000EF9008959A01CD96211540E1340728F0C2
:100A700020E030E040E050E102C040E050E00C9463
:100A80005806411102C00C94F00420E030E040E030
:100A900050E1CD960C945806CF93DF93653008F063
:100AA00046C06150A62FB0E0FC0156E0659FE00D06
:100AB000F11D1124528551112FC0628791878087C3
:100AC000662351F0613061F0623071F0633079F487
:100AD00026E035E047E00BC029E03AE048E007C0F7
:100AE0002CE03BE04DE003C023E034E042E056E080
:100AF0005A9FF0015B9FF00D1124E80FF91F458309
:100B0000BD016F5F7F4F569FE001579FD00D1124AD
:100B1000C80FD91F3883278346E04A9F90014B9F17
:100B2000300D11242B5F3F4F820F931F02C080E0D6
:100B300090E0DF91CF910895FC0114821382158219
:100B40001282118210820895AF92BF92DF92EF92CB
:100B5000FF920F931F93CF93DF931F92CDB7DEB712
:100B60008C01D62E7C0185E0E80EF11C5801EDE1E8
:100B7000AE0EB11CC7010E949C05F6E0EF0EF11C01
:100B8000EA14FB04B9F7F80111A614A610A617A2DF
:100B900011AE14AE10AE17AA60E4C801CD960E9443
:100BA0002406F801D2826D2DCE0101960E94240602
:100BB0008981F80185AF0F90DF91CF911F910F913F
:100BC000FF90EF90DF90BF90AF900895CF93DF93A9
:100BD000EC01623061F06430B9F0613009F56A818E
:100BE0008B819C810E94F00441E0698107C069818A
:100BF0008B819C810E94F00441E06A818B819C8101
:100C0000DF91CF910C94410569818B819C810E9479
:100C1000F0046A818B819C81DF91CF910C94F00468
:100C2000DF91CF91089520E1629FA0011124FC0182
:100C30006081838194810C943205DC01ED91FC91FB
:100C40000190F081E02D1994FC01608308951F93B9
:100C5000CF93DF931F92CDB7DEB7162FFC016081D3
:100C600086ED92E049830E94C707612F86ED92E0EE
:100C70000E946E074981642F86ED92E00E946E0704
:100C800086ED92E00F90DF91CF911F910C94E407D5
:100C900040E060E00C942706CF93DF93EC0186EDF3
:100CA00092E00E94AD07CE01DF91CF910C944806EF
:100CB000FF920F931F93CF93DF931F921F92CDB795
:100CC000DEB7062F152FF32EFC01608186ED92E032
:100CD0002A8349830E94C707F4E00F9FC0011124B3
:100CE000BC016A5F7F4F86ED92E00E946E074981EA
:100CF000642F712F86ED92E00E941D06612F70E037
:100D000086ED92E00E941D062A81622F7F2D86EDDE
:100D100092E00E941D066F2D70E086ED92E00E9429
:100D20001D0686ED92E00F900F90DF91CF911F91FD
:100D30000F91FF900C94E4071F93CF93DF93EC0186
:100D4000162F688186ED92E00E94C707612F86ED1D
:100D500092E00E946E0786ED92E00E94E40741E077
:100D6000688186ED92E00E94C40786ED92E00E94C1
:100D70001A07DF91CF911F910895CF92DF92EF92E2
:100D8000FF921F93CF93DF93EC01CB01BA0126E6CC
:100D900036E646E65FE30E94DE119B01AC0160E2AD
:100DA0007CEB8EEB95E40E94501020E030E040E8B0
:100DB0005FE30E94E30F20E030E040E05FE30E9449
:100DC000E40F0E9435116B017C0160E0CE010E94AE
:100DD0009C06182F482F4F76406160E0CE010E949C
:100DE0002706C701B6010E94C910462F6EEFCE013B
:100DF0000E942706412F60E0CE010E94270665E091
:100E000070E080E090E00E94EA0A412F416A60E0D1
:100E1000CE01DF91CF911F91FF90EF90DF90CF90A7
:100E20000C9427068091060390E020910703821B13
:100E3000910908959091070380910603981750F443
:100E4000E92FF0E0E85FFC4F208130E09F5F909356
:100E5000070302C02FEF3FEFC9010895E091070398
:100E600080910603E81730F4F0E0E85FFC4F8081E2
:100E700090E008958FEF9FEF08950895CF92DF924D
:100E8000EF92FF920F931F93CF93DF937C01262F56
:100E9000972F8A018091E202882391F0C62FD72FE5
:100EA0006E01C40ED51ECC15DD0571F06991D70118
:100EB000ED91FC910190F081E02DC7011995F3CFE0
:100EC000642F822F0E949F08C801DF91CF911F914C
:100ED0000F91FF90EF90DF90CF900895CF93DF9325
:100EE0001F92CDB7DEB769832091E2022223D1F0B1
:100EF0002091E302203240F021E030E0FC01338316
:100F0000228380E090E015C08091E402E82FF0E0B9
:100F1000EB51FD4F998190838F5F8093E402809322
:100F2000E30205C061E0CE0101960E949F0881E0C6
:100F300090E00F90DF91CF910895FC01138212820F
:100F400088EE93E0A0E0B0E084839583A683B78326
:100F50008DE292E0918380830895109207031092AE
:100F600006031092E4021092E3020C94EB07862F22
:100F7000413208F040E268E073E00E9409081092F4
:100F8000070380930603089521E00C94B70781E0DE
:100F90008093E202609305031092E4021092E30250
:100FA00008950F93062F21E04091E30265EE72E071
:100FB000809105030E944D081092E4021092E30212
:100FC0001092E2020F91089561E00C94D10786ED32
:100FD00092E00C949D071092950381E08093930317
:100FE0001092920361E084E10E944B0A61E085E186
:100FF0000E944B0AE9EBF0E080818E7F8083808144
:101000008D7F808388E48093B80085E48093BC0062
:101010000895413208F03FC0909195039111FCCFA3
:1010200091E090939503209393032FEF209328034F
:1010300010926D03240F20936C039093940390916E
:101040009403880F892B80939403809192038130BD
:1010500041F410929203809194038093BB0085EC3D
:1010600001C085EE8093BC00809195038130E1F34F
:1010700080916D03841710F440916D032EE633E0E8
:10108000FB01D9018A2F821B841718F48D9181935B
:10109000F9CF842F089580E008950F93413208F02E
:1010A00046C0909195039111FCCF32E030939503A7
:1010B000009393033FEF3093280310926D03409306
:1010C0006C03FB016EE673E0DB013A2F361B34172D
:1010D00018F431913D93F9CF109294033091940319
:1010E000880F832B8093940380919203813041F485
:1010F00010929203809194038093BB0085EC01C011
:1011000085EE8093BC00222321F0809195038230EC
:10111000D1F3809128038F3F79F0809128038032AA
:1011200041F080912803803331F094E005C091E0D4
:1011300003C092E001C093E0892F0F9108956132BE
:1011400098F420919503243089F460934A03FC01BC
:101150002CE433E0D9018A2F821B861718F4819181
:101160008D93F9CF80E0089581E0089582E008959D
:1011700085ED8093BC008091BC0084FDFCCF109273
:101180009503089585EC8093BC0010929503089513
:101190001F920F920FB60F9211240BB60F922F933E
:1011A0003F934F935F936F937F938F939F93AF93EF
:1011B000BF93EF93FF938091B900887F803609F445
:1011C0009CC068F5883209F45BC090F4803109F462
:1011D00054C038F4882309F4F5C0883009F44DC0B0
:1011E000F5C0883109F44CC0803209F45DC0EEC00E
:1011F000803409F468C048F4803309F455C088335A
:1012000009F0E4C080932803A8C0803509F44FC0DA
:10121000883509F45DC0883409F0D8C0D5C0883954
:1012200009F4C6C0A8F4883709F467C038F48836D2
:1012300009F463C0803709F460C0C8C0883809F475
:10124000B7C0803909F45FC0803809F0BFC05BC007
:10125000803B09F485C038F4803A09F466C0883AC6
:1012600009F47EC0B3C0803C09F4A6C0883C09F4F0
:10127000A3C0883B09F489C0A9C08091940310C021
:1012800090916D0380916C03981770F5E0916D0358
:1012900081E08E0F80936D03F0E0E259FC4F808176
:1012A0008093BB0085EC85C0809328038DC0E091BE
:1012B0006D0381E08E0F80936D038091BB00F0E0A1
:1012C000E259FC4F808390916D0380916C036DC057
:1012D000E0916D0381E08E0F80936D038091BB00E0
:1012E000F0E0E259FC4F80838091930381116CC040
:1012F00081E08093920384EA60C083E08093950349
:1013000010922903CFCF80912903803208F050C07A
:10131000E091290381E08E0F809329038091BB0027
:10132000F0E0E65DFC4F8083BDCF809129038032E1
:1013300030F4E0912903F0E0E65DFC4F10820E945A
:10134000B8086091290370E0E0918E03F0918F035B
:101350008AE293E01995109229030E94C20836C0D0
:1013600084E08093950310924B0310924A03E0911E
:101370009003F0919103199580914A03811105C062
:1013800081E080934A0310924C03E0914B0381E08B
:101390008E0F80934B03F0E0E45BFC4F80818093E1
:1013A000BB0090914B0380914A03981708F47ACFC1
:1013B00085E88093BC000AC085EC8093BC00109245
:1013C000950304C0109228030E94B808FF91EF9182
:1013D000BF91AF919F918F917F916F915F914F914D
:1013E0003F912F910F900BBE0F900FBE0F901F904B
:1013F000189590E0FC013197E131F10508F04AC001
:101400008827EE58FF4F8F4F0C946D12809180000B
:101410008F7703C0809180008F7D80938000089536
:1014200084B58F7702C084B58F7D84BD0895809187
:10143000B0008F7703C08091B0008F7D8093B000A3
:101440000895809190008F7707C0809190008F7DE4
:1014500003C080919000877F8093900008958091D1
:10146000A0008F7707C08091A0008F7D03C080917E
:10147000A000877F8093A0000895809120018F773E
:1014800007C0809120018F7D03C080912001877F5C
:101490008093200108951F93CF93DF93282F30E08E
:1014A000F901EA57FE4F8491F901E453FE4FD491BC
:1014B000F901EE5EFD4FC491CC23C9F0162F8111C6
:1014C0000E94F909EC2FF0E0EE0FFF1FE85AFD4FE4
:1014D000A591B4918FB7F894111105C09C91ED2F8F
:1014E000E095E92302C0EC91ED2BEC938FBFDF91E7
:1014F000CF911F9108951F920F920FB60F92112452
:101500002F933F938F939F93AF93BF9380919703B4
:1015100090919803A0919903B0919A03309196030A
:1015200023E0230F2D3720F40196A11DB11D05C026
:1015300026E8230F0296A11DB11D209396038093E8
:10154000970390939803A0939903B0939A03809183
:101550009B0390919C03A0919D03B0919E030196E3
:10156000A11DB11D80939B0390939C03A0939D03A9
:10157000B0939E03BF91AF919F918F913F912F9117
:101580000F900FBE0F901F9018953FB7F894809161
:101590009B0390919C03A0919D03B0919E0326B55F
:1015A000A89B05C02F3F19F00196A11DB11D3FBF9B
:1015B000BA2FA92F982F8827820F911DA11DB11D29
:1015C000BC01CD0142E0660F771F881F991F4A9525
:1015D000D1F70895CF92DF92EF92FF92CF93DF93EE
:1015E0006B017C010E94C50AEB01C114D104E10426
:1015F000F10479F00E94C50A6C1B7D0B683E7340B4
:10160000A0F381E0C81AD108E108F108C851DC4F05
:10161000ECCFDF91CF91FF90EF90DF90CF900895C6
:10162000789484B5826084BD84B5816084BD85B5BD
:10163000826085BD85B5816085BDEEE6F0E0808184
:1016400081608083E1E8F0E01082808182608083A5
:10165000808181608083E0E8F0E080818160808328
:10166000E1EBF0E0808184608083E0EBF0E080815A
:1016700081608083E1E9F0E0808182608083808105
:1016800081608083E0E9F0E0808181608083E1EA2D
:10169000F0E0808182608083808181608083E0EAE5
:1016A000F0E0808181608083E1E2F1E0808182600E
:1016B0008083808181608083E0E2F1E080818160CD
:1016C0008083EAE7F0E080818460808380818260AB
:1016D0008083808181608083808180688083109294
:1016E000C1000895CF92DF92EF92FF920F931F9364
:1016F000CF93DF936C01EB017B01E40EF51E00E05C
:1017000010E0CE15DF0561F06991D601ED91FC91F5
:101710000190F081E02DC6011995080F191FF1CF36
:10172000C801DF91CF911F910F91FF90EF90DF9053
:10173000CF9008956115710579F0FB0101900020AB
:10174000E9F73197AF01461B570BDC01ED91FC9196
:101750000280F381E02D199480E090E00895DC018F
:10176000ED91FC910190F081E02D19940F931F935E
:10177000CF93DF93EC016DE00E94AF0B8C016AE028
:10178000CE010E94AF0B800F911FDF91CF911F916F
:101790000F9108950F931F93CF93DF93EC010E9455
:1017A0009A0B8C01CE010E94B60B800F911FDF9126
:1017B000CF911F910F910895FC0124853585F90182
:1017C000E05CFF4F80819181329620813181821BC4
:1017D000930B8F7399270895DC011C96ED91FC9172
:1017E0001D97DF01A05CBF4F2D913C911197129680
:1017F0008D919C9111972817390739F08D919C9103
:10180000E80FF91F808190E008958FEF9FEF089512
:10181000FC01A485B585FD01E05CFF4F208131818D
:101820003296808191812817390779F080819181E2
:10183000A80FB91F8C91208131812F5F3F4F2F73EB
:1018400033273183208390E008958FEF9FEF089531
:10185000FC0181A1882329F0A489B5898C9186FF98
:10186000FBCF11A208950F931F93CF93DF93FC0139
:10187000A685B7858D01005C1F4FE801888199819D
:1018800001968F739927AD014E5B5F4FEA01288166
:10189000398182179307D1F3E80128813981A20F9A
:1018A000B31F6C93A685B785A05CBF4F11969C9320
:1018B0008E93A689B7892C9181E090E0078C02C0B5
:1018C000880F991F0A94E2F7822B8C9381E081A301
:1018D0000488F589E02D80818064808381E090E038
:1018E000DF91CF911F910F910895FB01E05CFF4FB5
:1018F000208131812F5F3F4F2F733327DB01AE5B98
:10190000BF4F4D915C912417350741F040815181C3
:10191000DB01A40FB51F8C933183208308950895B4
:101920001F920F920FB60F9211240BB60F922F93A6
:101930003F934F935F936F937F938F939F93AF9357
:10194000BF93EF93FF938091C00082FD07C0809109
:10195000C60063E076E00E94750C02C08091C6006C
:10196000FF91EF91BF91AF919F918F917F916F9177
:101970005F914F913F912F910F900BBE0F900FBE33
:101980000F901F90189508951F920F920FB60F9207
:1019900011240BB60F922F933F934F935F936F9346
:1019A0007F938F939F93AF93BF93EF93FF93809118
:1019B000C80082FD07C08091CE006BE775E00E94F1
:1019C000750C02C08091CE00FF91EF91BF91AF9155
:1019D0009F918F917F916F915F914F913F912F9147
:1019E0000F900BBE0F900FBE0F901F90189508958B
:1019F0001F920F920FB60F9211240BB60F922F93D6
:101A00003F934F935F936F937F938F939F93AF9386
:101A1000BF93EF93FF938091D00082FD07C0809128
:101A2000D60063EF74E00E94750C02C08091D6006E
:101A3000FF91EF91BF91AF919F918F917F916F91A6
:101A40005F914F913F912F910F900BBE0F900FBE62
:101A50000F901F90189508951F920F920FB60F9236
:101A600011240BB60F922F933F934F935F936F9375
:101A70007F938F939F93AF93BF93EF93FF93809147
:101A8000300182FD07C0809136016BE674E00E9450
:101A9000750C02C080913601FF91EF91BF91AF911B
:101AA0009F918F917F916F915F914F913F912F9176
:101AB0000F900BBE0F900FBE0F901F90189585E0F2
:101AC00094E00E94DC0B892B11F00E948F0C83EEB6
:101AD00093E00E94DC0B892B11F00E94C30C81EC77
:101AE00093E00E94DC0B892B11F00E94F70C8FE928
:101AF00093E00E94DC0B892B11F00C942B0D0895C0
:101B00001F920F920FB60F9211240BB60F922F93C4
:101B10003F938F939F93EF93FF932091FF05309115
:101B2000000680910106909102062817390731F4CA
:101B30008091C1008F7D8093C10014C0E0910106A7
:101B4000F0910206E154FA4F2081809101069091B4
:101B5000020601968F7399279093020680930106DF
:101B60002093C600FF91EF919F918F913F912F910C
:101B70000F900BBE0F900FBE0F901F9018951F92E5
:101B80000F920FB60F9211240BB60F922F933F9323
:101B90008F939F93EF93FF93209177053091780572
:101BA0008091790590917A052817390731F4809151
:101BB000C9008F7D8093C90014C0E0917905F09130
:101BC0007A05E95CFA4F20818091790590917A0538
:101BD00001968F73992790937A05809379052093C6
:101BE000CE00FF91EF919F918F913F912F910F9098
:101BF0000BBE0F900FBE0F901F9018951F920F9263
:101C00000FB60F9211240BB60F922F933F938F9321
:101C10009F93EF93FF932091EF043091F004809114
:101C2000F1049091F2042817390731F48091D10022
:101C30008F7D8093D10014C0E091F104F091F20403
:101C4000E155FB4F20818091F1049091F2040196BF
:101C50008F7399279093F2048093F1042093D60018
:101C6000FF91EF919F918F913F912F910F900BBE1C
:101C70000F900FBE0F901F9018951F920F920FB6E6
:101C80000F9211240BB60F922F933F938F939F9334
:101C9000EF93FF9320916704309168048091690469
:101CA00090916A042817390731F4809131018F7DB2
:101CB0008093310114C0E0916904F0916A04E95DF8
:101CC000FB4F20818091690490916A0401968F7383
:101CD000992790936A048093690420933601FF91B9
:101CE000EF919F918F913F912F910F900BBE0F908D
:101CF0000FBE0F901F901895CF92DF92EF92FF9238
:101D00000F931F93CF93DF93EC016A017B01411581
:101D1000514E6105710509F1EC89FD8981E090E082
:101D200008A002C0880F991F0A94E2F7808360E040
:101D300079E08DE390E0A70196010E944B128901A2
:101D40009A010150110921093109369527951795F6
:101D50000795980101151041A8F0EC89FD891082C2
:101D600060E874E88EE190E0A70196010E944B12B2
:101D7000DA01C9010197A109B109B695A79597950F
:101D800087959C01E889F9893083EA89FB8920835A
:101D900019A2EE89FF89408181E090E09C010C8CC2
:101DA00002C0220F331F0A94E2F7242B2083EE890E
:101DB000FF8940819C010D8C02C0220F331F0A94C1
:101DC000E2F7242B2083EE89FF8940819C010E8C51
:101DD00002C0220F331F0A94E2F7242B2083EE89DE
:101DE000FF8920810F8C02C0880F991F0A94E2F7A7
:101DF000809582238083DF91CF911F910F91FF9077
:101E0000EF90DF90CF900895CF92DF92EF92FF9204
:101E1000E5E0F4E01382128288EEC82E83E0D82E2B
:101E2000E12CF12CC482D582E682F7826DE372E068
:101E30007183608383E096E0958784878FEB95E0DC
:101E40009787868785EC90E0918B808B84EC90E07F
:101E5000938B828B80EC90E0958B848B81EC90E06F
:101E6000978B868B82EC90E0918F808F86EC90E050
:101E7000938F828F44E0448F33E0358F27E0268FA5
:101E800095E0978F81E080A3E3EEF3E01382128266
:101E9000C482D582E682F78271836083ABE7B5E0C6
:101EA000B587A487A7E3B5E0B787A687ADECB0E018
:101EB000B18BA08BACECB0E0B38BA28BA8ECB0E004
:101EC000B58BA48BA9ECB0E0B78BA68BAAECB0E0E5
:101ED000B18FA08FAEECB0E0B38FA28F448F358F5F
:101EE000268F978F80A3E1ECF3E013821282C482E5
:101EF000D582E682F78271836083A3EFB4E0B58771
:101F0000A487AFEAB4E0B787A687A5EDB0E0B18BB0
:101F1000A08BA4EDB0E0B38BA28BA0EDB0E0B58BAD
:101F2000A48BA1EDB0E0B78BA68BA2EDB0E0B18F92
:101F3000A08FA6EDB0E0B38FA28F448F358F268F90
:101F4000978F80A3EFE9F3E013821282C482D582D7
:101F5000E682F782718360836BE674E0758764873D
:101F600067E274E07787668765E371E0718B608B69
:101F700064E371E0738B628B60E371E0758B648B5B
:101F800061E371E0778B668B62E371E0718F608F44
:101F900066E371E0738F628F448F358F268F978F42
:101FA00080A3FF90EF90DF90CF9008950E94100BD8
:101FB0000E946F01CFE5DDE00E9400032097E1F36E
:101FC0000E945F0DF9CF5058BB27AA270E94FB0F34
:101FD0000C948C110E947E1138F00E94851120F023
:101FE00039F49F3F19F426F40C947B110EF4E0951C
:101FF000E7FB0C944C11E92F0E949D1158F3BA177E
:10200000620773078407950720F079F4A6F50C940E
:10201000D7110EF4E0950B2EBA2FA02D0B01B901AC
:1020200090010C01CA01A0011124FF27591B99F04E
:10203000593F50F4503E68F11A16F040A22F232F5A
:10204000342F4427585FF3CF469537952795A795AA
:10205000F0405395C9F77EF41F16BA0B620B730B51
:10206000840BBAF09150A1F0FF0FBB1F661F771FC2
:10207000881FC2F70EC0BA0F621F731F841F48F477
:10208000879577956795B795F7959E3F08F0B0CF00
:102090009395880F08F09927EE0F979587950895E7
:1020A0000E9464100C948C110E94851158F00E94BB
:1020B0007E1140F029F45F3F29F00C944C1151112E
:1020C0000C94D8110C947B110E949D1168F39923F4
:1020D000B1F3552391F3951B550BBB27AA27621724
:1020E0007307840738F09F5F5F4F220F331F441F31
:1020F000AA1FA9F335D00E2E3AF0E0E832D0915065
:102100005040E695001CCAF72BD0FE2F29D0660F51
:10211000771F881FBB1F261737074807AB07B0E894
:1021200009F0BB0B802DBF01FF2793585F4F3AF09A
:102130009E3F510578F00C944C110C94D8115F3FE0
:10214000E4F3983ED4F3869577956795B795F79520
:102150009F5FC9F7880F911D9695879597F9089508
:10216000E1E0660F771F881FBB1F621773078407A4
:10217000BA0720F0621B730B840BBA0BEE1F88F7B3
:10218000E09508950E94C9106894B1110C94D8117B
:1021900008950E94A51188F09F5798F0B92F9927AC
:1021A000B751B0F0E1F0660F771F881F991F1AF042
:1021B000BA95C9F714C0B13091F00E94D711B1E0BF
:1021C00008950C94D711672F782F8827B85F39F0BE
:1021D000B93FCCF3869577956795B395D9F73EF4DB
:1021E00090958095709561957F4F8F4F9F4F089583
:1021F000E89409C097FB3EF49095809570956195A1
:102200007F4F8F4F9F4F9923A9F0F92F96E9BB2756
:102210009395F695879577956795B795F111F8CFD2
:10222000FAF4BB0F11F460FF1BC06F5F7F4F8F4F3D
:102230009F4F16C0882311F096E911C0772321F033
:102240009EE8872F762F05C0662371F096E8862FCB
:1022500070E060E02AF09A95660F771F881FDAF722
:10226000880F9695879597F908950E94BF1190F071
:102270009F3748F4911116F00C94D81160E070E08B
:1022800080E89FEB089526F41B16611D711D811DCA
:102290000C9452110C946D1197F99F6780E870E0CF
:1022A00060E00895882371F4772321F09850872BFC
:1022B000762F07C0662311F499270DC09051862B05
:1022C00070E060E02AF09A95660F771F881FDAF7B2
:1022D000880F9695879597F908959F3F31F0915013
:1022E00020F4879577956795B795880F911D9695FA
:1022F000879597F908959FEF80EC089500240A943C
:102300001616170618060906089500240A941216D0
:102310001306140605060895092E0394000C11F403
:10232000882352F0BB0F40F4BF2B11F460FF04C0B0
:102330006F5F7F4F8F4F9F4F089557FD9058440F09
:10234000551F59F05F3F71F04795880F97FB991F14
:1023500061F09F3F79F087950895121613061406D1
:10236000551FF2CF4695F1DF08C01616170618065E
:10237000991FF1CF869571056105089408950E9413
:10238000A511A0F0BEE7B91788F4BB279F3860F409
:102390001616B11D672F782F8827985FF7CF86957F
:1023A00077956795B11D93959639C8F30895E8948C
:1023B000BB2766277727CB0197F908950E94F11173
:1023C0000C948C110E947E1138F00E94851120F02F
:1023D000952311F00C944C110C947B1111240C9446
:1023E000D8110E949D1170F3959FC1F3950F50E095
:1023F000551F629FF001729FBB27F00DB11D639FB7
:10240000AA27F00DB11DAA1F649F6627B00DA11D5C
:10241000661F829F2227B00DA11D621F739FB00D02
:10242000A11D621F839FA00D611D221F749F332772
:10243000A00D611D231F849F600D211D822F762F0B
:102440006A2F11249F5750409AF0F1F088234AF0E8
:10245000EE0FFF1FBB1F661F771F881F9150504054
:10246000A9F79E3F510580F00C944C110C94D811A3
:102470005F3FE4F3983ED4F3869577956795B795DB
:10248000F795E7959F5FC1F7FE2B880F911D9695F5
:10249000879597F90895A1E21A2EAA1BBB1BFD018F
:1024A0000DC0AA1FBB1FEE1FFF1FA217B307E40733
:1024B000F50720F0A21BB30BE40BF50B661F771F8B
:1024C000881F991F1A9469F760957095809590956B
:1024D0009B01AC01BD01CF010895EE0FFF1F881FC6
:0E24E0008BBF0790F691E02D1994F894FFCF72
:1024EE004164616672756974204D6F746F727368A2
:1024FE0069656C64207632202D204443204D6F7424
:10250E006F7220746573742100000000006E073E28
:10251E000712071A072E073D0700000000330C7242
:0A252E000BDC0B080CEC0B280C0072
:00000001FF
