:100000000C9437010C9468010C9468010C946801FD
:100010000C9468010C9468010C9468010C946801BC
:100020000C9468010C9468010C9468010C946801AC
:100030000C9468010C9468010C9468010C9468019C
:100040000C9468010C9468010C9468010C9468018C
:100050000C9468010C9468010C9468010C941507C9
:100060000C9468010C94CF030C94BF040C946801A9
:100070000C9468010C9468010C9468010C9468015C
:100080000C9468010C9468010C9468010C9468014C
:100090000C9403040C94FE040C9468010C94680105
:1000A0000C9468010C9468010C9468010C9468012C
:1000B0000C9468010C9468010C9468010C9468011C
:1000C0000C9468010C9468010C9468010C9437043A
:1000D0000C943D050C9468010C946B040C947C0505
:1000E0000C946801E901EC01DF01E3012302F00156
:1000F000F401FA01FE01020208020C0210022302BE
:1001000016021A021E020C9467030C94F4010C945C
:100110009E040C94FE010C94F0010C94E3010C94E9
:1001200010020C94FA010C9443060C9472030C9484
:10013000E9010C941A020C942B030C941B030C94ED
:1001400023020C9402020C94DF010C9447030C94DC
:1001500016020C940C020C94EC010C9408020C9402
:100160001E020C9490020000090A02080B0C0D07F5
:100170000603040100000000000000000000000071
:10018000000000000000000000000000000000006F
:10019000000011100F00000000000000000000002F
:1001A000000000000000000000000000010210201C
:1001B000200808102040102040800201020108049D
:1001C0000201010204081020408080402010080431
:1001D000020180040201804020100804020108048A
:1001E00002010102040810204080010204081020CE
:1001F00040800505050507050808080802020202F7
:100200000A0A0808040404040101010101010101B2
:100210000303030303030303040707070C0C0C0C7D
:100220000C0C0C0C02020202060606060606060666
:100230000B0B0B0B0B0B0B0B0000220025002800F7
:100240002B002E00310034000201000005010801DE
:100250000B0100002100240027002A002D0030009F
:10026000330001010000040107010A0143061124C3
:100270001FBECFEFD1E2DEBFCDBF00E00CBF12E06A
:10028000A0E0B2E0E8EFFFE000E00BBF02C00790A3
:100290000D92A031B107D9F724E0A0E1B2E001C08E
:1002A0001D92A33CB207E1F711E0C7E3D1E000E003
:1002B00006C021970109802FFE010E94F207C63374
:1002C000D10780E00807A9F70E940E030C94CD0720
:1002D0000C940000CF93DF9300D01F92CDB7DEB710
:1002E00044E050E0BE016F5F7F4F88E792E00E94DC
:1002F000E80269817A818B819C810F900F900F9029
:100300000F90DF91CF910895109211021092100278
:1003100040E855E260E070E088E792E00E94BB05AB
:1003200061E08DE00E94240260E08DE00C946002A8
:10033000CF93DF9300D01F92CDB7DEB769837A8366
:100340008B839C8344E050E0BE016F5F7F4F88E762
:1003500092E00E9490020F900F900F900F90DF910B
:10036000CF91089588E792E00E941B030497CCF098
:100370008091100290911102019690931102809346
:10038000100280FF02C061E001C060E08DE00E94C9
:1003900060020E946A01660F771F881F991F0C94E4
:1003A0009801089590E0FC013197E131F10508F0E2
:1003B0004AC08827EE58FF4F8F4F0C94F207809168
:1003C00080008F7703C0809180008F7D80938000B4
:1003D000089584B58F7702C084B58F7D84BD08955C
:1003E0008091B0008F7703C08091B0008F7D8093A3
:1003F000B0000895809190008F7707C080919000A1
:100400008F7D03C080919000877F80939000089536
:100410008091A0008F7707C08091A0008F7D03C0DE
:100420008091A000877F8093A00008958091200193
:100430008F7707C0809120018F7D03C080912001BC
:10044000877F809320010895CF93DF9390E0FC0194
:10045000E455FE4F2491FC01EE50FE4F8491882319
:1004600061F190E0880F991FFC01EE5AFD4FC59194
:10047000D491FC01E85CFD4FA591B491611109C0D4
:100480009FB7F8948881209582238883EC912E234E
:100490000BC0623061F49FB7F8943881822F809549
:1004A00083238883EC912E2B2C939FBF06C08FB79C
:1004B000F894E8812E2B28838FBFDF91CF91089588
:1004C0001F93CF93DF93282F30E0F901EA59FE4FB5
:1004D0008491F901E455FE4FD491F901EE50FE4F9D
:1004E000C491CC23C9F0162F81110E94D201EC2FA8
:1004F000F0E0EE0FFF1FE85CFD4FA591B4918FB7C0
:10050000F894111105C09C91ED2FE095E92302C0EC
:10051000EC91ED2BEC938FBFDF91CF911F9108955C
:10052000CF92DF92EF92FF920F931F93CF93DF93BF
:100530006C01EB017B01E40EF51E00E010E0CE152E
:10054000DF0561F06991D601ED91FC910190F08198
:10055000E02DC6011995080F191FF1CFC801DF91D1
:10056000CF911F910F91FF90EF90DF90CF90089562
:100570000F931F93CF93DF93EC010E945F0768876F
:1005800079878A879B87E881F9810680F781E02D4A
:10059000CE01199597FF17C00E945F07088519853E
:1005A0002A853B85DC01CB01801B910BA20BB30B91
:1005B0000C811D812E813F8180179107A207B3070F
:1005C00010F38FEF9FEFDF91CF911F910F9108955F
:1005D000CF92DF92EF92FF920F931F93CF93DF930F
:1005E0006C017A018B01C0E0D0E0CE15DF0561F02F
:1005F000C6010E94B80297FF02C07E0105C0F80143
:1006000081938F012196F1CFC701DF91CF911F9187
:100610000F91FF90EF90DF90CF9008950E946B07AD
:100620000E948401CEE9D4E00E94B2012097E1F358
:100630000E949E04F9CFFC0124853585F901E05C18
:10064000FF4F80819181329620813181821B930BF3
:100650008F7399270895DC011C96ED91FC911D97ED
:10066000DF01A05CBF4F2D913C91119712968D91A7
:100670009C9111972817390739F08D919C91E80FBB
:10068000F91F808190E008958FEF9FEF0895FC019E
:10069000A485B585FD01E05CFF4F20813181329654
:1006A000808191812817390779F080819181A80F85
:1006B000B91F8C91208131812F5F3F4F2F733327DA
:1006C0003183208390E008958FEF9FEF0895FC0120
:1006D00081A1882329F0A489B5898C9186FFFBCF5D
:1006E00011A208950F931F93CF93DF93FC01A6856A
:1006F000B7858D01005C1F4FE801888199810196C3
:100700008F739927AD014E5B5F4FEA0128813981D4
:1007100082179307D1F3E80128813981A20FB31F13
:100720006C93A685B785A05CBF4F11969C938E9362
:10073000A689B7892C9181E090E0078C02C0880FD0
:10074000991F0A94E2F7822B8C9381E081A304889D
:10075000F589E02D80818064808381E090E0DF91E5
:10076000CF911F910F910895FB01E05CFF4F208115
:1007700031812F5F3F4F2F733327DB01AE5BBF4FBC
:100780004D915C912417350741F040815181DB0187
:10079000A40FB51F8C9331832083089508951F9271
:1007A0000F920FB60F9211240BB60F922F933F9317
:1007B0004F935F936F937F938F939F93AF93BF9369
:1007C000EF93FF938091C00082FD07C08091C60027
:1007D00066E774E00E94B40302C08091C600FF91F6
:1007E000EF91BF91AF919F918F917F916F915F91A9
:1007F0004F913F912F910F900BBE0F900FBE0F9016
:100800001F90189508951F920F920FB60F92112402
:100810000BB60F922F933F934F935F936F937F93FA
:100820008F939F93AF93BF93EF93FF938091C800F3
:1008300082FD07C08091CE006EEE73E00E94B4038B
:1008400002C08091CE00FF91EF91BF91AF919F9137
:100850008F917F916F915F914F913F912F910F9069
:100860000BBE0F900FBE0F901F90189508951F920A
:100870000F920FB60F9211240BB60F922F933F9346
:100880004F935F936F937F938F939F93AF93BF9398
:10089000EF93FF938091D00082FD07C08091D60036
:1008A00066E673E00E94B40302C08091D600FF9117
:1008B000EF91BF91AF919F918F917F916F915F91D8
:1008C0004F913F912F910F900BBE0F900FBE0F9045
:1008D0001F90189508951F920F920FB60F92112432
:1008E0000BB60F922F933F934F935F936F937F932A
:1008F0008F939F93AF93BF93EF93FF9380913001BA
:1009000082FD07C0809136016EED72E00E94B40353
:1009100002C080913601FF91EF91BF91AF919F91FD
:100920008F917F916F915F914F913F912F910F9098
:100930000BBE0F900FBE0F901F90189588E792E0A6
:100940000E941B03892B11F00E94CE0386E592E0E2
:100950000E941B03892B11F00E94020484E392E0A1
:100960000E941B03892B11F00E94360482E192E061
:100970000E941B03892B11F00C946A0408951F92A6
:100980000F920FB60F9211240BB60F922F933F9335
:100990008F939F93EF93FF93209172043091730490
:1009A00080917404909175042817390731F480916F
:1009B000C1008F7D8093C10014C0E0917404F09158
:1009C0007504EE5CFB4F2081809174049091750456
:1009D00001968F73992790937504809374042093E4
:1009E000C600FF91EF919F918F913F912F910F90B2
:1009F0000BBE0F900FBE0F901F9018951F920F9275
:100A00000FB60F9211240BB60F922F933F938F9333
:100A10009F93EF93FF932091EA033091EB03809132
:100A2000EC039091ED032817390731F48091C90048
:100A30008F7D8093C90014C0E091EC03F091ED0329
:100A4000E655FC4F20818091EC039091ED030196D7
:100A50008F7399279093ED038093EC032093CE003E
:100A6000FF91EF919F918F913F912F910F900BBE2E
:100A70000F900FBE0F901F9018951F920F920FB6F8
:100A80000F9211240BB60F922F933F938F939F9346
:100A9000EF93FF932091620330916303809164038D
:100AA000909165032817390731F48091D1008F7D2B
:100AB0008093D10014C0E0916403F0916503EE5D72
:100AC000FC4F2081809164039091650301968F73A0
:100AD000992790936503809364032093D600FF9138
:100AE000EF919F918F913F912F910F900BBE0F909F
:100AF0000FBE0F901F9018951F920F920FB60F9276
:100B000011240BB60F922F933F938F939F93EF93E4
:100B1000FF932091DA023091DB028091DC02909108
:100B2000DD022817390731F4809131018F7D8093E0
:100B3000310114C0E091DC02F091DD02E656FD4F78
:100B400020818091DC029091DD0201968F739927BC
:100B50009093DD028093DC0220933601FF91EF91A8
:100B60009F918F913F912F910F900BBE0F900FBED1
:100B70000F901F901895CF92DF92EF92FF920F93F4
:100B80001F93CF93DF93EC016A017B014115514E16
:100B90006105710509F1EC89FD8981E090E008A00B
:100BA00002C0880F991F0A94E2F7808360E079E021
:100BB0008DE390E0A70196010E94D00789019A0178
:100BC0000150110921093109369527951795079587
:100BD000980101151041A8F0EC89FD89108260E8A8
:100BE00074E88EE190E0A70196010E94D007DA0137
:100BF000C9010197A109B109B695A7959795879560
:100C00009C01E889F9893083EA89FB89208319A24C
:100C1000EE89FF89408181E090E09C010C8C02C04C
:100C2000220F331F0A94E2F7242B2083EE89FF89D9
:100C300040819C010D8C02C0220F331F0A94E2F701
:100C4000242B2083EE89FF8940819C010E8C02C0F9
:100C5000220F331F0A94E2F7242B2083EE89FF89A9
:100C600020810F8C02C0880F991F0A94E2F78095AB
:100C700082238083DF91CF911F910F91FF90EF909E
:100C8000DF90CF900895CF92DF92EF92FF92E8E746
:100C9000F2E01382128288EEC82E83E0D82EE12C77
:100CA000F12CC482D582E682F78264E072E071831F
:100CB000608386E794E09587848782E394E0978752
:100CC000868785EC90E0918B808B84EC90E0938B11
:100CD000828B80EC90E0958B848B81EC90E0978BFD
:100CE000868B82EC90E0918F808F86EC90E0938FE2
:100CF000828F44E0448F33E0358F27E0268F95E0E4
:100D0000978F81E080A3E6E5F2E013821282C4822D
:100D1000D582E682F78271836083AEEEB3E0B58759
:100D2000A487AAEAB3E0B787A687ADECB0E0B18BA1
:100D3000A08BACECB0E0B38BA28BA8ECB0E0B58B91
:100D4000A48BA9ECB0E0B78BA68BAAECB0E0B18F76
:100D5000A08FAEECB0E0B38FA28F448F358F268F7B
:100D6000978F80A3E4E3F2E013821282C482D582DB
:100D7000E682F78271836083A6E6B3E0B587A48735
:100D8000A2E2B3E0B787A687A5EDB0E0B18BA08B58
:100D9000A4EDB0E0B38BA28BA0EDB0E0B58BA48B3B
:100DA000A1EDB0E0B78BA68BA2EDB0E0B18FA08F24
:100DB000A6EDB0E0B38FA28F448F358F268F978F2B
:100DC00080A3E2E1F2E013821282C482D582E6823D
:100DD000F782718360836EED72E0758764876AE9DC
:100DE00072E07787668765E371E0718B608B64E3FF
:100DF00071E0738B628B60E371E0758B648B61E3F0
:100E000071E0778B668B62E371E0718F608F66E3D0
:100E100071E0738F628F448F358F268F978F80A3F9
:100E2000FF90EF90DF90CF9008951F920F920FB632
:100E30000F9211242F933F938F939F93AF93BF9360
:100E40008091BB049091BC04A091BD04B091BE04FC
:100E50003091BA0423E0230F2D3720F40196A11D11
:100E6000B11D05C026E8230F0296A11DB11D2093D8
:100E7000BA048093BB049093BC04A093BD04B093C8
:100E8000BE048091BF049091C004A091C104B091B0
:100E9000C2040196A11DB11D8093BF049093C004AC
:100EA000A093C104B093C204BF91AF919F918F9161
:100EB0003F912F910F900FBE0F901F9018952FB755
:100EC000F8946091BB047091BC048091BD04909132
:100ED000BE042FBF0895789484B5826084BD84B524
:100EE000816084BD85B5826085BD85B5816085BD25
:100EF000EEE6F0E0808181608083E1E8F0E010823E
:100F0000808182608083808181608083E0E8F0E07E
:100F1000808181608083E1EBF0E080818460808368
:100F2000E0EBF0E0808181608083E1E9F0E08081A6
:100F300082608083808181608083E0E9F0E080814D
:100F400081608083E1EAF0E080818260808380813B
:100F500081608083E0EAF0E0808181608083E1E26B
:100F6000F1E0808182608083808181608083E0E223
:100F7000F1E0808181608083EAE7F0E08081846035
:100F80008083808182608083808181608083808192
:100F9000806880831092C1000895F8940C94FA0739
:100FA000A1E21A2EAA1BBB1BFD010DC0AA1FBB1F6D
:100FB000EE1FFF1FA217B307E407F50720F0A21BDF
:100FC000B30BE40BF50B661F771F881F991F1A944C
:100FD00069F760957095809590959B01AC01BD0176
:100FE000CF010895EE0FFF1F881F8BBF0790F6916A
:080FF000E02D1994F894FFCFE5
:100FF80000000000720390021B0347032B036703E2
:00000001FF
