:100000000C943B010C946C010C946C010C946C01ED
:100010000C946C010C946C010C946C010C946C01AC
:100020000C946C010C946C010C946C010C946C019C
:100030000C946C010C946C010C946C010C946C018C
:100040000C946C010C946C010C946C010C946C017C
:100050000C946C010C946C010C946C010C94A9022E
:100060000C946C010C941D030C94F3020C946C0121
:100070000C946C010C946C010C946C010C946C014C
:100080000C946C010C946C010C946C010C946C013C
:100090000C946C010C946C010C946C010C942E0566
:1000A0000C946C010C946C010C946C010C946C011C
:1000B0000C946C010C946C010C946C010C946C010C
:1000C0000C946C010C946C010C946C010C946C01FC
:1000D0000C946C010C946C010C946C010C946C01EC
:1000E0000C946C0181038403730377037B03BB03CC
:1000F00088038C03920396039A03A003A403A80326
:10010000BB03AE03B203B6030C94FD030C94880347
:100110000C949D010C9458040C94A0030C940C04B2
:100120000C94C0010C947B030C9481030C949A01F1
:100130000C9492030C944C020C9484030C94D609F6
:100140000C94CE010C9405020C94AE030C9477032E
:100150000C94AC010C94B6030C94BB030C94960362
:100160000C94A4030C9420040C9428040C94A8036D
:100170000C948C030C9473030C946E010C94B203D6
:100180000C949A030C94FC03000022002500280024
:100190002B002E003100340002010000050108018F
:1001A0000B010505050507050808080802020202FB
:1001B0000A0A080804040404010101010101010103
:1001C0000303030303030303040707070C0C0C0CCE
:1001D0000C0C0C0C020202020606060606060606B7
:1001E0000B0B0B0B0B0B0B0B010210202008081044
:1001F0002040102040800201020108040201010297
:10020000040810204080804020100804020180046F
:1002100002018040201008040201080402010102CA
:1002200004081020408001020408102040800000D3
:100230000A0B02090C0D0E08070304010000000060
:1002400000000000000000000000000000000000AE
:10025000000000000000000000001211100000006B
:10026000000000000000000000000000000000008E
:1002700000000000D60911241FBECFEFD1E2DEBF7F
:10028000CDBF00E00CBF12E0A0E0B2E0E2E9F4E193
:1002900000E00BBF02C007900D92A236B107D9F75C
:1002A00024E0A2E6B2E001C01D92AC34B207E1F74F
:1002B00011E0CBE3D1E000E006C021970109802FD7
:1002C000FE010E943A0ACA33D10780E00807A9F765
:1002D0000E9440070C94470A0C940000CF92DF92D2
:1002E000EF92FF920F931F93CF93DF936C017A01EC
:1002F0008B01C0E0D0E0CE15DF0589F0D8016D910B
:100300008D01D601ED91FC910190F081E02DC601A7
:100310001995892B11F47E0102C02196ECCFC701FB
:10032000DF91CF911F910F91FF90EF90DF90CF90D1
:100330000895089580E090E00895FC01538D448D68
:10034000252F30E0842F90E0821B930B541710F080
:10035000CF96089501970895FC01918D828D98178D
:1003600061F0828DDF01A80FB11D5D968C91928D99
:100370009F5F9F73928F90E008958FEF9FEF089596
:10038000FC01918D828D981731F0828DE80FF11D5F
:10039000858D90E008958FEF9FEF0895FC01918D7A
:1003A000228D892F90E0805C9F4F821B91098F7373
:1003B000992708958CEC92E00E94CE0121E0892BD0
:1003C00009F420E0822F0895FC01848DDF01A80F3D
:1003D000B11DA35ABF4F2C91848D90E001968F736D
:1003E0009927848FA689B7892C93A089B1898C918C
:1003F00080648C93938D848D981306C00288F38952
:10040000E02D80818F7D80830895EF92FF920F937E
:100410001F93CF93DF93EC0181E0888F9B8D8C8DB0
:10042000981305C0E889F989808185FD24C0F62EDE
:100430000B8D10E00F5F1F4F0F731127E02E8C8D77
:10044000E8120CC00FB607FCFACFE889F989808161
:1004500085FFF5CFCE010E94E401F1CF8B8DFE0127
:10046000E80FF11DE35AFF4FF0820B8FEA89FB89F9
:100470008081806207C0EE89FF896083E889F989FD
:1004800080818064808381E090E0DF91CF911F9133
:100490000F91FF90EF900895CF93DF93EC01888D3B
:1004A0008823C9F0EA89FB89808185FD05C0A88978
:1004B000B9898C9186FD0FC00FB607FCF5CF8081FE
:1004C00085FFF2CFA889B9898C9185FFEDCFCE0148
:1004D0000E94E401E7CFDF91CF91089580E090E0A2
:1004E000892B21F00E94DA01811125C080E090E083
:1004F000892B41F080E090E0892B21F00E940000E0
:1005000081111CC080E090E0892B41F080E090E0F8
:10051000892B21F00E940000811113C080E090E03F
:10052000892BA1F080E090E0892B81F00E940000EF
:1005300081110AC008950E940000D8CF0E940000D7
:10054000E1CF0E940000EACF0C94000008950E94C1
:10055000420A1F920F920FB60F9211242F933F93CE
:100560008F939F93AF93BF9380916B0290916C0296
:10057000A0916D02B0916E0230916A0223E0230FC8
:100580002D3720F40196A11DB11D05C026E8230FCB
:100590000296A11DB11D20936A0280936B02909375
:1005A0006C02A0936D02B0936E0280916F029091E5
:1005B0007002A0917102B09172020196A11DB11D4D
:1005C00080936F0290937002A0937102B0937202B5
:1005D000BF91AF919F918F913F912F910F900FBE3F
:1005E0000F901F9018951F920F920FB60F92112423
:1005F0000BB60F922F933F934F935F936F937F931D
:100600008F939F93AF93BF93EF93FF938CEC92E004
:100610000E94E401FF91EF91BF91AF919F918F9163
:100620007F916F915F914F913F912F910F900BBEF2
:100630000F900FBE0F901F9018951F920F920FB63C
:100640000F9211240BB60F922F938F939F93EF93DA
:10065000FF93E091DC02F091DD028081E091E20203
:10066000F091E30282FD12C090818091E5028F5FDC
:100670008F732091E602821751F0E091E502F0E0DD
:10068000E453FD4F958F8093E50201C08081FF9177
:10069000EF919F918F912F910F900BBE0F900FBEF6
:1006A0000F901F90189590E0FC01E25DFD4F449182
:1006B000FC01E851FE4F2491FC01EE55FE4F949150
:1006C000992309F466C0442309F455C050E0FA01A7
:1006D0003197E231F10508F04EC08827EE58FF4F00
:1006E0008F4F0C943A0A809180008F7707C08091D9
:1006F00080008F7D03C080918000877F8093800081
:100700003AC084B58F7702C084B58F7D84BD33C075
:100710008091B0008F7703C08091B0008F7D80936F
:10072000B00029C0809190008F7707C08091900021
:100730008F7D03C080919000877F809390001BC0C5
:100740008091A0008F7707C08091A0008F7D03C0AB
:100750008091A000877F8093A0000DC08091200130
:100760008F7707C0809120018F7D03C08091200189
:10077000877F80932001E92FF0E0EE0FFF1FE857FD
:10078000FE4FA591B4918FB7F894EC912E2B2C933A
:100790008FBF089585ED8093BC008091BC0084FDDF
:1007A000FCCF1092BB02089540910704262F30E041
:1007B000240F311D21323105DCF42091BB0224309D
:1007C000C9F4FC0180E090E0861758F430910704EA
:1007D0002191DC01AB51BC4FA30FB11D2C930196AD
:1007E000F3CF80910704680F6093070480E00895B9
:1007F00081E0089582E008950895E0919402809147
:100800009302E81730F4F0E0ED58FD4F808190E05E
:1008100008958FEF9FEF0895909194028091930235
:10082000981750F4E92FF0E0ED58FD4F208130E0AB
:100830009F5F9093940202C02FEF3FEFC90108958C
:100840008091930290E020919402821B9109089577
:10085000CF92DF92EF92FF920F931F93CF93DF938C
:100860007C01262F972F8A018091BC02882391F06A
:10087000C62FD72F6E01C40ED51ECC15DD0571F025
:100880006991D701ED91FC910190F081E02DC701B4
:100890001995F3CF642F822F0E94D403C801DF91F2
:1008A000CF911F910F91FF90EF90DF90CF9008951F
:1008B000CF93DF931F92CDB7DEB769832091BC023F
:1008C0002223D1F02091BF02203240F021E030E01D
:1008D000FC013383228380E090E015C08091BD024B
:1008E000E82FF0E0E45DFB4F998190838F5F809368
:1008F000BD028093BF0205C061E0CE0101960E9457
:10090000D40381E090E00F90DF91CF910895682F9C
:1009100080EC92E00C9458043FB7F89480916F02F9
:1009200090917002A0917102B091720226B5A89BBD
:1009300005C02F3F19F00196A11DB11D3FBFBA2F71
:10094000A92F982F8827820F911DA11DB11DBC01D1
:10095000CD0142E0660F771F881F991F4A95D1F796
:100960000895382F2091BF029091BE02213208F0E5
:1009700049C08091BB028111FCCF42E04093BB0291
:100980003093BA023FEF3093B9021092B80220932D
:10099000B702ACE2B4E047E952E0FA013E2F341B63
:1009A000321718F43D913193F9CF109296022091AD
:1009B0009602990F922B9093960290919502913006
:1009C00061F410929502909196029093BB009091E1
:1009D000BC0093FDF8CF95EC01C095EE9093BC0060
:1009E0009091BB029230E1F39091B9029F3F79F070
:1009F0008091B902803241F08091B902803331F0A8
:100A000084E005C081E003C082E001C083E0109271
:100A1000BD021092BF021092BC020895009769F0C7
:100A2000FC0101900020E9F73197AF01481B590BF9
:100A3000BC018CEC92E00C946E0180E090E0089593
:100A4000CF93DF930E940E05EC018EE592E00E94A9
:100A50000E058C0F9D1FDF91CF9108951F920F926D
:100A60000FB60F9211240BB60F922F933F934F9313
:100A70005F936F937F938F939F93AF93BF93EF9306
:100A8000FF938091B900887F803609F49CC068F597
:100A9000883209F45BC090F4803109F454C038F412
:100AA000882309F4F6C0883009F44DC0F6C08831B7
:100AB00009F44CC0803209F45DC0EFC0803409F401
:100AC00068C048F4803309F455C0883309F0E5C0A4
:100AD0008093B902D8C0803509F44FC0883509F435
:100AE0005DC0883409F0D9C0D6C0883909F4C7C0C0
:100AF000A8F4883709F467C038F4883609F463C06D
:100B0000803709F460C0C9C0883809F4B8C080399A
:100B100009F45FC0803809F0C0C05BC0803B09F4B5
:100B200086C038F4803A09F466C0883A09F47FC078
:100B3000B4C0803C09F4A7C0883C09F4A4C0883B39
:100B400009F48AC0AAC08091960210C09091B802A0
:100B50008091B702981770F5E091B80281E08E0F8E
:100B60008093B802F0E0E956FD4F80818093BB008E
:100B700085EC86C08093B9028EC0E091B80281E016
:100B80008E0F8093B8028091BB00F0E0E956FD4FD4
:100B900080839091B8028091B7026EC0E091B80254
:100BA00081E08E0F8093B8028091BB00F0E0E9569F
:100BB000FD4F80838091BA0281116DC081E08093E6
:100BC000950284EA61C083E08093BB0210922B04FB
:100BD000CFCF80912B04803208F051C0E0912B04DC
:100BE00081E08E0F80932B048091BB00F0E0E55FE5
:100BF000FB4F8083BDCF85EC8093BC001092BB027D
:100C000080912B04803230F4E0912B04F0E0E55F1A
:100C1000FB4F108260912B0470E0E0910904F09189
:100C20000A048BE094E0199510922B0436C084E0FE
:100C30008093BB021092080410920704E09105040F
:100C4000F0910604199580910704811105C081E097
:100C5000809307041092E503E091080481E08E0F71
:100C600080930804F0E0EB51FC4F80818093BB003F
:100C70009091080480910704981708F479CF85E8CB
:100C80008093BC000AC085EC8093BC001092BB022C
:100C900004C01092B9020E94CA03FF91EF91BF9164
:100CA000AF919F918F917F916F915F914F913F9104
:100CB0002F910F900BBE0F900FBE0F901F901895A5
:100CC0001092BB0281E08093BA021092950284E1F7
:100CD0000E94530385E10E945303E9EBF0E0808119
:100CE0008E7F808380818D7F808388E48093B800AD
:100CF00085E48093BC000895CF93DF931F92CDB716
:100D0000DEB7FC01808191E09093BC028093BE022B
:100D10001092BD021092BF0280EC92E049830E94C3
:100D200058044981642F80EC92E00E94580481E0CD
:100D30000F90DF91CF910C94B1040F931F93CF9339
:100D4000DF931F921F92CDB7DEB7152F032FFC0143
:100D5000808191E09093BC028093BE021092BD020C
:100D60001092BF02F4E06F9FB00111246A5F7F4FC1
:100D700080EC92E02A8349830E9458044981842FA1
:100D8000912F0E948704812F90E00E9487042A817E
:100D9000822F902F0E948704802F90E00E9487046A
:100DA00081E00F900F90DF91CF911F910F910C94E4
:100DB000B104CF93DF93FC01AC014B5F5F4FEC01BB
:100DC0002A964D96DA0114961C921E921397188259
:100DD0009E0123503109D9011C9221503109D901BA
:100DE0001C92DA011C924A5F5F4F269648175907FA
:100DF00049F711A614A610A617A211AE14AE10AE94
:100E000017AA628365AFDF91CF9108958F929F9269
:100E1000AF92BF92CF92DF92EF92FF926B017C0173
:100E20000E948C044B015C01C114D104E104F10463
:100E3000F1F00E948C04DC01CB0188199909AA0900
:100E4000BB09883E9340A105B10570F321E0C21AA9
:100E5000D108E108F10888EE880E83E0981EA11CF5
:100E6000B11CC114D104E104F10419F7DDCFFF90E6
:100E7000EF90DF90CF90BF90AF909F908F900895AC
:100E8000CF93DF93CDB7DEB7EE970FB6F894DEBF02
:100E90000FBECDBF789484B5826084BD84B5816077
:100EA00084BD85B5826085BD85B5816085BD809135
:100EB0006E00816080936E001092810080918100AD
:100EC00082608093810080918100816080938100A5
:100ED000809180008160809380008091B100846067
:100EE0008093B1008091B00081608093B0008091C8
:100EF0009100826080939100809191008160809345
:100F00009100809190008160809390008091A10079
:100F100082608093A1008091A10081608093A100F4
:100F20008091A00081608093A00080912101826067
:100F30008093210180912101816080932101809122
:100F4000200181608093200180917A0084608093E9
:100F50007A0080917A00826080937A0080917A0092
:100F6000816080937A0080917A00806880937A0013
:100F70001092C100E091DC02F091DD0282E08083FA
:100F8000E091D802F091D9021082E091DA02F0915A
:100F9000DB028FEC80831092E402E091E002F0919A
:100FA000E10286E08083E091DE02F091DF02808141
:100FB00080618083E091DE02F091DF0280818860B1
:100FC0008083E091DE02F091DF028081806880837F
:100FD000E091DE02F091DF0280818F7D808384E2E8
:100FE00092E00E9420058CEC92E00E94CE01892BB9
:100FF000D1F38CE292E00E94200561E6CE010196D9
:101000000E94D9068EE3FE013196A9E6B3E0019075
:101010000D928A95E1F762E6CE0101960E94D9060B
:101020008EE3FE013196A7EAB3E001900D928A9516
:10103000E1F7A9E6EA2EA3E0FA2E06EA13E0B0EC07
:10104000AB2EB2E0BB2E80E4882E86E0982ECC2416
:10105000C39455245A9495EE492E25EC322E33E74D
:10106000632E32E0732EF701B182A08210929402B7
:10107000109293021092BD021092BF020E9460066D
:1010800010929402109293021092BD021092BF022D
:101090000E94600640E060E0C8010E947C06F70103
:1010A00094828382F8018081C092BC028093BE0248
:1010B0001092BD021092BF0260E080EC92E00E94AC
:1010C000580481E00E94B104F80180819091BB0234
:1010D0009111FCCFC092BB02C092BA025092B902E9
:1010E0001092B8021092B702C092960290919602A6
:1010F000880F892B8093960280919502813069F444
:1011000010929502809196028093BB008091BC0062
:1011100083FDF8CF3092BC0002C04092BC008091A9
:10112000BB028130E1F38091B802811103C080914C
:10113000B80201C081E0A7E9B2E0E3E7F2E09E2F48
:101140009619981718F49D919193F9CF10929402E3
:101150008093930280EC92E00E940C04D82E482FDA
:101160004F76406160E0C8010E947C0643E06EEF6C
:10117000C8010E947C064D2D60E0C8010E947C06DB
:1011800065E070E080E090E00E9406074D2D416A26
:1011900060E0C8010E947C06D12C20E030E040E0F5
:1011A00050E06D2DC8010E949D06D394F0E1DF123E
:1011B000F4CF8EE3E80EF11C025C1F4FE5EEEE1655
:1011C000E3E0FE0609F04FCFE2E66E2EE2E07E2E6F
:1011D000D30120E030E0FEE35F2E16E0C90181700C
:1011E0009927A90155954795549EF001559EF00DFC
:1011F0001124BF0167597C4F189F7001199FF00C93
:101200001124EE0DFF1DE759FC4FF284F11035C09B
:10121000828771876087009739F4F9E0BF2E0AE072
:10122000A02E68E0F62E06C06CE0B62E7BE0A72E5E
:10123000EDE0FE2E189FF001199FF00D1124549E31
:10124000B001559E700D11244F01860E971EF401BA
:10125000E759FC4F4F01F5826C01FFEFCF1ADF0A0F
:101260001C9D70011D9DF00C11246E0D7F1D675992
:101270007C4FFB01A082F401B782189FB001199F37
:10128000700D1124549EC001559E900D1124860F9F
:10129000971F82599C4F8D939D932F5F3F4F243012
:1012A000310509F09BCFC12CD12C76018AE0882E24
:1012B000912CA12CB12C85E392E00E940E0519A27D
:1012C000A70196018E010F5D1F4FCA01B901A5014B
:1012D00094010E94180A605DF80162938F01211544
:1012E00031054105510589F7CF010E940E058CE3B8
:1012F00092E00E9420058EE392E00E940E05F30129
:1013000000811181F8018381948120E733E040E07E
:1013100050E06081CD960E949D06F8018381948102
:1013200020E030E040E050E06281CD960E949D06D2
:10133000F8018381948120E030E040E050E1618158
:10134000CD960E949D0660ED77E080E090E00E94DF
:1013500006078FE492E00E940E05F30101911191BE
:101360003F01F8018381948120E030E040E050E0CB
:101370006181CD960E949D06F8018381948120E0D1
:1013800030E040E050E06281CD960E949D06FFEF84
:10139000CF1ADF0AEF0AFF0A04E0C016D104E10405
:1013A000F10409F088CF0E946E02FDCFE0ECF2E07C
:1013B0001382128288EE93E0A0E0B0E084839583EC
:1013C000A683B78324E032E031832083ECECF2E0A3
:1013D0001382128284839583A683B78386E192E089
:1013E0009183808385EC90E09587848784EC90E0FE
:1013F0009787868780EC90E0918B808B81EC90E0E2
:10140000938B828B82EC90E0958B848B86EC90E0C2
:10141000978B868B118E128E138E148E60E689E662
:1014200093E00E94D90660E687EA93E00C94D9061F
:10143000A1E21A2EAA1BBB1BFD010DC0AA1FBB1FD8
:10144000EE1FFF1FA217B307E407F50720F0A21B4A
:10145000B30BE40BF50B661F771F881F991F1A94B7
:1014600069F760957095809590959B01AC01BD01E1
:10147000CF010895EE0FFF1F881F8BBF0790F691D5
:10148000E02D199481E090E0F8940C94470AF894C8
:02149000FFCF8C
:1014920000000000580428049A01FC0320040C04F4
:1014A200FD030000000005026E019D014C02CE0109
:1014B200AC01C00157616974696E6700436F6E7455
:1014C200696E7565004D6F746F7220003A00537437
:1014D20061727420506F736974696F6E3A200045AF
:1014E2006E6420506F736974696F6E3A20000D0A42
:0214F2000000F8
:00000001FF
