:100000000C943A010C946B010C946B010C946B01F1
:100010000C946B010C946B010C946B010C946B01B0
:100020000C946B010C946B010C946B010C946B01A0
:100030000C946B010C946B010C946B010C946B0190
:100040000C946B010C946B010C946B010C946B0180
:100050000C946B010C946B010C946B010C942303B6
:100060000C946B010C9497030C946D030C946B012E
:100070000C946B010C946B010C946B010C946B0150
:100080000C946B010C946B010C946B010C946B0140
:100090000C946B010C946B010C946B010C946B0130
:1000A0000C946B010C946B010C946B010C946B0120
:1000B0000C946B010C946B010C946B010C946B0110
:1000C0000C946B010C946B010C946B010C946B0100
:1000D0000C946B010C946B010C946B010C946B01F0
:1000E0000C946B0199019C018B018F019301D30149
:1000F000A001A401AA01AE01B201B801BC01C00176
:10010000D301C601CA01CE010C9493010C94E801FD
:100110000C94B8010C9426020C94CE010C94AA0104
:100120000C94A4010C94C6020C94C6010C94D30147
:100130000C94B2010C9499010C943A020C94BC01F9
:100140000C94AE010C947F020C948F010C948B01E3
:100150000C94A0010C94C0010C9448020C94CA01A8
:100160000C941B050C9417020C949C0100002100B8
:10017000240027002A002D00300033000101000078
:10018000040107010A0100002200250028002B00BD
:100190002E003100340002010000050108010B01AE
:1001A00005050505070508080808020202020A0AF3
:1001B0000808040404040101010101010101030311
:1001C000030303030303040707070C0C0C0C0C0CBC
:1001D0000C0C0202020206060606060606060B0BB9
:1001E0000B0B0B0B0B0B01021020200808102040FA
:1001F00010204080020102010804020101020408EB
:100200001020408080402010080402018004020178
:1002100080402010080402010804020101020408C1
:1002200010204080010204081020408000000A0BCA
:1002300002090C0D0E080703040100000000000075
:1002400000000000000000000000000000000000AE
:10025000000000000000000012111000000000006B
:10026000000000000000000000000000000000008E
:1002700000001B0511241FBECFEFD1E2DEBFCDBFB2
:1002800000E00CBF12E0A0E0B2E0EEEAFAE000E02D
:100290000BBF02C007900D92A231B107D9F722E03F
:1002A000A2E1B2E001C01D92AA3BB207E1F711E062
:1002B000CAE3D1E000E006C021970109802FFE01CA
:1002C0000E944805C933D10780E00807A9F70E94BA
:1002D000CD030C9455050C940000CF93C82FE9E38F
:1002E000F2E04491E3EFF1E02491EDEAF1E0949142
:1002F000992309F46BC0442309F455C050E0FA0176
:100300003197E231F10508F04EC08827EE58FF4FD3
:100310008F4F0C944805809180008F7707C08091A3
:1003200080008F7D03C080918000877F8093800054
:100330003AC084B58F7702C084B58F7D84BD33C049
:100340008091B0008F7703C08091B0008F7D809343
:10035000B00029C0809190008F7707C080919000F5
:100360008F7D03C080919000877F809390001BC099
:100370008091A0008F7707C08091A0008F7D03C07F
:100380008091A000877F8093A0000DC03091200154
:100390003F7707C0309120013F7D03C0309120019D
:1003A000377F30932001E92FF0E0EE0FFF1FEA576F
:1003B000FE4FA591B4918FB7F894EC91C11103C091
:1003C00020952E2301C02E2B2C938FBFCF91089503
:1003D000CF92DF92EF92FF920F931F93CF93DF9311
:1003E0006C017A018B01C0E0D0E0CE15DF0589F009
:1003F000D8016D918D01D601ED91FC910190F081B4
:10040000E02DC6011995892B11F47E0102C02196B9
:10041000ECCFC701DF91CF911F910F91FF90EF902B
:10042000DF90CF900895089580E090E00895FC015A
:10043000538D448D252F30E0842F90E0821B930B49
:10044000541710F0CF96089501970895FC01918DEF
:10045000828D981761F0828DDF01A80FB11D5D9626
:100460008C91928D9F5F9F73928F90E008958FEF94
:100470009FEF0895FC01918D828D981731F0828D48
:10048000E80FF11D858D90E008958FEF9FEF08959F
:10049000FC01918D228D892F90E0805C9F4F821B03
:1004A00091098F739927089584E192E00E94480290
:1004B00021E0892B09F420E0822F0895FC01848D2E
:1004C000DF01A80FB11DA35ABF4F2C91848D90E07E
:1004D00001968F739927848FA689B7892C93A08959
:1004E000B1898C9180648C93938D848D981306C010
:1004F0000288F389E02D80818F7D80830895EF92BB
:10050000FF920F931F93CF93DF93EC0181E0888FCD
:100510009B8D8C8D981305C0E889F989808185FDB4
:1005200024C0F62E0B8D10E00F5F1F4F0F731127A5
:10053000E02E8C8DE8120CC00FB607FCFACFE889CC
:10054000F989808185FFF5CFCE010E945E02F1CF4F
:100550008B8DFE01E80FF11DE35AFF4FF0820B8FE8
:10056000EA89FB898081806207C0EE89FF89608308
:10057000E889F98980818064808381E090E0DF915F
:10058000CF911F910F91FF90EF900895CF93DF933C
:10059000EC01888D8823C9F0EA89FB89808185FD7B
:1005A00005C0A889B9898C9186FD0FC00FB607FCDC
:1005B000F5CF808185FFF2CFA889B9898C9185FF1D
:1005C000EDCFCE010E945E02E7CFDF91CF9108957B
:1005D00080E090E0892B21F00E945402811125C017
:1005E00080E090E0892B41F080E090E0892B21F0C1
:1005F0000E94000081111CC080E090E0892B41F036
:1006000080E090E0892B21F00E940000811113C04E
:1006100080E090E0892BA1F080E090E0892B81F0D0
:100620000E94000081110AC008950E940000D8CFE6
:100630000E940000E1CF0E940000EACF0C9400006D
:1006400008950E9450051F920F920FB60F92112429
:100650002F933F938F939F93AF93BF938091B60255
:100660009091B702A091B802B091B9023091B50251
:1006700023E0230F2D3720F40196A11DB11D05C0E5
:1006800026E8230F0296A11DB11D2093B502809389
:10069000B6029093B702A093B802B093B9028091CA
:1006A000B1029091B202A091B302B091B40201964E
:1006B000A11DB11D8093B1029093B202A093B30229
:1006C000B093B402BF91AF919F918F913F912F91C1
:1006D0000F900FBE0F901F9018951F920F920FB69C
:1006E0000F9211240BB60F922F933F934F935F936A
:1006F0006F937F938F939F93AF93BF93EF93FF93EA
:1007000084E192E00E945E02FF91EF91BF91AF9170
:100710009F918F917F916F915F914F913F912F9119
:100720000F900BBE0F900FBE0F901F9018951F9249
:100730000F920FB60F9211240BB60F922F938F9337
:100740009F93EF93FF93E0912402F0912502808123
:10075000E0912A02F0912B0282FD12C090818091DB
:100760002D028F5F8F7320912E02821751F0E0913E
:100770002D02F0E0EC5EFD4F958F80932D0201C0BD
:100780008081FF91EF919F918F912F910F900BBEE0
:100790000F900FBE0F901F901895CF93DF9300D04E
:1007A0001F92CDB7DEB7789484B5826084BD84B5DE
:1007B000816084BD85B5826085BD85B5816085BD5C
:1007C00080916E00816080936E0010928100809114
:1007D000810082608093810080918100816080939C
:1007E0008100809180008160809380008091B100C1
:1007F00084608093B1008091B00081608093B000EC
:10080000809191008260809391008091910081603D
:1008100080939100809190008160809390008091FE
:10082000A10082608093A1008091A10081608093EB
:10083000A1008091A00081608093A000809121019F
:100840008260809321018091210181608093210148
:100850008091200181608093200180917A008460E2
:1008600080937A0080917A00826080937A008091F0
:100870007A00816080937A0080917A00806880930A
:100880007A001092C1001092130210921202E091AD
:100890002402F091250282E08083E0912002F09111
:1008A00021021082E0912202F09123028FEC8083DA
:1008B00010922C02E0912802F091290286E08083B8
:1008C000E0912602F0912702808180618083E0918F
:1008D0002602F0912702808188608083E0912602C1
:1008E000F0912702808180688083E0912602F09158
:1008F000270280818F7D8083E3EFF1E02491EDEA90
:10090000F1E08491882399F090E0880F991FFC0111
:10091000E459FE4FA591B491FC01EA57FE4F859131
:1009200094918FB7F894EC91E22BEC938FBF80E019
:100930000E946D018E010B5F1F4F84E192E00E94C7
:10094000480204970CF474C0809112029091130233
:100950000196909313028093120280FF02C081E0FF
:1009600001C080E00E946D01CE0101967C012FB78D
:10097000F8948091B6029091B702A091B802B0911C
:10098000B9022FBF80931C0290931D02A0931E02F8
:10099000B0931F02E0911402F09115020284F385D6
:1009A000E02D84E192E0199597FD1CC0F701819339
:1009B0007F01E017F107D9F689819A81AB81BC816B
:1009C000880F991FAA1FBB1F89839A83AB83BC839F
:1009D00044E050E0BE016F5F7F4F84E192E00E94EF
:1009E000E80126C02FB7F8948091B6029091B70223
:1009F000A091B802B091B9022FBF40911C02509152
:100A00001D0260911E0270911F02841B950BA60BA4
:100A1000B70B409118025091190260911A0270911F
:100A20001B0284179507A607B70708F4B3CFC4CFF6
:100A30000E94E80282CFE4E1F2E01382128288EEA3
:100A400093E0A0E0B0E084839583A683B78384E03D
:100A500092E09183808385EC90E09587848784EC95
:100A600090E09787868780EC90E0918B808B81EC7B
:100A700090E0938B828B82EC90E0958B848B86EC5C
:100A800090E0978B868B118E128E138E148E0895A4
:100A9000EE0FFF1F881F8BBF0790F691E02D199472
:0E0AA00081E090E0F8940C945505F894FFCF97
:100AAE00000000007F02E8011702C602480226027B
:020ABE003A02FA
:00000001FF
