:100000000C9495000C94C6000C94C6000C94C60089
:100010000C94C6000C94C6000C94C6000C94C60048
:100020000C94C6000C94C6000C94C6000C94C60038
:100030000C94C6000C94C6000C94C6000C94C60028
:100040000C94C6000C94C6000C94C6000C94C60018
:100050000C94C6000C94C6000C94C6000C942203A9
:100060000C94C6000C9482040C9472050C94C60087
:100070000C94C6000C94C6000C94C6000C94C600E8
:100080000C94C6000C94C6000C94C6000C94C600D8
:100090000C94B6040C94B1050C94C6000C94F101B8
:1000A0000C94C6000C94C6000C94C6000C94C600B8
:1000B0000C94C6000C94C6000C94C6000C94C600A8
:1000C0000C94C6000C94C6000C94C6000C94EA0470
:1000D0000C94F0050C94C6000C941E050C942F068D
:1000E0000C94C6000C94C4010C9445010C94CA00F5
:1000F0000C9451050C946E060C9454010C94250438
:100100000C9429010C94CE030C94DE030C94FA0396
:100110000C944D070C9455010C9431010C948501FD
:100120000C941A04CA00C4016E0611241FBECFEF3E
:10013000D1E2DEBFCDBF00E00CBF12E0A0E0B2E034
:10014000EEEFFEE000E00BBF02C007900D92A03280
:10015000B107D9F726E0A0E2B2E001C01D92AD30B0
:10016000B207E1F710E0C5E9D0E000E006C0219752
:100170000109802FFE010E947507C239D10780E076
:100180000807A9F70E9440070C947D070C94000013
:100190000895089560E681E292E00E94E40060E63E
:1001A0008FE592E00E94E40080E292E00C94C800A7
:1001B0008BEC93E00C94CE03FC0114821382158225
:1001C0001282118210820895AF92BF92DF92EF9255
:1001D000FF920F931F93CF93DF931F92CDB7DEB79C
:1001E0008C01D62E7C0185E0E80EF11C5801EDE172
:1001F000AE0EB11CC7010E94DC00F6E0EF0EF11C50
:10020000EA14FB04B9F7F80111A614A610A617A268
:1002100011AE14AE10AE17AA60E4C801CD960E94CC
:100220002601F801D2826D2DCE0101960E94260191
:100230008981F80185AF0F90DF91CF911F910F91C8
:10024000FF90EF90DF90BF90AF900895FC01608326
:1002500008958091CC0290E02091CD02821B9109FB
:1002600008959091CD028091CC02981750F4E92F17
:10027000F0E0E253FD4F208130E09F5F9093CD028C
:1002800002C02FEF3FEFC9010895E091CD028091A8
:10029000CC02E81730F4F0E0E253FD4F808190E0AB
:1002A00008958FEF9FEF08950895CF92DF92EF9218
:1002B000FF920F931F93CF93DF937C01262F972FED
:1002C0008A018091A902882391F0C62FD72F6E0151
:1002D000C40ED51ECC15DD0571F06991D701ED91E5
:1002E000FC910190F081E02DC7011995F3CF642FA7
:1002F000822F0E94C801C801DF91CF911F910F91F9
:10030000FF90EF90DF90CF900895CF93DF931F92EF
:10031000CDB7DEB769832091A9022223D1F02091C5
:10032000AA02203240F021E030E0FC013383228336
:1003300080E090E015C08091AB02E82FF0E0E4553A
:10034000FD4F998190838F5F8093AB028093AA02C7
:1003500005C061E0CE0101960E94C80181E090E0F5
:100360000F90DF91CF910895FC011382128288EEE5
:1003700093E0A0E0B0E084839583A683B78384E014
:1003800092E09183808308958DE992E00C94B4010A
:10039000613298F420915B03243089F46093100358
:1003A000FC0122E133E0D9018A2F821B861718F461
:1003B00081918D93F9CF80E0089581E0089582E0E6
:1003C000089585ED8093BC008091BC0084FDFCCF36
:1003D00010925B03089585EC8093BC0010925B0340
:1003E00008951F920F920FB60F9211240BB60F9221
:1003F0002F933F934F935F936F937F938F939F932D
:10040000AF93BF93EF93FF938091B900887F8036BD
:1004100009F49CC068F5883209F45BC090F480311F
:1004200009F454C038F4882309F4F5C0883009F47D
:100430004DC0F5C0883109F44CC0803209F45DC06C
:10044000EEC0803409F468C048F4803309F455C024
:10045000883309F0E4C08093EE02A8C0803509F427
:100460004FC0883509F45DC0883409F0D8C0D5C0C4
:10047000883909F4C6C0A8F4883709F467C038F48D
:10048000883609F463C0803709F460C0C8C0883872
:1004900009F4B7C0803909F45FC0803809F0BFC0E3
:1004A0005BC0803B09F485C038F4803A09F466C02B
:1004B000883A09F47EC0B3C0803C09F4A6C0883CE9
:1004C00009F4A3C0883B09F489C0A9C080915A03EC
:1004D00010C09091330380913203981770F5E0912A
:1004E000330381E08E0F80933303F0E0EC5CFC4F2C
:1004F00080818093BB0085EC85C08093EE028DC027
:10050000E091330381E08E0F809333038091BB0031
:10051000F0E0EC5CFC4F80839091330380913203D8
:100520006DC0E091330381E08E0F8093330380919F
:10053000BB00F0E0EC5CFC4F80838091590381119B
:100540006CC081E08093580384EA60C083E08093AC
:100550005B031092EF02CFCF8091EF02803208F060
:1005600050C0E091EF0281E08E0F8093EF02809106
:10057000BB00F0E0E051FD4F8083BDCF8091EF02E2
:10058000803230F4E091EF02F0E0E051FD4F108254
:100590000E94E1016091EF0270E0E0915403F0915C
:1005A000550380EF92E019951092EF020E94EB0143
:1005B00036C084E080935B03109211031092100305
:1005C000E0915603F0915703199580911003811122
:1005D00005C081E08093100310921203E091110393
:1005E00081E08E0F80931103F0E0EE5EFC4F80817E
:1005F0008093BB009091110380911003981708F429
:100600007ACF85E88093BC000AC085EC8093BC005B
:1006100010925B0304C01092EE020E94E101FF9170
:10062000EF91BF91AF919F918F917F916F915F916A
:100630004F913F912F910F900BBE0F900FBE0F90D7
:100640001F9018951F920F920FB60F9211242F939F
:100650003F938F939F93AF93BF9380915D0390914E
:100660005E03A0915F03B091600330915C0323E0CF
:10067000230F2D3720F40196A11DB11D05C026E8DA
:10068000230F0296A11DB11D20935C0380935D038F
:1006900090935E03A0935F03B09360038091610326
:1006A00090916203A0916303B09164030196A11D30
:1006B000B11D8093610390936203A0936303B09391
:1006C0006403BF91AF919F918F913F912F910F90B4
:1006D0000FBE0F901F901895789484B5826084BDEA
:1006E00084B5816084BD85B5826085BD85B5816036
:1006F00085BDEEE6F0E0808181608083E1E8F0E096
:100700001082808182608083808181608083E0E8C4
:10071000F0E0808181608083E1EBF0E080818460A3
:100720008083E0EBF0E0808181608083E1E9F0E0AC
:10073000808182608083808181608083E0E9F0E055
:10074000808181608083E1EAF0E080818260808343
:10075000808181608083E0EAF0E080818160808335
:10076000E1E2F1E08081826080838081816080832A
:10077000E0E2F1E0808181608083EAE7F0E080815F
:1007800084608083808182608083808181608083B7
:100790008081806880831092C1000895FC012485C7
:1007A0003585F901E05CFF4F80819181329620818F
:1007B0003181821B930B8F7399270895DC011C965E
:1007C000ED91FC911D97DF01A05CBF4F2D913C91F5
:1007D000119712968D919C9111972817390739F02E
:1007E0008D919C91E80FF91F808190E008958FEF23
:1007F0009FEF0895FC01A485B585FD01E05CFF4FE6
:10080000208131813296808191812817390779F0D2
:1008100080819181A80FB91F8C91208131812F5F38
:100820003F4F2F7333273183208390E008958FEF5C
:100830009FEF0895FC0181A1882329F0A489B5893F
:100840008C9186FFFBCF11A208950F931F93CF9336
:10085000DF93FC01A685B7858D01005C1F4FE80181
:100860008881998101968F739927AD014E5B5F4F07
:10087000EA012881398182179307D1F3E8012881A1
:100880003981A20FB31F6C93A685B785A05CBF4FBB
:1008900011969C938E93A689B7892C9181E090E064
:1008A000078C02C0880F991F0A94E2F7822B8C9361
:1008B00081E081A30488F589E02D808180648083B4
:1008C00081E090E0DF91CF911F910F910895FB019E
:1008D000E05CFF4F208131812F5F3F4F2F73332723
:1008E000DB01AE5BBF4F4D915C912417350741F0A2
:1008F00040815181DB01A40FB51F8C93318320838C
:10090000089508951F920F920FB60F9211240BB6FF
:100910000F922F933F934F935F936F937F938F9398
:100920009F93AF93BF93EF93FF938091C00082FD9D
:1009300007C08091C60069EC75E00E94670402C0A0
:100940008091C600FF91EF91BF91AF919F918F91E0
:100950007F916F915F914F913F912F910F900BBEBF
:100960000F900FBE0F901F90189508951F920F9231
:100970000FB60F9211240BB60F922F933F934F9304
:100980005F936F937F938F939F93AF93BF93EF93F7
:10099000FF938091C80082FD07C08091CE0061E482
:1009A00075E00E94670402C08091CE00FF91EF9134
:1009B000BF91AF919F918F917F916F915F914F9177
:1009C0003F912F910F900BBE0F900FBE0F901F9075
:1009D000189508951F920F920FB60F9211240BB61F
:1009E0000F922F933F934F935F936F937F938F93C8
:1009F0009F93AF93BF93EF93FF938091D00082FDBD
:100A000007C08091D60069EB74E00E94670402C0C1
:100A10008091D600FF91EF91BF91AF919F918F91FF
:100A20007F916F915F914F913F912F910F900BBEEE
:100A30000F900FBE0F901F90189508951F920F9260
:100A40000FB60F9211240BB60F922F933F934F9333
:100A50005F936F937F938F939F93AF93BF93EF9326
:100A6000FF938091300182FD07C08091360161E3E0
:100A700074E00E94670402C080913601FF91EF91FB
:100A8000BF91AF919F918F917F916F915F914F91A6
:100A90003F912F910F900BBE0F900FBE0F901F90A4
:100AA00018958BEC93E00E94CE03892B11F00E94E5
:100AB000810489EA93E00E94CE03892B11F00E9401
:100AC000B50487E893E00E94CE03892B11F00E94C1
:100AD000E90485E693E00E94CE03892B11F00C9483
:100AE0001D0508951F920F920FB60F9211240BB699
:100AF0000F922F933F938F939F93EF93FF932091A8
:100B0000C5053091C6058091C7059091C805281785
:100B1000390731F48091C1008F7D8093C10014C0EA
:100B2000E091C705F091C805EB57FA4F20818091FD
:100B3000C7059091C80501968F7399279093C805B2
:100B40008093C7052093C600FF91EF919F918F91ED
:100B50003F912F910F900BBE0F900FBE0F901F90E3
:100B600018951F920F920FB60F9211240BB60F9289
:100B70002F933F938F939F93EF93FF9320913D0586
:100B800030913E0580913F05909140052817390727
:100B900031F48091C9008F7D8093C90014C0E09129
:100BA0003F05F0914005E350FB4F208180913F05C8
:100BB0009091400501968F739927909340058093FB
:100BC0003F052093CE00FF91EF919F918F913F9130
:100BD0002F910F900BBE0F900FBE0F901F90189586
:100BE0001F920F920FB60F9211240BB60F922F93F4
:100BF0003F938F939F93EF93FF932091B504309190
:100C0000B6048091B7049091B8042817390731F4DD
:100C10008091D1008F7D8093D10014C0E091B70402
:100C2000F091B804EB58FB4F20818091B70490916C
:100C3000B80401968F7399279093B8048093B704F2
:100C40002093D600FF91EF919F918F913F912F912B
:100C50000F900BBE0F900FBE0F901F9018951F9214
:100C60000F920FB60F9211240BB60F922F933F9352
:100C70008F939F93EF93FF9320912D0430912E0437
:100C800080912F04909130042817390731F4809116
:100C900031018F7D8093310114C0E0912F04F091D8
:100CA0003004E351FC4F208180912F049091300457
:100CB00001968F7399279093300480932F0420938B
:100CC0003601FF91EF919F918F913F912F910F905E
:100CD0000BBE0F900FBE0F901F901895CF92DF9212
:100CE000EF92FF92EBECF3E01382128288EEC82EB3
:100CF00083E0D82EE12CF12CC482D582E682F782E3
:100D000064E172E07183608389EC95E09587848764
:100D100085E895E09787868785EC90E0918B808BBE
:100D200084EC90E0938B828B80EC90E0958B848BAD
:100D300081EC90E0978B868B82EC90E0918F808F96
:100D400086EC90E0938F828F44E0448F33E0358FC0
:100D500027E0268F95E0978F81E080A3E9EAF3E012
:100D600013821282C482D582E682F7827183608305
:100D7000A1E4B5E0B587A487ADEFB4E0B787A68757
:100D8000ADECB0E0B18BA08BACECB0E0B38BA28B40
:100D9000A8ECB0E0B58BA48BA9ECB0E0B78BA68B28
:100DA000AAECB0E0B18FA08FAEECB0E0B38FA28F11
:100DB000448F358F268F978F80A3E7E8F3E0138267
:100DC0001282C482D582E682F78271836083A9EBA6
:100DD000B4E0B587A487A5E7B4E0B787A687A5EDFB
:100DE000B0E0B18BA08BA4EDB0E0B38BA28BA0EDF3
:100DF000B0E0B58BA48BA1EDB0E0B78BA68BA2EDD4
:100E0000B0E0B18FA08FA6EDB0E0B38FA28F448F7A
:100E1000358F268F978F80A3E5E6F3E01382128249
:100E2000C482D582E682F7827183608361E374E0D5
:100E3000758764876DEE73E07787668765E371E099
:100E4000718B608B64E371E0738B628B60E371E0A4
:100E5000758B648B61E371E0778B668B62E371E085
:100E6000718F608F66E371E0738F628F448F358F6F
:100E7000268F978F80A3FF90EF90DF90CF900895FB
:100E80000E946C030E94C900C1E5D5E00E94D80011
:100E90002097E1F30E945105F9CFCF92DF92EF92B4
:100EA000FF920F931F93CF93DF936C01EB017B01B4
:100EB000E40EF51E00E010E0CE15DF0561F069914B
:100EC000D601ED91FC910190F081E02DC6011995BC
:100ED000080F191FF1CFC801DF91CF911F910F911A
:100EE000FF90EF90DF90CF900895EE0FFF1F881FC7
:0E0EF0008BBF0790F691E02D1994F894FFCF78
:100EFE000000000085015501290131014501540111
:100F0E000000000025044D07CE03FA03DE031A0489
:00000001FF
