:100000000C9449010C947A010C947A010C947A01B5
:100010000C947A010C947A010C947A010C947A0174
:100020000C947A010C947A010C947A010C947A0164
:100030000C947A010C947A010C947A010C947A0154
:100040000C947A010C947A010C947A010C947A0144
:100050000C947A010C947A010C947A010C94910816
:100060000C947A010C94A60A0C94960B0C947A01C9
:100070000C947A010C947A010C947A010C947A0114
:100080000C947A010C947A010C947A010C947A0104
:100090000C94DA0A0C94D50B0C947A010C94A206F9
:1000A0000C947A010C947A010C947A010C947A01E4
:1000B0000C947A010C947A010C947A010C947A01D4
:1000C0000C947A010C947A010C947A010C940E0B26
:1000D0000C94140C0C947A010C94420B0C94530C59
:1000E0000C947A01EA07ED07E007E4072408F1071A
:1000F000F507FB07FF07030809080D081108240886
:1001000017081B081F080C94ED070C9448050C9465
:1001100011080C9418050C940D080C94C1050C944E
:10012000F4040C9408050C941B080C9488090C9496
:10013000F5070C94FB070C94E4070C941F080C942F
:10014000F2090C94EA070C941E0A0C94750B0C949B
:10015000FF070C943E0A0C94F2010C94020A0C94D2
:10016000E0070C9403080C941A0D0C9417080C94D7
:10017000EC040C9424080C9409080C9417050C94B6
:10018000F1070C94490A0000090A02080B0C0D073C
:100190000603040100000000000000000000000051
:1001A000000000000000000000000000000000004F
:1001B000000011100F00000000000000000000000F
:1001C00000000000000000000000000001021020FC
:1001D000200808102040102040800201020108047D
:1001E0000201010204081020408080402010080411
:1001F000020180040201804020100804020108046A
:1002000002010102040810204080010204081020AD
:1002100040800505050507050808080802020202D6
:100220000A0A080804040404010101010101010192
:100230000303030303030303040707070C0C0C0C5D
:100240000C0C0C0C02020202060606060606060646
:100250000B0B0B0B0B0B0B0B0000220025002800D7
:100260002B002E00310034000201000005010801BE
:100270000B0100002100240027002A002D0030007F
:10028000330001010000040107010A01F201C10568
:100290001A0D11241FBECFEFD1E2DEBFCDBF00E0AB
:1002A0000CBF12E0A0E0B2E0ECE0F1E200E00BBF36
:1002B00002C007900D92AA34B107D9F726E0AAE44C
:1002C000B2E001C01D92A330B207E1F711E0C9E42A
:1002D000D1E000E006C021970109802FFE010E94B5
:1002E0007C10C634D10780E00807A9F70E94EC0D06
:1002F0000C9484100C940000CF92DF92EF92FF9246
:100300000F931F93CF93DF93CDB7DEB7EE970FB662
:10031000F894DEBF0FBECDBF61E08DE00E942508DE
:1003200061E6CE0101960E947E038EE3FE013196C6
:10033000A4E5B2E001900D928A95E1F78CE4E82EF5
:1003400082E0F82E670111E0612F84E592E00E94BF
:100350002603F601819391936F011F5F1530A1F77A
:1003600040E050E060E476E084E592E00E94D10253
:100370000CE412E067E3F801819191918F010E94F2
:10038000ED03F2E004351F07A9F764E0F70181915E
:1003900091917F010E94C003F4E5EF16F2E0FF06A1
:1003A000A1F740E855E260E070E081EC93E00E9444
:1003B000920C60E072E081EC93E00E94E009109200
:1003C0004B0210924A02EE960FB6F894DEBF0FBEB3
:1003D000CDBFDF91CF911F910F91FF90EF90DF90F4
:1003E000CF90089560E684E592E00C947E030F932D
:1003F0001F93CF93DF9381EC93E00E94F209892B46
:1004000009F4C3C080914A0290914B0201969093E7
:100410004B0280934A0280FF02C061E001C060E0AD
:100420008DE00E94610881EC93E00E941E0A9927EA
:100430008533910509F492C0ACF48233910509F437
:100440006BC034F4C19709F095C0CCE4D2E05AC037
:100450008333910509F46CC0C49709F08BC0CCE4D8
:10046000D2E072C084369105C9F14CF48136910511
:1004700009F080C00CE412E0C0E0D0E01FC0833778
:10048000910501F18737910509F074C0CCE4D2E001
:1004900061E0899199910E94C00382E0C435D80738
:1004A000B9F773C061E0F801819191918F010E94C9
:1004B000C0032196C430D10509F467C0C0FDF2CF56
:1004C00062E0F1CFCCE4D2E062E0899199910E94A0
:1004D000C003F2E0C435DF07B9F757C00CE412E0FF
:1004E000C0E0D0E0C0FF02C062E001C061E0F801FE
:1004F000819191918F010E94C0032196C430D10552
:1005000089F743C062E3899199910E94ED03F2E07B
:10051000C435DF07B9F739C0CCE4D2E064E689918D
:1005200099910E94ED0382E0C435D807B9F72DC038
:10053000CCE4D2E066E9899199910E94ED03E2E072
:10054000C435DE07B9F721C068EC899199910E9402
:10055000ED03F2E0C435DF07B9F717C0CCE4D2E011
:100560006AEF899199910E94ED0382E0C435D80722
:10057000B9F70BC0CCE4D2E064E0899199910E9474
:10058000C003E2E0C435DE07B9F7DF91CF911F91D8
:100590000F91089520E030E040E050E0CD960C94BB
:1005A0003204EF92FF920F931F93CF93DF93EC01EE
:1005B0007B014115510529F482E992E099838883F2
:1005C00002C059834883888199810E9487058E01E2
:1005D000035C1F4FC8010E942604FC82EB82B70116
:1005E00080E090E00E94070FAB01BC01C8010E94AF
:1005F0009704C0E020E030E040E050E06C2FC801FC
:100600000E943204CF5FC031A9F7DF91CF911F91D3
:100610000F91FF90EF9008959A01CD96211540E13A
:10062000340728F020E030E040E050E102C040E034
:1006300050E00C943204411102C00C94CA0220E034
:1006400030E040E050E1CD960C943204CF93DF933C
:10065000653008F046C06150A62FB0E0FC0156E0BE
:10066000659FE00DF11D1124528551112FC0628745
:1006700091878087662351F0613061F0623071F0BC
:10068000633079F426E035E047E00BC029E03AE03A
:1006900048E007C02CE03BE04DE003C023E034E03D
:1006A00042E056E05A9FF0015B9FF00D1124E80FE5
:1006B000F91F4583BD016F5F7F4F569FE001579F34
:1006C000D00D1124C80FD91F3883278346E04A9FD5
:1006D00090014B9F300D11242B5F3F4F820F931FD2
:1006E00002C080E090E0DF91CF910895FC01148278
:1006F000138215821282118210820895AF92BF92E6
:10070000DF92EF92FF920F931F93CF93DF931F928D
:10071000CDB7DEB78C01D62E7C0185E0E80EF11C4A
:100720005801EDE1AE0EB11CC7010E947603F6E060
:10073000EF0EF11CEA14FB04B9F7F80111A614A698
:1007400010A617A211AE14AE10AE17AA60E4C8012D
:10075000CD960E94FE03F801D2826D2DCE01019646
:100760000E94FE038981F80185AF0F90DF91CF9140
:100770001F910F91FF90EF90DF90BF90AF90089581
:10078000CF93DF93EC01623061F06430B9F06130F7
:1007900009F56A818B819C810E94CA0241E06981CE
:1007A00007C069818B819C810E94CA0241E06A81F5
:1007B0008B819C81DF91CF910C941B0369818B818C
:1007C0009C810E94CA026A818B819C81DF91CF91BA
:1007D0000C94CA02DF91CF91089520E1629FA0019D
:1007E0001124FC016081838194810C940C03DC0151
:1007F000ED91FC910190F081E02D1994FC01608352
:1008000008951F93CF93DF931F92CDB7DEB7162FB6
:10081000FC01608182E992E049830E94A105612F79
:1008200082E992E00E9448054981642F82E992E0C2
:100830000E94480582E992E00F90DF91CF911F91CD
:100840000C94BE0540E060E00C940104CF93DF936C
:10085000EC0182E992E00E948705CE01DF91CF9101
:100860000C942204FF920F931F93CF93DF931F9258
:100870001F92CDB7DEB7062F152FF32EFC01608136
:1008800082E992E02A8349830E94A105F4E00F9F48
:10089000C0011124BC016A5F7F4F82E992E00E948F
:1008A00048054981642F712F82E992E00E94F70385
:1008B000612F70E082E992E00E94F7032A81622FA3
:1008C0007F2D82E992E00E94F7036F2D70E082E9AC
:1008D00092E00E94F70382E992E00F900F90DF917F
:1008E000CF911F910F91FF900C94BE051F93CF9352
:1008F000DF93EC01162F688182E992E00E94A10546
:10090000612F82E992E00E94480582E992E00E940C
:10091000BE0541E0688182E992E00E949E0582E97D
:1009200092E00E94F404DF91CF911F910895CF923D
:10093000DF92EF92FF921F93CF93DF93EC01CB01F5
:10094000BA0126E636E646E65FE30E94ED0F9B011C
:10095000AC0160E27CEB8EEB95E40E94660E20E039
:1009600030E040E85FE30E94F90D20E030E040E035
:100970005FE30E94FA0D0E94440F6B017C0160E06E
:10098000CE010E947604182F482F4F76406160E018
:10099000CE010E940104C701B6010E94D80E462F65
:1009A0006EEFCE010E940104412F60E0CE010E9453
:1009B000010465E070E080E090E00E940009412FB2
:1009C000416A60E0CE01DF91CF911F91FF90EF90DF
:1009D000DF90CF900C9401048091C20290E02091AE
:1009E000C302821B910908959091C3028091C202B3
:1009F000981750F4E92FF0E0EC53FD4F208130E0E0
:100A00009F5F9093C30202C02FEF3FEFC90108958B
:100A1000E091C3028091C202E81730F4F0E0EC5399
:100A2000FD4F808190E008958FEF9FEF0895089526
:100A3000CF92DF92EF92FF920F931F93CF93DF93AA
:100A40007C01262F972F8A0180919E02882391F0A6
:100A5000C62FD72F6E01C40ED51ECC15DD0571F043
:100A60006991D701ED91FC910190F081E02DC701D2
:100A70001995F3CF642F822F0E947906C801DF9168
:100A8000CF911F910F91FF90EF90DF90CF9008953D
:100A9000CF93DF931F92CDB7DEB7698320919E027B
:100AA0002223D1F020919F02203240F021E030E05B
:100AB000FC013383228380E090E015C08091A00286
:100AC000E82FF0E0EF55FD4F998190838F5F809381
:100AD000A00280939F0205C061E0CE0101960E94B2
:100AE000790681E090E00F90DF91CF910895FC01AD
:100AF0001382128288EE93E0A0E0B0E084839583B5
:100B0000A683B7838DE292E091838083089510924B
:100B1000C3021092C2021092A00210929F020C9483
:100B2000C505862F413208F040E264EC72E00E9475
:100B3000E3051092C3028093C202089521E00C9451
:100B4000910581E080939E026093C1021092A00201
:100B500010929F0208950F93062F21E040919F026B
:100B600061EA72E08091C1020E9427061092A00201
:100B700010929F0210929E020F91089561E00C94D2
:100B8000AB0582E992E00C9477051092510381E065
:100B900080934F0310924E0361E084E10E9461084C
:100BA00061E085E10E946108E9EBF0E080818E7FE1
:100BB000808380818D7F808388E48093B80085E482
:100BC0008093BC000895413208F03FC090915103DA
:100BD0009111FCCF91E09093510320934F032FEF9D
:100BE0002093E40210922903240F2093280390936A
:100BF000500390915003880F892B8093500380916C
:100C00004E03813041F410924E0380915003809343
:100C1000BB0085EC01C085EE8093BC008091510340
:100C20008130E1F380912903841710F44091290366
:100C30002AE233E0FB01D9018A2F821B841718F4C2
:100C40008D918193F9CF842F089580E008950F93BB
:100C5000413208F046C0909151039111FCCF32E02F
:100C60003093510300934F033FEF3093E40210920F
:100C7000290340932803FB016AE273E0DB013A2F6A
:100C8000361B341718F431913D93F9CF109250036D
:100C900030915003880F832B8093500380914E0333
:100CA000813041F410924E03809150038093BB0039
:100CB00085EC01C085EE8093BC00222321F0809159
:100CC00051038230D1F38091E4028F3F79F080911B
:100CD000E402803241F08091E402803331F094E00C
:100CE00005C091E003C092E001C093E0892F0F910D
:100CF0000895613298F420915103243089F460936F
:100D00000603FC0128E033E0D9018A2F821B8617F5
:100D100018F481918D93F9CF80E0089581E00895D2
:100D200082E0089585ED8093BC008091BC0084FD35
:100D3000FCCF10925103089585EC8093BC00109273
:100D4000510308951F920F920FB60F9211240BB604
:100D50000F922F933F934F935F936F937F938F9354
:100D60009F93AF93BF93EF93FF938091B900887FD8
:100D7000803609F49CC068F5883209F45BC090F4B1
:100D8000803109F454C038F4882309F4F5C0883060
:100D900009F44DC0F5C0883109F44CC0803209F423
:100DA0005DC0EEC0803409F468C048F4803309F4B3
:100DB00055C0883309F0E4C08093E402A8C08035B0
:100DC00009F44FC0883509F45DC0883409F0D8C0F3
:100DD000D5C0883909F4C6C0A8F4883709F467C0BB
:100DE00038F4883609F463C0803709F460C0C8C09D
:100DF000883809F4B7C0803909F45FC0803809F039
:100E0000BFC05BC0803B09F485C038F4803A09F468
:100E100066C0883A09F47EC0B3C0803C09F4A6C01D
:100E2000883C09F4A3C0883B09F489C0A9C080911B
:100E3000500310C09091290380912803981770F5F2
:100E4000E091290381E08E0F80932903F0E0E65DB5
:100E5000FC4F80818093BB0085EC85C08093E402C9
:100E60008DC0E091290381E08E0F8093290380914A
:100E7000BB00F0E0E65DFC4F8083909129038091F8
:100E800028036DC0E091290381E08E0F8093290330
:100E90008091BB00F0E0E65DFC4F808380914F03C2
:100EA00081116CC081E080934E0384EA60C083E0CE
:100EB000809351031092E502CFCF8091E5028032FA
:100EC00008F050C0E091E50281E08E0F8093E502CA
:100ED0008091BB00F0E0EA51FD4F8083BDCF80914F
:100EE000E502803230F4E091E502F0E0EA51FD4F96
:100EF00010820E9492066091E50270E0E0914A0340
:100F0000F0914B0386EE92E019951092E5020E9453
:100F10009C0636C084E08093510310920703109220
:100F20000603E0914C03F0914D031995809106035F
:100F3000811105C081E08093060310920803E091BF
:100F4000070381E08E0F80930703F0E0E85FFC4F1A
:100F500080818093BB0090910703809106039817CE
:100F600008F47ACF85E88093BC000AC085EC8093B2
:100F7000BC001092510304C01092E4020E94920639
:100F8000FF91EF91BF91AF919F918F917F916F9161
:100F90005F914F913F912F910F900BBE0F900FBE1D
:100FA0000F901F90189590E0FC013197E131F10509
:100FB00008F04AC08827EE58FF4F8F4F0C947C10E2
:100FC000809180008F7703C0809180008F7D809317
:100FD0008000089584B58F7702C084B58F7D84BD6D
:100FE00008958091B0008F7703C08091B0008F7D0D
:100FF0008093B0000895809190008F7707C0809112
:1010000090008F7D03C080919000877F8093900037
:1010100008958091A0008F7707C08091A0008F7DF8
:1010200003C08091A000877F8093A00008958091E5
:1010300020018F7707C0809120018F7D03C08091B0
:101040002001877F809320010895CF93DF9390E064
:10105000FC01E453FE4F2491FC01EE5EFD4F8491B0
:10106000882361F190E0880F991FFC01EE58FD4F35
:10107000C591D491FC01E85AFD4FA591B49161113D
:1010800009C09FB7F8948881209582238883EC91CA
:101090002E230BC0623061F49FB7F8943881822F01
:1010A000809583238883EC912E2B2C939FBF06C0C1
:1010B0008FB7F894E8812E2B28838FBFDF91CF91D3
:1010C00008951F93CF93DF93282F30E0F901EA575B
:1010D000FE4F8491F901E453FE4FD491F901EE5E85
:1010E000FD4FC491CC23C9F0162F81110E94D30764
:1010F000EC2FF0E0EE0FFF1FE85AFD4FA591B491E1
:101100008FB7F894111105C09C91ED2FE095E9235C
:1011100002C0EC91ED2BEC938FBFDF91CF911F912B
:1011200008951F920F920FB60F9211242F933F93A1
:101130008F939F93AF93BF938091530390915403E8
:10114000A0915503B09156033091520323E0230F31
:101150002D3720F40196A11DB11D05C026E8230FEF
:101160000296A11DB11D20935203809353039093C7
:101170005403A0935503B093560380915703909165
:101180005803A0915903B0915A030196A11DB11DB6
:101190008093570390935803A0935903B0935A0335
:1011A000BF91AF919F918F913F912F910F900FBE63
:1011B0000F901F9018953FB7F89480915703909126
:1011C0005803A0915903B0915A0326B5A89B05C0B6
:1011D0002F3F19F00196A11DB11D3FBFBA2FA92FB6
:1011E000982F8827820F911DA11DB11DBC01CD0133
:1011F00042E0660F771F881F991F4A95D1F708951F
:10120000CF92DF92EF92FF92CF93DF936B017C013D
:101210000E94DB08EB01C114D104E104F10479F070
:101220000E94DB086C1B7D0B683E7340A0F381E0DD
:10123000C81AD108E108F108C851DC4FECCFDF91A2
:10124000CF91FF90EF90DF90CF900895789484B580
:10125000826084BD84B5816084BD85B5826085BDB2
:1012600085B5816085BDEEE6F0E080818160808398
:10127000E1E8F0E01082808182608083808181607B
:101280008083E0E8F0E0808181608083E1EBF0E042
:10129000808184608083E0EBF0E0808181608083E6
:1012A000E1E9F0E0808182608083808181608083D9
:1012B000E0E9F0E0808181608083E1EAF0E0808114
:1012C00082608083808181608083E0EAF0E08081B9
:1012D00081608083E1E2F1E08081826080838081AF
:1012E00081608083E0E2F1E0808181608083EAE7D1
:1012F000F0E080818460808380818260808380814F
:10130000816080838081806880831092C10008950D
:10131000CF92DF92EF92FF920F931F93CF93DF93C1
:101320006C01EB017B01E40EF51E00E010E0CE1530
:10133000DF0561F06991D601ED91FC910190F0819A
:10134000E02DC6011995080F191FF1CFC801DF91D3
:10135000CF911F910F91FF90EF90DF90CF90089564
:101360006115710579F0FB0101900020E9F73197D3
:10137000AF01461B570BDC01ED91FC910280F3811C
:10138000E02D199480E090E00895DC01ED91FC914E
:101390000190F081E02D19940F931F93CF93DF9369
:1013A000EC016DE00E94C5098C016AE0CE010E944B
:1013B000C509800F911FDF91CF911F910F91089563
:1013C0000F931F93CF93DF93EC010E94B0098C0120
:1013D000CE010E94CC09800F911FDF91CF911F9108
:1013E0000F910895FC0124853585F901E05CFF4FDC
:1013F00080819181329620813181821B930B8F7382
:1014000099270895DC011C96ED91FC911D97DF0151
:10141000A05CBF4F2D913C91119712968D919C919C
:1014200011972817390739F08D919C91E80FF91F12
:10143000808190E008958FEF9FEF0895FC01A485CF
:10144000B585FD01E05CFF4F2081318132968081BE
:1014500091812817390779F080819181A80FB91FF0
:101460008C91208131812F5F3F4F2F733327318340
:10147000208390E008958FEF9FEF0895FC0181A1F4
:10148000882329F0A489B5898C9186FFFBCF11A20E
:1014900008950F931F93CF93DF93FC01A685B78523
:1014A0008D01005C1F4FE8018881998101968F733F
:1014B0009927AD014E5B5F4FEA0128813981821780
:1014C0009307D1F3E80128813981A20FB31F6C93F0
:1014D000A685B785A05CBF4F11969C938E93A68975
:1014E000B7892C9181E090E0078C02C0880F991F8A
:1014F0000A94E2F7822B8C9381E081A30488F5891A
:10150000E02D80818064808381E090E0DF91CF9145
:101510001F910F910895FB01E05CFF4F2081318105
:101520002F5F3F4F2F733327DB01AE5BBF4F4D91D2
:101530005C912417350741F040815181DB01A40FF4
:10154000B51F8C9331832083089508951F920F92C5
:101550000FB60F9211240BB60F922F933F934F9318
:101560005F936F937F938F939F93AF93BF93EF930B
:10157000FF938091C00082FD07C08091C6006FEB91
:1015800075E00E948B0A02C08091C600FF91EF9126
:10159000BF91AF919F918F917F916F915F914F918B
:1015A0003F912F910F900BBE0F900FBE0F901F9089
:1015B000189508951F920F920FB60F9211240BB633
:1015C0000F922F933F934F935F936F937F938F93DC
:1015D0009F93AF93BF93EF93FF938091C80082FDD9
:1015E00007C08091CE0067E375E00E948B0A02C0BD
:1015F0008091CE00FF91EF91BF91AF919F918F911C
:101600007F916F915F914F913F912F910F900BBE02
:101610000F900FBE0F901F90189508951F920F9274
:101620000FB60F9211240BB60F922F933F934F9347
:101630005F936F937F938F939F93AF93BF93EF933A
:10164000FF938091D00082FD07C08091D6006FEAA1
:1016500074E00E948B0A02C08091D600FF91EF9146
:10166000BF91AF919F918F917F916F915F914F91BA
:101670003F912F910F900BBE0F900FBE0F901F90B8
:10168000189508951F920F920FB60F9211240BB662
:101690000F922F933F934F935F936F937F938F930B
:1016A0009F93AF93BF93EF93FF938091300182FD9F
:1016B00007C08091360167E274E00E948B0A02C085
:1016C00080913601FF91EF91BF91AF919F918F91E2
:1016D0007F916F915F914F913F912F910F900BBE32
:1016E0000F900FBE0F901F90189581EC93E00E9411
:1016F000F209892B11F00E94A50A8FE993E00E945C
:10170000F209892B11F00E94D90A8DE793E00E941B
:10171000F209892B11F00E940D0B8BE593E00E94DA
:10172000F209892B11F00C94410B08951F920F922E
:101730000FB60F9211240BB60F922F933F938F93F6
:101740009F93EF93FF932091BB053091BC0580914F
:10175000BD059091BE052817390731F48091C1006D
:101760008F7D8093C10014C0E091BD05F091BE054E
:10177000E558FA4F20818091BD059091BE050196F4
:101780008F7399279093BE058093BD052093C60063
:10179000FF91EF919F918F913F912F910F900BBEF1
:1017A0000F900FBE0F901F9018951F920F920FB6BB
:1017B0000F9211240BB60F922F933F938F939F9309
:1017C000EF93FF93209133053091340580913505D7
:1017D000909136052817390731F48091C9008F7D23
:1017E0008093C90014C0E0913505F0913605ED50A5
:1017F000FB4F2081809135059091360501968F73BE
:10180000992790933605809335052093CE00FF915C
:10181000EF919F918F913F912F910F900BBE0F9061
:101820000FBE0F901F9018951F920F920FB60F9238
:1018300011240BB60F922F933F938F939F93EF93A7
:10184000FF932091AB043091AC048091AD04909152
:10185000AE042817390731F48091D1008F7D809331
:10186000D10014C0E091AD04F091AE04E559FB4FF6
:1018700020818091AD049091AE0401968F739927D9
:101880009093AE048093AD042093D600FF91EF9126
:101890009F918F913F912F910F900BBE0F900FBE94
:1018A0000F901F9018951F920F920FB60F92112450
:1018B0000BB60F922F933F938F939F93EF93FF93CA
:1018C00020912304309124048091250490912604D2
:1018D0002817390731F4809131018F7D80933101D0
:1018E00014C0E0912504F0912604ED51FC4F2081B5
:1018F000809125049091260401968F7399279093E7
:1019000026048093250420933601FF91EF919F9147
:101910008F913F912F910F900BBE0F900FBE0F90A4
:101920001F901895CF92DF92EF92FF920F931F9323
:10193000CF93DF93EC016A017B014115514E6105A4
:10194000710509F1EC89FD8981E090E008A002C0F1
:10195000880F991F0A94E2F7808360E079E08DE3B5
:1019600090E0A70196010E945A1089019A01015046
:101970001109210931093695279517950795980181
:1019800001151041A8F0EC89FD89108260E874E827
:101990008EE190E0A70196010E945A10DA01C90178
:1019A0000197A109B109B695A795979587959C01CF
:1019B000E889F9893083EA89FB89208319A2EE89B5
:1019C000FF89408181E090E09C010C8C02C0220FD5
:1019D000331F0A94E2F7242B2083EE89FF8940818C
:1019E0009C010D8C02C0220F331F0A94E2F7242BB6
:1019F0002083EE89FF8940819C010E8C02C0220F5A
:101A0000331F0A94E2F7242B2083EE89FF8920817B
:101A10000F8C02C0880F991F0A94E2F780958223E9
:101A20008083DF91CF911F910F91FF90EF90DF9016
:101A3000CF900895CF92DF92EF92FF92E1ECF3E026
:101A40001382128288EEC82E83E0D82EE12CF12C6E
:101A5000C482D582E682F7826DE372E0718360838F
:101A60008FEB95E0958784878BE795E0978786874E
:101A700085EC90E0918B808B84EC90E0938B828B53
:101A800080EC90E0958B848B81EC90E0978B868B3B
:101A900082EC90E0918F808F86EC90E0938F828F24
:101AA00044E0448F33E0358F27E0268F95E0978F11
:101AB00081E080A3EFE9F3E013821282C482D58231
:101AC000E682F78271836083A7E3B5E0B587A487D8
:101AD000A3EFB4E0B787A687ADECB0E0B18BA08BE5
:101AE000ACECB0E0B38BA28BA8ECB0E0B58BA48BD0
:101AF000A9ECB0E0B78BA68BAAECB0E0B18FA08FB9
:101B0000AEECB0E0B38FA28F448F358F268F978FC6
:101B100080A3EDE7F3E013821282C482D582E682CD
:101B2000F78271836083AFEAB4E0B587A487ABE640
:101B3000B4E0B787A687A5EDB0E0B18BA08BA4ED8C
:101B4000B0E0B38BA28BA0EDB0E0B58BA48BA1ED80
:101B5000B0E0B78BA68BA2EDB0E0B18FA08FA6ED61
:101B6000B0E0B38FA28F448F358F268F978F80A3DD
:101B7000EBE5F3E013821282C482D582E682F7821B
:101B80007183608367E274E07587648763EE73E056
:101B90007787668765E371E0718B608B64E371E042
:101BA000738B628B60E371E0758B648B61E371E032
:101BB000778B668B62E371E0718F608F66E371E013
:101BC000738F628F448F358F268F978F80A3FF90FE
:101BD000EF90DF90CF9008950E9426090E947C012B
:101BE000C5E7DBE00E94F7012097E1F30E94750B47
:101BF000F9CF5058BB27AA270E94110E0C949B0FB7
:101C00000E948D0F38F00E94940F20F039F49F3F0E
:101C100019F426F40C948A0F0EF4E095E7FB0C946B
:101C20005B0FE92F0E94AC0F58F3BA1762077307D6
:101C30008407950720F079F4A6F50C94E60F0EF4CE
:101C4000E0950B2EBA2FA02D0B01B90190010C01CC
:101C5000CA01A0011124FF27591B99F0593F50F4E4
:101C6000503E68F11A16F040A22F232F342F44273C
:101C7000585FF3CF469537952795A795F040539534
:101C8000C9F77EF41F16BA0B620B730B840BBAF004
:101C90009150A1F0FF0FBB1F661F771F881FC2F76F
:101CA0000EC0BA0F621F731F841F48F48795779583
:101CB0006795B795F7959E3F08F0B0CF9395880F3D
:101CC00008F09927EE0F9795879508950E947A0E50
:101CD0000C949B0F0E94940F58F00E948D0F40F0BF
:101CE00029F45F3F29F00C945B0F51110C94E70F1E
:101CF0000C948A0F0E94AC0F68F39923B1F355231B
:101D000091F3951B550BBB27AA276217730784070E
:101D100038F09F5F5F4F220F331F441FAA1FA9F3A4
:101D200035D00E2E3AF0E0E832D091505040E69592
:101D3000001CCAF72BD0FE2F29D0660F771F881FF3
:101D4000BB1F261737074807AB07B0E809F0BB0BE6
:101D5000802DBF01FF2793585F4F3AF09E3F5105FA
:101D600078F00C945B0F0C94E70F5F3FE4F3983E20
:101D7000D4F3869577956795B795F7959F5FC9F7E3
:101D8000880F911D9695879597F90895E1E0660F64
:101D9000771F881FBB1F621773078407BA0720F0DD
:101DA000621B730B840BBA0BEE1F88F7E095089546
:101DB0000E94B40F88F09F5798F0B92F9927B75118
:101DC000B0F0E1F0660F771F881F991F1AF0BA95DF
:101DD000C9F714C0B13091F00E94E60FB1E0089548
:101DE0000C94E60F672F782F8827B85F39F0B93F3A
:101DF000CCF3869577956795B395D9F73EF4909592
:101E00008095709561957F4F8F4F9F4F0895E8940F
:101E100009C097FB3EF490958095709561957F4F32
:101E20008F4F9F4F9923A9F0F92F96E9BB279395E0
:101E3000F695879577956795B795F111F8CFFAF4F0
:101E4000BB0F11F460FF1BC06F5F7F4F8F4F9F4F21
:101E500016C0882311F096E911C0772321F09EE87F
:101E6000872F762F05C0662371F096E8862F70E0E5
:101E700060E02AF09A95660F771F881FDAF7880FBF
:101E80009695879597F908950E94CE0F90F09F3709
:101E900048F4911116F00C94E70F60E070E080E8D0
:101EA0009FEB089526F41B16611D711D811D0C9476
:101EB000610F0C947C0F97F99F6780E870E060E0F9
:101EC0000895882371F4772321F09850872B762F7B
:101ED00007C0662311F499270DC09051862B70E03E
:101EE00060E02AF09A95660F771F881FDAF7880F4F
:101EF0009695879597F908959F3F31F0915020F47A
:101F0000879577956795B795880F911D96958795D5
:101F100097F908959FEF80EC089500240A9416160F
:101F2000170618060906089500240A9412161306C7
:101F3000140605060895092E0394000C11F4882355
:101F400052F0BB0F40F4BF2B11F460FF04C06F5F71
:101F50007F4F8F4F9F4F089557FD9058440F551F47
:101F600059F05F3F71F04795880F97FB991F61F01B
:101F70009F3F79F087950895121613061406551F92
:101F8000F2CF4695F1DF08C0161617061806991FFE
:101F9000F1CF869571056105089408950E94B40FEC
:101FA000A0F0BEE7B91788F4BB279F3860F4161677
:101FB000B11D672F782F8827985FF7CF8695779583
:101FC0006795B11D93959639C8F30895E894BB279A
:101FD00066277727CB0197F908950E9400100C948B
:101FE0009B0F0E948D0F38F00E94940F20F09523D4
:101FF00011F00C945B0F0C948A0F11240C94E70FD2
:102000000E94AC0F70F3959FC1F3950F50E0551FE0
:10201000629FF001729FBB27F00DB11D639FAA273D
:10202000F00DB11DAA1F649F6627B00DA11D661F8C
:10203000829F2227B00DA11D621F739FB00DA11DAD
:10204000621F839FA00D611D221F749F3327A00D67
:10205000611D231F849F600D211D822F762F6A2F03
:1020600011249F5750409AF0F1F088234AF0EE0F68
:10207000FF1FBB1F661F771F881F91505040A9F795
:102080009E3F510580F00C945B0F0C94E70F5F3F6F
:10209000E4F3983ED4F3869577956795B795F795D1
:1020A000E7959F5FC1F7FE2B880F911D9695879549
:1020B00097F90895A1E21A2EAA1BBB1BFD010DC0C2
:1020C000AA1FBB1FEE1FFF1FA217B307E407F507E8
:1020D00020F0A21BB30BE40BF50B661F771F881FC4
:1020E000991F1A9469F760957095809590959B015A
:1020F000AC01BD01CF010895EE0FFF1F881F8BBFFC
:0C2100000790F691E02D1994F894FFCFA1
:10210C004164616672756974204D6F746F72736887
:10211C0069656C64207632202D204443204D6F7409
:10212C006F7220746573742100000000004805185C
:10213C0005EC04F4040805170500000000490A88A2
:0A214C0009F2091E0A020A3E0A0009
:00000001FF
