:100000000C9447010C9478010C9478010C947801BD
:100010000C9478010C9478010C9478010C9478017C
:100020000C9478010C9478010C9478010C9478016C
:100030000C9478010C9478010C9478010C9478015C
:100040000C9478010C9478010C9478010C9478014C
:100050000C9478010C9478010C9478010C94BD03F5
:100060000C9478010C9431040C9407040C947801DE
:100070000C9478010C9478010C9478010C9478011C
:100080000C9478010C9478010C9478010C9478010C
:100090000C9478010C9478010C9478010C947801FC
:1000A0000C9478010C9478010C9478010C947801EC
:1000B0000C9478010C9478010C9478010C947801DC
:1000C0000C9478010C9478010C9478010C947801CC
:1000D0000C9478010C9478010C9478010C947801BC
:1000E0000C947801A601A90198019C01A001E001EE
:1000F000AD01B101B701BB01BF01C501C901CD010E
:10010000E001D301D701DB010C94D3020C94CD01A3
:100110000C94A9010C94D3010C94DB010C94B10153
:100120000C9498010C94B7010C9447020C94E001D4
:100130000C94C5010C9424020C94BB010C94330262
:100140000C949C010C94BF010C94AD010C945502CD
:100150000C94F5010C94C9010C94A6010C948C022A
:100160000C94D7010C94A0010C944F0600002100C0
:10017000240027002A002D00300033000101000078
:10018000040107010A0100002000230026002900C5
:100190002C002F00320000010000030106010901BC
:1001A00000002200250028002B002E003100340022
:1001B00002010000050108010B0105050505070501
:1001C00008080808020202020A0A080804040404D3
:1001D00001010101010101010303030303030303FF
:1001E000040707070C0C0C0C0C0C0C0C020202028E
:1001F00006060606060606060B0B0B0B0B0B0B0B77
:100200000102102020080810204010204080020128
:10021000020108040201010204081020408080400D
:10022000201008040201800402018040201008040C
:1002300002010804020101020408102040800102AA
:1002400004081020408000000A0B02090C0D0E0863
:10025000070304010000000000000000000000008F
:10026000000000000000000000000000000000008E
:10027000000012111000000000000000000000004B
:100280000000000000000000000000004F061124E4
:100290001FBECFEFD1E2DEBFCDBF00E00CBF12E04A
:1002A000A0E0B2E0ECEBFFE000E00BBF02C0079083
:1002B0000D92AA33B107D9F722E0AAE3B2E001C058
:1002C0001D92AC3EB207E1F711E0C7E4D1E000E0D7
:1002D00006C021970109802FFE010E949E06C634A8
:1002E000D10780E00807A9F70E94AC040C94DC0752
:1002F0000C940000CF93C82FEBE4F2E04491E5E0CA
:10030000F2E02491EFEBF1E09491992309F46BC0B2
:10031000442309F455C050E0FA013197E231F10568
:1003200008F04EC08827EE58FF4F8F4F0C949E0662
:10033000809180008F7707C0809180008F7D03C0FF
:1003400080918000877F809380003AC084B58F774A
:1003500002C084B58F7D84BD33C08091B0008F779B
:1003600003C08091B0008F7D8093B00029C0809140
:1003700090008F7707C0809190008F7D03C080919F
:100380009000877F809390001BC08091A0008F77A2
:1003900007C08091A0008F7D03C08091A000877F5F
:1003A0008093A0000DC0309120013F7707C03091AD
:1003B00020013F7D03C030912001377F3093200121
:1003C000E92FF0E0EE0FFF1FE056FE4FA591B4912C
:1003D0008FB7F894EC91C11103C020952E2301C072
:1003E0002E2B2C938FBFCF910895CF92DF92EF9257
:1003F000FF920F931F93CF93DF936C017A018B01D0
:10040000C0E0D0E0CE15DF0589F0D8016D918D01F7
:10041000D601ED91FC910190F081E02DC601199576
:10042000892B11F47E0102C02196ECCFC701DF9128
:10043000CF911F910F91FF90EF90DF90CF90089593
:10044000089580E090E00895FC01538D448D252FA0
:1004500030E0842F90E0821B930B541710F0CF965E
:10046000089501970895FC01918D828D981761F090
:10047000828DDF01A80FB11D5D968C91928D9F5FDB
:100480009F73928F90E008958FEF9FEF0895FC0186
:10049000918D828D981731F0828DE80FF11D858D39
:1004A00090E008958FEF9FEF0895FC01918D228DCC
:1004B000892F90E0805C9F4F821B91098F73992751
:1004C00008958FE492E00E94550221E0892B09F4FF
:1004D00020E0822F0895FC01848DDF01A80FB11D5B
:1004E000A35ABF4F2C91848D90E001968F7399276A
:1004F000848FA689B7892C93A089B1898C91806457
:100500008C93938D848D981306C00288F389E02D17
:1005100080818F7D80830895EF92FF920F931F93C8
:10052000CF93DF93EC0181E0888F9B8D8C8D9813A6
:1005300005C0E889F989808185FD24C0F62E0B8DE0
:1005400010E00F5F1F4F0F731127E02E8C8DE81204
:100550000CC00FB607FCFACFE889F989808185FFC6
:10056000F5CFCE010E946B02F1CF8B8DFE01E80F1B
:10057000F11DE35AFF4FF0820B8FEA89FB898081DE
:10058000806207C0EE89FF896083E889F9898081EC
:100590008064808381E090E0DF91CF911F910F9183
:1005A000FF90EF900895CF93DF93EC01888D88231F
:1005B000C9F0EA89FB89808185FD05C0A889B989D0
:1005C0008C9186FD0FC00FB607FCF5CF808185FFAB
:1005D000F2CFA889B9898C9185FFEDCFCE010E9419
:1005E0006B02E7CFDF91CF91089580E090E0892BF7
:1005F00021F00E946102811125C080E090E0892BEA
:1006000041F080E090E0892B21F00E9400008111F0
:100610001CC080E090E0892B41F080E090E0892BC5
:1006200021F00E940000811113C080E090E0892B2E
:10063000A1F080E090E0892B81F00E940000811100
:100640000AC008950E940000D8CF0E940000E1CFA8
:100650000E940000EACF0C9400000895009769F012
:10066000FC0101900020E9F73197AF01481B590BBD
:10067000BC018FE492E00C94F50180E090E00895D5
:100680008F929F92AF92BF92CF92DF92EF92FF92A2
:100690000F931F93CF93DF93CDB7DEB7A1970FB61C
:1006A000F894DEBF0FBECDBF6C01990FEE08FF08B6
:1006B000F7FE31C0E0914F02F09150020190F081BD
:1006C000E02D6DE28FE492E019958C01222733270B
:1006D000A9012C193D094E095F0919A2CE01819685
:1006E0007C019AE0892E912CA12CB12CCA01B90170
:1006F000A50194010E947C06605DF70162937F0171
:10070000211531054105510589F7CF010E942E03BE
:10071000800F911F1DC0A701960119A28E010F5DC8
:100720001F4F8AE0C82ED12CE12CF12CCA01B9014F
:10073000A70196010E947C06605DF80162938F011B
:10074000211531054105510589F7CF010E942E037E
:10075000A1960FB6F894DEBF0FBECDBFDF91CF914B
:100760001F910F91FF90EF90DF90CF90BF90AF90CF
:100770009F908F9008950E94D7071F920F920FB6F7
:100780000F9211242F933F938F939F93AF93BF9317
:1007900080914B0290914C02A0914D02B0914E027B
:1007A00030914A0223E0230F2D3720F40196A11D3A
:1007B000B11D05C026E8230F0296A11DB11D20938F
:1007C0004A0280934B0290934C02A0934D02B09347
:1007D0004E028091460290914702A0914802B0914A
:1007E00049020196A11DB11D8093460290934702D4
:1007F000A0934802B0934902BF91AF919F918F910E
:100800003F912F910F900FBE0F901F9018951F9240
:100810000F920FB60F9211240BB60F922F933F93A6
:100820004F935F936F937F938F939F93AF93BF93F8
:10083000EF93FF938FE492E00E946B02FF91EF91A0
:10084000BF91AF919F918F917F916F915F914F91E8
:100850003F912F910F900BBE0F900FBE0F901F90E6
:1008600018951F920F920FB60F9211240BB60F928C
:100870002F938F939F93EF93FF93E0915F02F091FB
:1008800060028081E0916502F091660282FD12C0F3
:100890009081809168028F5F8F7320916902821727
:1008A00051F0E0916802F0E0E15BFD4F958F80939D
:1008B000680201C08081FF91EF919F918F912F91EC
:1008C0000F900BBE0F900FBE0F901F901895CF92F8
:1008D000DF92EF92FF920F931F93E82FF92F05C03D
:1008E000015011092109310961F190819623941772
:1008F000B9F305C0015011092109310911F19081A5
:1009000096239413F7CFC12CD12CE12CF12C0AC0E3
:100910008FEFC81AD80AE80AF80A0C151D052E052B
:100920003F0579F080818623841791F36C2D7D2D0E
:100930008E2D9F2D1F910F91FF90EF90DF90CF9004
:10094000089560E070E080E090E01F910F91FF90CB
:10095000EF90DF90CF900895789484B5826084BD45
:1009600084B5816084BD85B5826085BD85B58160B3
:1009700085BD80916E00816080936E001092810031
:1009800080918100826080938100809181008160EC
:1009900080938100809180008160809380008091AD
:1009A000B10084608093B1008091B0008160809339
:1009B000B0008091910082608093910080919100BD
:1009C000816080939100809190008160809390007D
:1009D0008091A10082608093A1008091A10081603C
:1009E0008093A1008091A00081608093A0008091FD
:1009F0002101826080932101809121018160809397
:100A000021018091200181608093200180917A00F2
:100A1000846080937A0080917A00826080937A006B
:100A200080917A00816080937A0080917A0080685A
:100A300080937A001092C100E5E0F2E02491EFEBA0
:100A4000F1E08491882399F090E0880F991FFC01D0
:100A5000E459FE4FA591B491FC01E056FE4F8591FB
:100A600094918FB7F894EC91E22BEC938FBFE6E072
:100A7000F2E02491E0ECF1E084918823C1F090E071
:100A8000880F991FFC01E459FE4FC591D491FC01D8
:100A9000E056FE4FA591B4919FB7F8948881E22F5C
:100AA000E0958E2388838C91E823EC939FBFE0919F
:100AB0005F02F091600282E08083E0915B02F0913E
:100AC0005C021082E0915D02F0915E028FEC808307
:100AD00010926702E0916302F091640286E08083E5
:100AE000E0916102F0916202808180618083E091F7
:100AF0006102F0916202808188608083E0916102EE
:100B0000F0916202808180688083E0916102F091BF
:100B1000620280818F7D8083C3E0D0E093E2A92EC2
:100B2000B12C26E0222E22E0322E30EC832E31E052
:100B3000932E80E00E947A01CE010197F1F781E0C7
:100B40000E947A01C5010197F1F780E00E947A01C5
:100B5000F1016491F4018491E82FF0E0EE0FFF1FA2
:100B6000EA57FE4F8591949100E412E42FE030E0C3
:100B7000462F0E946704611571058105910549F0B2
:100B8000DC01CB010196A11DB11DBC01CD019F70FF
:100B900003C060E070E0CB016093420270934302B7
:100BA00080934402909345020E94DE062B013C0193
:100BB00026E933E44BE05DE30E94420720E030E0A9
:100BC00040E05FE30E9442076B017C010E94A606A1
:100BD000709341026093400220E030E040E251E433
:100BE000C701B6010E9442070E94A60670933F0209
:100BF00060933E0220E030E048E453E4C701B601D0
:100C00000E9442070E94A60670933D0260933C0238
:100C10002EE338EE49E55CE3C301B2010E944207CE
:100C200020E030E040E05FE30E9442070E94A60619
:100C300070933B0260933A0282E192E00E942E039D
:100C400080913C0290913D020E9440038DE192E030
:100C50000E942E0380913E0290913F020E94400329
:100C600086E292E00E942E03809140029091410220
:100C70000E9440038CE292E00E942E0380913A028F
:100C800090913B020E94400382E392E00E942E0377
:100C900086E392E00E942E030E94F5024ACFEFE421
:100CA000F2E01382128288EE93E0A0E0B0E0848349
:100CB0009583A683B78384E092E09183808385EC5B
:100CC00090E09587848784EC90E09787868780EC16
:100CD00090E0918B808B81EC90E0938B828B82EC07
:100CE00090E0958B848B86EC90E0978B868B118EB1
:100CF000128E138E148E0895A1E21A2EAA1BBB1B0E
:100D0000FD010DC0AA1FBB1FEE1FFF1FA217B307D7
:100D1000E407F50720F0A21BB30BE40BF50B661FED
:100D2000771F881F991F1A9469F7609570958095B1
:100D300090959B01AC01BD01CF010895EE0FFF1FFF
:100D4000881F8BBF0790F691E02D19940E94AD0685
:100D50006894B1110C943C0708950E94210788F013
:100D60009F5798F0B92F9927B751B0F0E1F0660F6F
:100D7000771F881F991F1AF0BA95C9F714C0B130B0
:100D800091F00E943B07B1E008950C943B07672F58
:100D9000782F8827B85F39F0B93FCCF386957795DF
:100DA0006795B395D9F73EF49095809570956195C8
:100DB0007F4F8F4F9F4F0895E89409C097FB3EF4F3
:100DC00090958095709561957F4F8F4F9F4F992398
:100DD000A9F0F92F96E9BB279395F6958795779516
:100DE0006795B795F111F8CFFAF4BB0F11F460FFD6
:100DF0001BC06F5F7F4F8F4F9F4F16C0882311F02E
:100E000096E911C0772321F09EE8872F762F05C041
:100E1000662371F096E8862F70E060E02AF09A95DC
:100E2000660F771F881FDAF7880F9695879597F9D1
:100E3000089557FD9058440F551F59F05F3F71F0CA
:100E40004795880F97FB991F61F09F3F79F0879531
:100E50000895121613061406551FF2CF4695F1DFBA
:100E600008C0161617061806991FF1CF869571054A
:100E7000610508940895E894BB2766277727CB017E
:100E800097F908950E9455070C94C6070E94B80769
:100E900038F00E94BF0720F0952311F00C94AF07A3
:100EA0000C94B50711240C943C070E94190770F3A9
:100EB000959FC1F3950F50E0551F629FF001729FFF
:100EC000BB27F00DB11D639FAA27F00DB11DAA1F0E
:100ED000649F6627B00DA11D661F829F2227B00D5B
:100EE000A11D621F739FB00DA11D621F839FA00DE6
:100EF000611D221F749F3327A00D611D231F849F36
:100F0000600D211D822F762F6A2F11249F5750408C
:100F10009AF0F1F088234AF0EE0FFF1FBB1F661F07
:100F2000771F881F91505040A9F79E3F510580F0D0
:100F30000C94AF070C943C075F3FE4F3983ED4F366
:100F4000869577956795B795F795E7959F5FC1F774
:100F5000FE2B880F911D9695879597F9089597F91F
:100F60009F6780E870E060E008959FEF80EC08954F
:100F700000240A9416161706180609060895002478
:100F80000A9412161306140605060895092E0394F2
:100F9000000C11F4882352F0BB0F40F4BF2B11F466
:100FA00060FF04C06F5F7F4F8F4F9F4F089581E0B8
:0C0FB00090E0F8940C94DC07F894FFCF5C
:100FBC00000000008C02F5012402D302550233021A
:100FCC00470244697374616E63653A200020736D47
:100FDC00616C6C2C2000206D6D2C200020636D2C1E
:0A0FEC00200020696E000D0A0000CD
:00000001FF
