:100000000C943B010C946C010C946C010C946C01ED
:100010000C946C010C946C010C946C010C946C01AC
:100020000C946C010C946C010C946C010C946C019C
:100030000C946C010C946C010C946C010C946C018C
:100040000C946C010C946C010C946C010C946C017C
:100050000C946C010C946C010C946C010C943203A4
:100060000C946C010C94A6030C947C030C946C010E
:100070000C946C010C946C010C946C010C946C014C
:100080000C946C010C946C010C946C010C946C013C
:100090000C946C010C946C010C946C010C94720522
:1000A0000C946C010C946C010C946C010C946C011C
:1000B0000C946C010C946C010C946C010C946C010C
:1000C0000C946C010C946C010C946C010C946C01FC
:1000D0000C946C010C946C010C946C010C946C01EC
:1000E0000C946C010A040D04FC0300040404440491
:1000F000110415041B041F04230429042D043104D6
:10010000440437043B043F040C94E1040C9486043B
:100110000C9493010C94A9040C943F040C941C0DB2
:100120000C9444040C9400040C94C2010C94290413
:100130000C940D040C9471020C9404040C94E501CD
:100140000C9485040C9423040C94D1010C94FC03AE
:100150000C9411040C9437040C9495040C9415041D
:100160000C943B040C94BF010C941F040C940A04DF
:100170000C94F3010C941B040C942D040C94B10406
:100180000C9431040C942A0200002200250028005F
:100190002B002E003100340002010000050108018F
:1001A0000B010505050507050808080802020202FB
:1001B0000A0A080804040404010101010101010103
:1001C0000303030303030303040707070C0C0C0CCE
:1001D0000C0C0C0C020202020606060606060606B7
:1001E0000B0B0B0B0B0B0B0B010210202008081044
:1001F0002040102040800201020108040201010297
:10020000040810204080804020100804020180046F
:1002100002018040201008040201080402010102CA
:1002200004081020408001020408102040800000D3
:100230000A0B02090C0D0E08070304010000000060
:1002400000000000000000000000000000000000AE
:10025000000000000000000000001211100000006B
:10026000000000000000000000000000000000008E
:10027000000000001C0D11241FBECFEFD1E2DEBF35
:10028000CDBF00E00CBF12E0A0E0B2E0ECE3FDE186
:1002900000E00BBF02C007900D92A035B107D9F75F
:1002A00024E0A0E5B2E001C01D92A234B207E1F75C
:1002B00011E0CBE3D1E000E006C021970109802FD7
:1002C000FE010E945E0DCA33D10780E00807A9F73E
:1002D0000E9443070C949C0E0C9400003FB7F894C6
:1002E0008091650290916602A0916702B0916802C8
:1002F00026B5A89B05C02F3F19F00196A11DB11D81
:100300003FBFBA2FA92F982F8827820F911DA11DBB
:10031000B11DBC01CD0142E0660F771F881F991FF8
:100320004A95D1F70895CF92DF92EF92FF920F9303
:100330001F93CF93DF936C017A018B01C0E0D0E073
:10034000CE15DF0589F0D8016D918D01D601ED91B3
:10035000FC910190F081E02DC6011995892B11F4D3
:100360007E0102C02196ECCFC701DF91CF911F9192
:100370000F91FF90EF90DF90CF900895089580E067
:1003800090E00895FC01538D448D252F30E0842F9B
:1003900090E0821B930B541710F0CF9608950197AD
:1003A0000895FC01918D828D981761F0828DDF0197
:1003B000A80FB11D5D968C91928D9F5F9F73928F58
:1003C00090E008958FEF9FEF0895FC01918D828D4D
:1003D000981731F0828DE80FF11D858D90E008951A
:1003E0008FEF9FEF0895FC01918D228D892F90E072
:1003F000805C9F4F821B91098F739927089582EC2F
:1004000092E00E94F30121E0892B09F420E0822F81
:100410000895FC01848DDF01A80FB11DA35ABF4FC1
:100420002C91848D90E001968F739927848FA689F3
:10043000B7892C93A089B1898C9180648C93938D1A
:10044000848D981306C00288F389E02D80818F7D0A
:1004500080830895EF92FF920F931F93CF93DF93C2
:10046000EC0181E0888F9B8D8C8D981305C0E88905
:10047000F989808185FD24C0F62E0B8D10E00F5F79
:100480001F4F0F731127E02E8C8DE8120CC00FB692
:1004900007FCFACFE889F989808185FFF5CFCE0185
:1004A0000E940902F1CF8B8DFE01E80FF11DE35A86
:1004B000FF4FF0820B8FEA89FB898081806207C041
:1004C000EE89FF896083E889F9898081806480836F
:1004D00081E090E0DF91CF911F910F91FF90EF901D
:1004E0000895CF93DF93EC01888D8823C9F0EA89C2
:1004F000FB89808185FD05C0A889B9898C9186FD1D
:100500000FC00FB607FCF5CF808185FFF2CFA88919
:10051000B9898C9185FFEDCFCE010E940902E7CF0A
:10052000DF91CF91089580E090E0892B21F00E9427
:10053000FF01811125C080E090E0892B41F080E02F
:1005400090E0892B21F00E94000081111CC080E006
:1005500090E0892B41F080E090E0892B21F00E940F
:100560000000811113C080E090E0892BA1F080E0B1
:1005700090E0892B81F00E94000081110AC008954B
:100580000E940000D8CF0E940000E1CF0E9400002E
:10059000EACF0C9400000895CF93DF93EC01623012
:1005A00041F06430B9F0613059F5DF91CF910C948E
:1005B0001D078B819C8120E030E040E050E06981A4
:1005C000CD960E94E1068B819C8120E030E040E0E6
:1005D00050E110C08B819C8120E030E040E050E091
:1005E0006981CD960E94E1068B819C8120E030E0FC
:1005F00040E050E06A81CD96DF91CF910C94E10606
:10060000DF91CF9108950E94970ECF93DF93FC0165
:10061000AC014B5F5F4FEC012A964D96DA011496C0
:100620001C921E92139718829E0123503109D90102
:100630001C9221503109D9011C92DA011C924A5FA7
:100640005F4F26964817590749F711A614A610A61A
:1006500017A211AE14AE10AE17AA628365AFDF9178
:10066000CF9108951F920F920FB60F9211242F93DE
:100670003F938F939F93AF93BF938091610290912B
:100680006202A0916302B09164023091600223E0A3
:10069000230F2D3720F40196A11DB11D05C026E8BA
:1006A000230F0296A11DB11D209360028093610269
:1006B00090936202A0936302B093640280916502FA
:1006C00090916602A0916702B09168020196A11D07
:1006D000B11D8093650290936602A0936702B09368
:1006E0006802BF91AF919F918F913F912F910F9091
:1006F0000FBE0F901F9018951F920F920FB60F927A
:1007000011240BB60F922F933F934F935F936F93E8
:100710007F938F939F93AF93BF93EF93FF9382EC5D
:1007200092E00E940902FF91EF91BF91AF919F91DA
:100730008F917F916F915F914F913F912F910F908A
:100740000BBE0F900FBE0F901F9018951F920F9227
:100750000FB60F9211240BB60F922F938F939F9386
:10076000EF93FF93E091D202F091D3028081E09168
:10077000D802F091D90282FD12C090818091DB02F3
:100780008F5F8F732091DC02821751F0E091DB02C2
:10079000F0E0EE53FD4F958F8093DB0201C0808126
:1007A000FF91EF919F918F912F910F900BBE0F9022
:1007B0000FBE0F901F90189590E0FC01E25DFD4F79
:1007C0004491FC01E851FE4F2491FC01EE55FE4F8F
:1007D0009491992309F466C0442309F455C050E06C
:1007E000FA013197E231F10508F04EC08827EE5842
:1007F000FF4F8F4F0C945E0D809180008F7707C064
:10080000809180008F7D03C080918000877F8093DE
:1008100080003AC084B58F7702C084B58F7D84BDD7
:1008200033C08091B0008F7703C08091B0008F7D7E
:100830008093B00029C0809190008F7707C080918D
:1008400090008F7D03C080919000877F80939000FF
:100850001BC08091A0008F7707C08091A0008F7D82
:1008600003C08091A000877F8093A0000DC080917D
:1008700020018F7707C0809120018F7D03C0809178
:100880002001877F80932001E92FF0E0EE0FFF1F0A
:10089000E857FE4FA591B4918FB7F894EC912E2BA9
:1008A0002C938FBF089585ED8093BC008091BC0090
:1008B00084FDFCCF1092B10208954091FD03262FD4
:1008C00030E0240F311D21323105DCF42091B102DA
:1008D0002430C9F4FC0180E090E0861758F4309190
:1008E000FD032191DC01A552BC4FA30FB11D2C9338
:1008F0000196F3CF8091FD03680F6093FD0380E0C4
:10090000089581E0089582E008950895E0918A02B3
:1009100080918902E81730F4F0E0E759FD4F8081BB
:1009200090E008958FEF9FEF089590918A02809153
:100930008902981750F4E92FF0E0E759FD4F208124
:1009400030E09F5F90938A0202C02FEF3FEFC90112
:1009500008958091890290E020918A02821B91097A
:100960000895CF92DF92EF92FF920F931F93CF9350
:10097000DF937C01262F972F8A018091B202882372
:1009800091F0C62FD72F6E01C40ED51ECC15DD05F4
:1009900071F06991D701ED91FC910190F081E02D0A
:1009A000C7011995F3CF642F822F0E945D04C801FF
:1009B000DF91CF911F910F91FF90EF90DF90CF903B
:1009C0000895CF93DF931F92CDB7DEB7698320914F
:1009D000B2022223D1F02091B502203240F021E072
:1009E00030E0FC013383228380E090E015C08091E9
:1009F000B302E82FF0E0EE5DFB4F998190838F5FAB
:100A00008093B3028093B50205C061E0CE010196E8
:100A10000E945D0481E090E00F90DF91CF910895F6
:100A2000682F86EB92E00C94E104382F2091B502F8
:100A30009091B402213208F049C08091B102811135
:100A4000FCCF42E04093B1023093B0023FEF3093CD
:100A5000AF021092AE022093AD02A2E2B4E04DE8E4
:100A600052E0FA013E2F341B321718F43D913193B6
:100A7000F9CF10928C0220918C02990F922B9093B7
:100A80008C0290918B02913061F410928B029091C4
:100A90008C029093BB009091BC0093FDF8CF95EC35
:100AA00001C095EE9093BC009091B1029230E1F3B9
:100AB0009091AF029F3F79F08091AF02803241F078
:100AC0008091AF02803331F084E005C081E003C043
:100AD00082E001C083E01092B3021092B50210923E
:100AE000B20208951F920F920FB60F9211240BB607
:100AF0000F922F933F934F935F936F937F938F93B7
:100B00009F93AF93BF93EF93FF938091B900887F3A
:100B1000803609F49CC068F5883209F45BC090F413
:100B2000803109F454C038F4882309F4F6C08830C1
:100B300009F44DC0F6C0883109F44CC0803209F484
:100B40005DC0EFC0803409F468C048F4803309F414
:100B500055C0883309F0E5C08093AF02D8C0803516
:100B600009F44FC0883509F45DC0883409F0D9C054
:100B7000D6C0883909F4C7C0A8F4883709F467C01B
:100B800038F4883609F463C0803709F460C0C9C0FE
:100B9000883809F4B8C0803909F45FC0803809F09A
:100BA000C0C05BC0803B09F486C038F4803A09F4C9
:100BB00066C0883A09F47FC0B4C0803C09F4A7C07D
:100BC000883C09F4A4C0883B09F48AC0AAC080917B
:100BD0008C0210C09091AE028091AD02981770F512
:100BE000E091AE0281E08E0F8093AE02F0E0E35719
:100BF000FD4F80818093BB0085EC86C08093AF025F
:100C00008EC0E091AE0281E08E0F8093AE028091A3
:100C1000BB00F0E0E357FD4F80839091AE028091DE
:100C2000AD026EC0E091AE0281E08E0F8093AE0205
:100C30008091BB00F0E0E357FD4F80838091B002CC
:100C400081116DC081E080938B0284EA61C083E0F2
:100C50008093B10210922104CFCF80912104803281
:100C600008F051C0E091210481E08E0F80932104AF
:100C70008091BB00F0E0EF5FFB4F8083BDCF85EC40
:100C80008093BC001092B10280912104803230F434
:100C9000E0912104F0E0EF5FFB4F108260912104AE
:100CA00070E0E091FF03F091000481E094E0199579
:100CB0001092210436C084E08093B1021092FE03AA
:100CC0001092FD03E091FB03F091FC0319958091D4
:100CD000FD03811105C081E08093FD031092DB03C9
:100CE000E091FE0381E08E0F8093FE03F0E0E55279
:100CF000FC4F80818093BB009091FE038091FD03A7
:100D0000981708F479CF85E88093BC000AC085EC79
:100D10008093BC001092B10204C01092AF020E94F6
:100D20005304FF91EF91BF91AF919F918F917F916C
:100D30006F915F914F913F912F910F900BBE0F904C
:100D40000FBE0F901F9018951092B10281E0809312
:100D5000B00210928B0284E10E94DC0385E10E94C4
:100D6000DC03E9EBF0E080818E7F808380818D7FE2
:100D7000808388E48093B80085E48093BC00089564
:100D8000CF93DF931F92CDB7DEB7FC01808191E056
:100D90009093B2028093B4021092B3021092B50203
:100DA00086EB92E049830E94E1044981642F86EB3F
:100DB00092E00E94E10481E00F90DF91CF910C94CA
:100DC00015050F931F93CF93DF931F921F92CDB7FB
:100DD000DEB7152F032FFC01808191E09093B202C2
:100DE0008093B4021092B3021092B502F4E06F9FA8
:100DF000B00111246A5F7F4F86EB92E02A8349831A
:100E00000E94E1044981842F912F0E941005812FB7
:100E100090E00E9410052A81822F902F0E941005D9
:100E2000802F90E00E94100581E00F900F90DF91DD
:100E3000CF911F910F910C941505CF93DF93EC0187
:100E40008B819C8120E030E040E050E06A81CD96CB
:100E50000E94E1068B819C8120E030E040E050E17F
:100E60006981CD96DF91CF910C94E106FC0180E180
:100E7000689F900111248381948140E050E060815B
:100E8000CD960C94E106CF93DF93CDB7DEB7EE9706
:100E90000FB6F894DEBF0FBECDBF789484B58260E4
:100EA00084BD84B5816084BD85B5826085BD85B50E
:100EB000816085BD80916E00816080936E0010928C
:100EC0008100809181008260809381008091810007
:100ED0008160809381008091800081608093800098
:100EE0008091B10084608093B1008091B0008160F6
:100EF0008093B000809191008260809391008091F6
:100F00009100816080939100809190008160809336
:100F100090008091A10082608093A1008091A10047
:100F200081608093A1008091A00081608093A000E7
:100F30008091210182608093210180912101816053
:100F40008093210180912001816080932001809114
:100F50007A00846080937A0080917A008260809326
:100F60007A0080917A00816080937A0080917A0083
:100F7000806880937A001092C10061E6CE010196EC
:100F80000E9405038EE3FE013196AFE5B3E00190C8
:100F90000D928A95E1F762E6CE0101960E94050363
:100FA0008EE3FE013196ADE9B3E001900D928A9592
:100FB000E1F768E572E020E030E01EE3912E16E0F4
:100FC000C90181709927A90155954795949EF00113
:100FD000959EF00D1124DF01A15ABC4F189F70019E
:100FE000199FF00C1124EE0DFF1DE15AFC4FF28405
:100FF000F11030C08287B187A087009739F4E9E00B
:10100000BE2EFAE0AF2EA8E0FA2E06C0ACE0BA2E53
:10101000BBE0AB2E0DE0F02E189FF001199FF00DF4
:101020001124949ED001959EB00D1124EA0FFB1F50
:10103000E15AFC4FF5826C010FEFC01AD00A1C9DDB
:1010400070011D9DF00C1124AE0DBF1DA15ABC4FA7
:10105000AC92B782189FF001199FF00D1124949E55
:10106000C001959E900D11248E0F9F1F8C599C4F8F
:10107000FB0181939193BF012F5F3F4F24303105D6
:1010800009F09ECFEFE5EE2EE3E0FE2E0CE913E033
:10109000CC24C394F9E62F2EF2E03F2E86EB92E0AB
:1010A000F7019183808310928A0210928902109234
:1010B000B3021092B5020E94A40610928A02109206
:1010C00089021092B3021092B5020E94A40640E079
:1010D00060E0C8010E94C00680E496E0F7019483B6
:1010E0008383F8018081C092B2028093B40210928F
:1010F000B3021092B50260E086EB92E00E94E10438
:1011000081E00E941505F80180819091B102911152
:10111000FCCFC092B102C092B002FFEFF093AF02D9
:101120001092AE021092AD02C0928C0290918C028D
:10113000880F892B80938C0280918B02813071F40F
:1011400010928B0280918C028093BB008091BC0036
:1011500083FDF8CF25EC2093BC0003C085EE80937F
:10116000BC008091B1028130E1F38091AE02811127
:1011700003C08091AE0201C081E0ADE8B2E0E9E6D3
:10118000F2E09E2F9219981718F49D919193F9CF40
:1011900010928A028093890286EB92E00E94950465
:1011A000D82E482F4F76406160E0C8010E94C006EB
:1011B00043E06EEFC8010E94C0064D2D60E0C801FB
:1011C0000E94C0060E946E014B015C0175E0472E33
:1011D000512C612C712C0E946E01DC01CB0188190D
:1011E0009909AA09BB09883E9340A105B10558F0A9
:1011F00091E0491A510861087108E8EE8E0EE3E0AB
:101200009E1EA11CB11C411451046104710419F704
:101210004D2D416A60E0C8010E94C006D12C20E03B
:1012200030E040E050E06D2DC8010E94E106D3940B
:1012300020E1D212F4CF8EE3E80EF11C025C1F4FC6
:101240009BEDE91693E0F90609F028CF08E512E0D6
:1012500067E3F801819191918F010E943607F2E0D6
:1012600000361F07A9F787E390E09093510280931F
:1012700050029093530280935202909355028093B0
:101280005402909357028093560208E512E064E0FE
:10129000F801819191918F010E94CC02F2E0003619
:1012A0001F07A9F7E091D202F091D30282E0808378
:1012B000E091CE02F091CF021082E091D002F09145
:1012C000D1028FEC80831092DA02E091D602F09185
:1012D000D70286E08083E091D402F091D50280812C
:1012E00080618083E091D402F091D5028081886092
:1012F0008083E091D402F091D50280818068808360
:10130000E091D402F091D50280818F7D808348E204
:1013100050E064E272E082EC92E00E94930142E0CD
:1013200050E06DE472E082EC92E00E94930104E6EA
:1013300010E03FEAE32EF12C48ECC42ED12C51EE04
:10134000A52EB12C6DE7862E912C82EC92E00E94A6
:10135000F301892B09F46DC382EC92E00E94D10164
:1013600099278136910509F454C1DCF58433910540
:1013700009F482C2CCF48133910509F438C244F4F3
:10138000C09709F046C398E5692E92E0792E24C3F0
:101390008233910509F43EC2C39709F03AC3E8E5E8
:1013A0006E2EE2E07E2E59C28733910509F4B5C254
:1013B00064F48533910509F480C2C69709F029C306
:1013C00058E5652E52E0752E99C28833910509F4CF
:1013D000C5C2C99709F01DC328E5622E22E0722E0E
:1013E000DEC28B36910509F4A3C00CF07DC08536B2
:1013F000910509F464C17CF48336910509F48BC12D
:101400008436910509F005C378E5672E72E0772EE2
:10141000412C512C37C18936910509F4AAC18A366D
:10142000910509F0F6C26091500270915102072EA9
:10143000000C880B990B0E949E0D26E636E646E6C8
:101440005FE30E94020E0E94660D7093510260934A
:1014500050026091520270915302072E000C880BCB
:10146000990B0E949E0D26E636E646E65FE30E9453
:10147000020E0E94660D70935302609352026091B7
:10148000540270915502072E000C880B990B0E9494
:101490009E0D2DEC3CEC4CE85FE30E94020E0E9496
:1014A000660D7093550260935402609156027091DC
:1014B0005702072E000C880B990B0E949E0D2DECF5
:1014C0003CEC4CE85FE30E94020E0E94660D7093B4
:1014D000570260935602B0E54B2EB2E05B2E88E5D2
:1014E000682E82E0782E61C18737910509F481C0AA
:1014F00084F48137910509F4C9C08537910509F055
:1015000088C298E5692E92E0792E44244394512CA8
:101510002AC18837910509F495C08A37910509F0E9
:1015200078C248E5642E42E0742E412C512CEFC065
:101530006091500270915102072E000C880B990B9C
:101540000E949E0D2DEC3CEC4CE85FE30E94020EE5
:101550000E94660D70935102609350026091520296
:1015600070915302072E000C880B990B0E949E0D60
:101570002DEC3CEC4CE85FE30E94020E0E94660DED
:10158000709353026093520260915402709155021D
:10159000072E000C880B990B0E949E0D26E636E65E
:1015A00046E65FE30E94020E0E94660D70935502AC
:1015B000609354026091560270915702072E000CFE
:1015C000880B990B0E949E0D26E636E646E65FE301
:1015D0000E94020E0E94660D70935702609356029D
:1015E00090E5492E92E0592E28E5622E22E0722ED7
:1015F000EDC0A8E56A2EA2E07A2EF30181919191C7
:101600003F010E941D07F0E66F16F2E07F06A9F782
:1016100010C2F8E56F2EF2E07F2E412C512C40FED7
:1016200002C062E001C061E0F301819191913F014C
:101630000E94CC02FFEF4F1A5F0A24E042165104C9
:1016400071F7F7C1E8E56E2EE2E07E2E62E0F3016D
:10165000819191913F010E94CC02F0E66F16F2E079
:101660007F06A1F7E6C161E0F301819191913F010D
:101670000E94CC02FFEF4F1A5F0A24E04216510489
:1016800009F4D7C140FCEFCF62E0EECF68E5662EEB
:1016900062E0762E412C512C40FE02C064E001C075
:1016A00061E0F301819191913F010E94CC02FFEF33
:1016B0004F1A5F0A24E04216510471F7BAC158E587
:1016C000652E52E0752E412C512C40FC02C064E086
:1016D00001C061E0F301819191913F010E94CC0230
:1016E000FFEF4F1A5F0A24E04216510471F7A1C1BF
:1016F00064E0F301819191913F010E94CC02FFEFE0
:101700004F1A5F0A24E04216510409F492C140FEC8
:10171000EFCF62E0EECF38E5632E32E0732E412C3E
:10172000512C40FC02C062E001C064E0F3018191F1
:1017300091913F010E94CC02FFEF4F1A5F0A24E013
:101740004216510471F775C161E0F30181919191E5
:101750003F010E94CC02FFEF4F1A5F0A25E04216BC
:10176000510409F466C183E04816510468F762E049
:10177000ECCFB8E56B2EB2E07B2E44244394512C81
:1017800061E0F301819191913F010E94CC02FFEF52
:101790004F1A5F0A25E04216510409F44AC182E05B
:1017A0004816510469F362E0ECCFF2016081F2E087
:1017B0004F0E511CF301819191913F010E94360718
:1017C000F8E54F16F2E05F0681F733C1F201608160
:1017D000F2E04F0E511CF301819191913F010E9463
:1017E0003607F8E54F16F2E05F0681F722C1A8E55B
:1017F0006A2EA2E07A2E69E1F301819191913F0175
:101800000E943607F0E66F16F2E07F06A1F789E145
:1018100090E012C0F8E56F2EF2E07F2E62E3F30154
:10182000819191913F010E943607F0E66F16F2E038
:101830007F06A1F782E390E09093510280935002DB
:1018400090935302809352029093550280935402D6
:101850009093570280935602ECC06BE4F3018191A0
:1018600091913F010E943607F0E66F16F2E07F0685
:10187000A1F78BE490E0E0CF78E5672E72E0772E59
:1018800064E6F301819191913F010E943607F0E6F1
:101890006F16F2E07F06A1F71093510200935002F9
:1018A0001093530200935202109355020093540276
:1018B0001093570200935602BCC068E5662E62E0A2
:1018C000762E6DE7F301819191913F010E943607D9
:1018D000F0E66F16F2E07F06A1F790925102809237
:1018E000500290925302809252029092550280923E
:1018F000540290925702809256029BC066E9F3010F
:10190000819191913F010E943607F0E66F16F2E057
:101910007F06A1F786E990E08FCF48E5642E42E08C
:10192000742E6FEAF301819191913F010E94360775
:10193000F0E66F16F2E07F06A1F7F0925102E09216
:101940005002F0925302E0925202F0925502E0925D
:101950005402F0925702E09256026BC038E5632EB3
:1019600032E0732E68ECF301819191913F010E9466
:101970003607F0E66F16F2E07F06A1F7D09251022B
:10198000C0925002D0925302C0925202D09255029D
:10199000C0925402D0925702C09256024AC061EEE1
:1019A000F301819191913F010E943607F0E66F1695
:1019B000F2E07F06A1F7B0925102A0925002B092DD
:1019C0005302A0925202B0925502A0925402B092D9
:1019D0005702A09256022DC060E0F30181919191CF
:1019E0003F010E943607F0E66F16F2E07F06A1F78E
:1019F0001092510210925002109253021092520211
:101A000010925502109254021092570210925602F0
:101A100010C088E5682E82E0782E64E0F3018191A1
:101A200091913F010E94CC02F0E66F16F2E07F0632
:101A3000A1F70E94930289CCE6EBF2E013821282B6
:101A400088EE93E0A0E0B0E084839583A683B7831B
:101A500024E032E031832083E2ECF2E01382128250
:101A600084839583A683B78386E192E09183808304
:101A700085EC90E09587848784EC90E09787868753
:101A800080EC90E0918B808B81EC90E0938B828B4B
:101A900082EC90E0958B848B86EC90E0978B868B24
:101AA000118E128E138E148E60E68FE593E00E94E5
:101AB000050360E68DE993E00C940503EE0FFF1F2C
:101AC000881F8BBF0790F691E02D19940E946D0D31
:101AD0006894B1110C94FC0D08950E94E10D88F0FA
:101AE0009F5798F0B92F9927B751B0F0E1F0660FE2
:101AF000771F881F991F1AF0BA95C9F714C0B13023
:101B000091F00E94FB0DB1E008950C94FB0D672F3E
:101B1000782F8827B85F39F0B93FCCF38695779551
:101B20006795B395D9F73EF490958095709561953A
:101B30007F4F8F4F9F4F0895E89409C097FB3EF465
:101B400090958095709561957F4F8F4F9F4F99230A
:101B5000A9F0F92F96E9BB279395F6958795779588
:101B60006795B795F111F8CFFAF4BB0F11F460FF48
:101B70001BC06F5F7F4F8F4F9F4F16C0882311F0A0
:101B800096E911C0772321F09EE8872F762F05C0B4
:101B9000662371F096E8862F70E060E02AF09A954F
:101BA000660F771F881FDAF7880F9695879597F944
:101BB000089557FD9058440F551F59F05F3F71F03D
:101BC0004795880F97FB991F61F09F3F79F08795A4
:101BD0000895121613061406551FF2CF4695F1DF2D
:101BE00008C0161617061806991FF1CF86957105BD
:101BF000610508940895E894BB2766277727CB01F1
:101C000097F908950E94150E0C94860E0E94780E86
:101C100038F00E947F0E20F0952311F00C946F0E87
:101C20000C94750E11240C94FC0D0E94D90D70F3C8
:101C3000959FC1F3950F50E0551F629FF001729F71
:101C4000BB27F00DB11D639FAA27F00DB11DAA1F80
:101C5000649F6627B00DA11D661F829F2227B00DCD
:101C6000A11D621F739FB00DA11D621F839FA00D58
:101C7000611D221F749F3327A00D611D231F849FA8
:101C8000600D211D822F762F6A2F11249F575040FF
:101C90009AF0F1F088234AF0EE0FFF1FBB1F661F7A
:101CA000771F881F91505040A9F79E3F510580F043
:101CB0000C946F0E0C94FC0D5F3FE4F3983ED4F34C
:101CC000869577956795B795F795E7959F5FC1F7E7
:101CD000FE2B880F911D9695879597F9089597F992
:101CE0009F6780E870E060E008959FEF80EC0895C2
:101CF00000240A94161617061806090608950024EB
:101D00000A9412161306140605060895092E039464
:101D1000000C11F4882352F0BB0F40F4BF2B11F4D8
:101D200060FF04C06F5F7F4F8F4F9F4F089581E02A
:0C1D300090E0F8940C949C0EF894FFCF07
:101D3C0000000000E104B104BF018504A90495046E
:101D4C008604000000002A029301C2017102F30113
:101D5C00D101E5014164616672756974204D6F743F
:101D6C006F72736869656C64207632202D20444351
:101D7C00204D6F746F72207465737421000D0A000E
:00000001FF
