:100000000C9449010C947A010C947A010C947A01B5
:100010000C947A010C947A010C947A010C947A0174
:100020000C947A010C947A010C947A010C947A0164
:100030000C947A010C947A010C947A010C947A0154
:100040000C947A010C947A010C947A010C947A0144
:100050000C947A010C947A010C947A010C942F057B
:100060000C947A010C94A3050C9479050C947A01F4
:100070000C947A010C947A010C947A010C947A0114
:100080000C947A010C947A010C947A010C947A0104
:100090000C947A010C947A010C947A010C947A01F4
:1000A0000C947A010C947A010C947A010C947A01E4
:1000B0000C947A010C947A010C947A010C947A01D4
:1000C0000C947A010C947A010C947A010C947A01C4
:1000D0000C947A010C947A010C947A010C947A01B4
:1000E0000C947A0197019A0189018D019301D10144
:1000F0009E01A201A801AC01B001B601BA01BE0186
:10010000D101C401C801CC010C94A1070C945E0379
:100110000C9497010C942F030C94CC010C94810344
:100120000C94D1010C94B0010C9478020C94BE0193
:100130000C94AC010C94C8010C949A010C94BA0173
:100140000C94A8010C948F030C940D040C94C6031A
:100150000C946D030C948D010C94B6010C949301D6
:100160000C949E010C9489010C94C4010C94A2017E
:10017000000020002300260029002C002F00320060
:100180000001000003010601090100002100240014
:1001900027002A002D003000330001010000040177
:1001A00007010A0100002200250028002B002E0074
:1001B0003100340002010000050108010B010505B2
:1001C0000505070508080808020202020A0A0808CD
:1001D00004040404010101010101010103030303FB
:1001E00003030303040707070C0C0C0C0C0C0C0C8A
:1001F0000202020206060606060606060B0B0B0B9B
:100200000B0B0B0B010210202008081020401020BF
:1002100040800201020108040201010204081020CA
:1002200040808040201008040201800402018040C8
:100230002010080402010804020101020408102031
:100240004080010204081020408000000A0B0209CF
:100250000C0D0E0807030401000000000000000060
:10026000000000000000000000000000000000008E
:10027000000000000000121110000000000000004B
:10028000000000000000000000000000000000006E
:10029000A10711241FBECFEFD1E2DEBFCDBF00E02A
:1002A0000CBF12E0A0E0B2E0E8E5F2E100E00BBF35
:1002B00002C007900D92A635B107D9F723E0A6E555
:1002C000B2E001C01D92A030B207E1F711E0C9E42D
:1002D000D1E000E006C021970109802FFE010E94B5
:1002E000F007C834D10780E00807A9F70E94D905B4
:1002F0000C942A090C94000090E0FC013197E23143
:10030000F10508F04EC08827EE58FF4F8F4F0C9430
:10031000F007809180008F7703C0809180008F7DEF
:1003200080938000089580918000877FF9CF84B505
:100330008F7702C084B58F7D84BD08958091B00011
:100340008F7703C08091B0008F7D8093B0000895B7
:10035000809190008F7707C0809190008F7D03C0BF
:1003600080919000877F8093900008958091A000F5
:100370008F7707C08091A0008F7D03C08091A0007F
:10038000877F8093A0000895809120018F7707C018
:10039000809120018F7D03C080912001877F809311
:1003A000200108951F93CF93DF93282F30E0F901A8
:1003B000E65BFD4F8491F901EC5FFD4FD491F901AB
:1003C000E254FE4FC491CC23C9F0162F81110E9434
:1003D0007C01EC2FF0E0EE0FFF1FEC55FE4FA591D6
:1003E000B4918FB7F894111105C09C91ED2FE09551
:1003F000E92302C0EC91ED2BEC938FBFDF91CF91FD
:100400001F910895CF93DF9390E0FC01EC5FFD4FC7
:100410002491FC01E254FE4F8491882361F190E025
:10042000880F991FFC01E657FE4FC591D491FC013E
:10043000EC55FE4FA591B491611109C09FB7F89496
:100440008881209582238883EC912E230BC0623013
:1004500061F49FB7F8943881822F80958323888335
:10046000EC912E2B2C939FBF06C08FB7F894E88198
:100470002E2B28838FBFDF91CF910895CF93DF93E9
:10048000FC0185858F3F61F0EF0161E00E9402026F
:1004900060E08D850E94D2018BE193E00197F1F736
:1004A000DF91CF9108953FB7F89480915B029091CE
:1004B0005C02A0915D02B0915E0226B5A89B05C0CA
:1004C0002F3F19F00196A11DB11D3FBFBA2FA92FD3
:1004D000982F8827820F911DA11DB11DBC01CD0150
:1004E00042E0660F771F881F991F4A95D1F708953C
:1004F0005F926F927F928F929F92AF92BF92CF92B4
:10050000DF92EF92FF920F931F93CF93DF93FC0143
:1005100022853385232B09F492C06B01EC01F12C69
:100520008C85F816F0F40F2D10E08E859F85F8016C
:10053000EE0FFF1FEC0DFD1D91838083EA85FB8587
:10054000E00FF11F61E080810E94D2018A859B85C6
:10055000FC01E00FF11F61E080810E940202F39430
:10056000DFCF83E290E00197F1F710E08C85181758
:10057000A8F4E12EF12CEA85FB85EE0DFF1D60E06D
:1005800080810E9402028A859B85FC01EE0DFF1D81
:1005900060E080810E94D2011F5FE8CF0E94530279
:1005A0004B015C010E945302AB01BC01481959097F
:1005B0006A097B098E859F85A0E0B0E0481759073E
:1005C0006A077B0708F03BC00E9453027B01E818D2
:1005D000F908612C8C85681628F7062D10E0EA854D
:1005E000FB85E00FF11F208130E0F901E65BFD4F54
:1005F0008491F901EC5FFD4F7490F901E254FE4FD4
:100600005490552071F081110E947C01E52DF0E09D
:10061000EE0FFF1FE059FE4FA591B491EC917E22A1
:1006200061F4000F111FF601E00FF11F808191812D
:10063000E816F90610F4F182E0826394CBCFDF91E3
:10064000CF911F910F91FF90EF90DF90CF90BF90CF
:10065000AF909F908F907F906F905F900895CF9212
:10066000DF92EF92FF920F931F93CF93DF936C0172
:100670007A018B01C0E0D0E0CE15DF0589F0D8010A
:100680006D918D01D601ED91FC910190F081E02DED
:10069000C6011995892B11F47E0102C02196ECCF79
:1006A000C701DF91CF911F910F91FF90EF90DF90E5
:1006B000CF900895089580E090E00895FC01538D57
:1006C000448D252F30E0842F90E0821B930B54172C
:1006D00010F0CF96089501970895FC01918D828DB9
:1006E000981761F0828DDF01A80FB11D5D968C9186
:1006F000928D9F5F9F73928F90E008958FEF9FEF91
:100700000895FC01918D828D981731F0828DE80F4C
:10071000F11D858D90E008958FEF9FEF0895FC0106
:10072000918D228D892F90E0805C9F4F821B9109D3
:100730008F73992708958FE592E00E948F0321E03F
:10074000892B09F420E0822F0895FC01848DDF01BC
:10075000A80FB11DA35ABF4F2C91848D90E0019634
:100760008F739927848FA689B7892C93A089B18923
:100770008C9180648C93938D848D981306C002882D
:10078000F389E02D80818F7D80830895EF92FF9221
:100790000F931F93CF93DF93EC0181E0888F9B8DA4
:1007A0008C8D981305C0E889F989808185FD24C066
:1007B000F62E0B8D10E00F5F1F4F0F731127E02EE9
:1007C0008C8DE8120CC00FB607FCFACFE889F989C6
:1007D000808185FFF5CFCE010E94A503F1CF8B8DDF
:1007E000FE01E80FF11DE35AFF4FF0820B8FEA89FB
:1007F000FB898081806207C0EE89FF896083E88978
:10080000F98980818064808381E090E0DF91CF91DD
:100810001F910F91FF90EF900895CF93DF93EC011C
:10082000888D8823C9F0EA89FB89808185FD05C010
:10083000A889B9898C9186FD0FC00FB607FCF5CF4A
:10084000808185FFF2CFA889B9898C9185FFEDCF92
:10085000CE010E94A503E7CFDF91CF91089580E0FC
:1008600090E0892B21F00E949B03811125C080E03C
:1008700090E0892B41F080E090E0892B21F00E94EC
:10088000000081111CC080E090E0892B41F080E0E5
:1008900090E0892B21F00E940000811113C080E0BC
:1008A00090E0892BA1F080E090E0892B81F00E94FC
:1008B000000081110AC008950E940000D8CF0E9454
:1008C0000000E1CF0E940000EACF0C9400000895E0
:1008D000009769F0FC0101900020E9F73197AF0122
:1008E000481B590BBC018FE592E00C942F0380E06C
:1008F00090E00895CF93DF930E946804EC0182E3B7
:1009000092E00E9468048C0F9D1FDF91CF910895A3
:100910008F929F92AF92BF920F931F93CF93DF93CB
:10092000CDB7DEB7A1970FB6F894DEBF0FBECDBF2F
:1009300019A2423008F44AE08E010F5D1F4F842E49
:10094000912CA12CB12CA50194010E94CE07E62F79
:10095000B901CA0101501109EA3014F4E05D01C087
:10096000E95CD801EC93232B242B252B61F7C801DC
:100970000E946804A1960FB6F894DEBF0FBECDBFEB
:10098000DF91CF911F910F91BF90AF909F908F906B
:1009900008950F931F93CF93DF93EC018B018D8507
:1009A0008F3F59F061E00E94020261E08D850E9454
:1009B000D2018BE193E00197F1F7B801CE010E94DB
:1009C0007802CE01DF91CF911F910F910C943E02DE
:1009D000CF92DF92EF92FF920F93CF93DF93EC01D0
:1009E0007B01690180E392E0998388831B821A82EC
:1009F0001D821C821F821E82198618861B861A86FB
:100A0000198A188A413118F080E18C8701C04C871F
:100A10008C8590E00E94F8079B878A87892B99F044
:100A200080E09C85891770F4482F50E0F701E40FAF
:100A3000F51F90812A853B85F901E40FF51F90830E
:100A40008F5FEFCF0D87DF86CE86DF91CF910F913D
:100A5000FF90EF90DF90CF9008950E9425091F929C
:100A60000F920FB60F9211242F933F938F939F9362
:100A7000AF93BF938091570290915802A091590271
:100A8000B0915A023091560223E0230F2D3720F403
:100A90000196A11DB11D05C026E8230F0296A11DD8
:100AA000B11D209356028093570290935802A09351
:100AB0005902B0935A0280915B0290915C02A0911E
:100AC0005D02B0915E020196A11DB11D80935B0293
:100AD00090935C02A0935D02B0935E02BF91AF91D0
:100AE0009F918F913F912F910F900FBE0F901F906C
:100AF00018951F920F920FB60F9211240BB60F92FA
:100B00002F933F934F935F936F937F938F939F9315
:100B1000AF93BF93EF93FF938FE592E00E94A503FD
:100B2000FF91EF91BF91AF919F918F917F916F91C5
:100B30005F914F913F912F910F900BBE0F900FBE81
:100B40000F901F9018951F920F920FB60F921124BD
:100B50000BB60F922F938F939F93EF93FF93E09198
:100B60006F02F09170028081E0917502F09176023F
:100B700082FD12C09081809178028F5F8F732091E7
:100B80007902821751F0E0917802F0E0E15AFD4FCE
:100B9000958F8093780201C08081FF91EF919F91A2
:100BA0008F912F910F900BBE0F900FBE0F901F9043
:100BB0001895CF93DF93CDB7DEB7C458D1090FB6E0
:100BC000F894DEBF0FBECDBF789484B5826084BD3B
:100BD00084B5816084BD85B5826085BD85B5816041
:100BE00085BD80916E00816080936E0010928100BF
:100BF000809181008260809381008091810081607A
:100C0000809381008091800081608093800080913A
:100C1000B10084608093B1008091B00081608093C6
:100C2000B00080919100826080939100809191004A
:100C3000816080939100809190008160809390000A
:100C40008091A10082608093A1008091A1008160C9
:100C50008093A1008091A00081608093A00080918A
:100C60002101826080932101809121018160809324
:100C700021018091200181608093200180917A0080
:100C8000846080937A0080917A00826080937A00F9
:100C900080917A00816080937A0080917A008068E8
:100CA00080937A001092C10085E0E6E0F2E0DE0178
:100CB000A058BF4F01900D928A95E1F785E0EBE0D7
:100CC000F2E0DE01A558BF4F01900D928A95E1F741
:100CD00085E0E0E1F2E0DE01AA58BF4F01900D92FD
:100CE0008A95E1F785E0E5E1F2E0DE01AF58BF4F1C
:100CF00001900D928A95E1F70FEF20EA3FE045E081
:100D0000BE0160587F4FCE01C7960E94E80420EADA
:100D10003FE045E0BE0165587F4FCE0185960E94B9
:100D2000E80420EA3FE045E0BE016A587F4FCE016B
:100D300043960E94E80420EA3FE045E0BE016F5878
:100D40007F4FCE0101960E94E804E0916F02F0917E
:100D5000700282E08083E0916B02F0916C0210825D
:100D6000E0916D02F0916E028FEC80831092770219
:100D7000E0917302F091740286E08083E091710249
:100D8000F0917202808180618083E0917102F09124
:100D90007202808188608083E0917102F09172021A
:100DA000808180688083E0917102F091720280817D
:100DB0008F7D808307E610E00C0F1D1F065F1F4F1D
:100DC0009DE5E92EF12CEC0EFD1E2AE0E20EF11C51
:100DD00023E5C22ED12CCC0EDD1E8AE0C80ED11C1C
:100DE00039E4232E312C2C0E3D1E9AE0290E311CA5
:100DF000BE0169597F4FCE01C7960E94C904BE014A
:100E0000635A7F4FCE0185960E94C904BE016D5A78
:100E10007F4FCE0143960E94C904BE01675B7F4F9E
:100E2000CE0101960E94C90485E392E00E947A04F3
:100E3000FE01E959FF4F3F01F301619171913F01BB
:100E400080E090E04AE00E9488048DE392E00E94F6
:100E50007A046016710681F78FE392E00E947A04AB
:100E6000CE01835A9F4F3C01F301619171913F0183
:100E700080E090E04AE00E9488048DE392E00E94C6
:100E80007A046E147F0481F787E492E00E947A046A
:100E9000CE018D5A9F4F3C01F301619171913F0149
:100EA00080E090E04AE00E9488048DE392E00E9496
:100EB0007A046C147D0481F78EE492E00E947A0437
:100EC000CE01875B9F4F3C01F301619171913F011E
:100ED00080E090E04AE00E9488048DE392E00E9466
:100EE0007A046214730481F70E9453024B015C017F
:100EF00084EF482E55245394612C712C0E94530288
:100F0000DC01CB0188199909AA09BB09883E9340E5
:100F1000A105B10580F0F1E04F1A51086108710890
:100F200028EE820E23E0921EA11CB11C4114510434
:100F30006104710419F74114510461047104F1F65C
:100F400057CFEFE5F2E01382128288EE93E0A0E043
:100F5000B0E084839583A683B7838EE192E091838A
:100F6000808385EC90E09587848784EC90E0978778
:100F7000868780EC90E0918B808B81EC90E0938B66
:100F8000828B82EC90E0958B848B86EC90E0978B43
:100F9000868B118E128E138E148E0895A1E21A2E56
:100FA000AA1BBB1BFD010DC0AA1FBB1FEE1FFF1F0D
:100FB000A217B307E407F50720F0A21BB30BE40B5D
:100FC000F50B661F771F881F991F1A9469F76095A4
:100FD0007095809590959B01AC01BD01CF0108955E
:100FE000EE0FFF1F881F8BBF0790F691E02D19941D
:100FF000CF93DF938230910510F482E090E0E0918E
:10100000FE02F091FF0220E030E0C0E0D0E0309737
:1010100011F14081518148175907C0F0481759070D
:1010200061F482819381209719F09B838A832BC07E
:101030009093FF028093FE0226C02115310519F01E
:101040004217530718F49A01BE01DF01EF01028035
:10105000F381E02DDCCF2115310509F1281B390B77
:101060002430310590F412968D919C91139761155F
:10107000710521F0FB019383828304C09093FF02EA
:101080008093FE02FD01329644C0FD01E20FF31F82
:1010900081939193225031092D933C933AC0209132
:1010A000FC023091FD02232B41F420910202309189
:1010B00003023093FD022093FC0220910002309144
:1010C00001022115310541F42DB73EB740910402CC
:1010D00050910502241B350BE091FC02F091FD02BA
:1010E000E217F307A0F42E1B3F0B2817390778F0FF
:1010F000AC014E5F5F4F2417350748F04E0F5F1F5E
:101100005093FD024093FC028193919302C0E0E072
:10111000F0E0CF01DF91CF9108950F931F93CF930C
:10112000DF93009709F48CC0FC013297138212827E
:101130000091FE021091FF020115110581F420813A
:101140003181820F931F2091FC023091FD022817FC
:10115000390779F5F093FD02E093FC0271C0D801E4
:1011600040E050E0AE17BF0750F412962D913C912D
:101170001397AD012115310509F1D901F3CF9D0177
:10118000DA013383228360817181860F971F821772
:10119000930769F4EC0128813981260F371F2E5FF0
:1011A0003F4F318320838A819B8193838283452BA8
:1011B00029F4F093FF02E093FE0242C01396FC93E1
:1011C000EE931297ED01499159919E01240F351F1D
:1011D000E217F30771F480819181840F951F0296C5
:1011E00011969C938E938281938113969C938E93F8
:1011F0001297E0E0F0E0D80112968D919C91139740
:10120000009719F0F8018C01F6CF8D919C9198010F
:101210002E5F3F4F820F931F2091FC023091FD0201
:101220002817390769F4309729F41092FF021092B9
:10123000FE0202C0138212821093FD020093FC0290
:10124000DF91CF911F910F91089581E090E0F89484
:081250000C942A09F894FFCF69
:1012580000000003800034351617181C1D1E1F20BF
:1012680024252627282C2D2E2F3000000000C60309
:101278002F035E030D048F036D038103000000003C
:1012880078020D0A000A52696768743A0020000A59
:1012980046726F6E743A000A4C6566743A000A42E8
:0612A80061636B3A0000D7
:00000001FF
